{
  "_format": "hh3-artifact-1",
  "contractName": "PythPriceMonitor",
  "sourceName": "contracts/PythPriceMonitor.sol",
  "abi": [
    {
      "inputs": [
        {
          "internalType": "address",
          "name": "_pythContract",
          "type": "address"
        }
      ],
      "stateMutability": "nonpayable",
      "type": "constructor"
    },
    {
      "anonymous": false,
      "inputs": [
        {
          "indexed": false,
          "internalType": "address[]",
          "name": "assets",
          "type": "address[]"
        },
        {
          "indexed": false,
          "internalType": "uint256",
          "name": "timestamp",
          "type": "uint256"
        },
        {
          "indexed": false,
          "internalType": "uint256",
          "name": "severity",
          "type": "uint256"
        }
      ],
      "name": "CrashDetected",
      "type": "event"
    },
    {
      "anonymous": false,
      "inputs": [
        {
          "indexed": true,
          "internalType": "address",
          "name": "previousOwner",
          "type": "address"
        },
        {
          "indexed": true,
          "internalType": "address",
          "name": "newOwner",
          "type": "address"
        }
      ],
      "name": "OwnershipTransferred",
      "type": "event"
    },
    {
      "anonymous": false,
      "inputs": [
        {
          "indexed": true,
          "internalType": "bytes32",
          "name": "priceId",
          "type": "bytes32"
        },
        {
          "indexed": true,
          "internalType": "address",
          "name": "token",
          "type": "address"
        }
      ],
      "name": "PriceFeedAdded",
      "type": "event"
    },
    {
      "anonymous": false,
      "inputs": [
        {
          "indexed": true,
          "internalType": "bytes32",
          "name": "priceId",
          "type": "bytes32"
        }
      ],
      "name": "PriceFeedRemoved",
      "type": "event"
    },
    {
      "anonymous": false,
      "inputs": [
        {
          "indexed": false,
          "internalType": "bytes32[]",
          "name": "priceIds",
          "type": "bytes32[]"
        },
        {
          "indexed": false,
          "internalType": "uint256",
          "name": "timestamp",
          "type": "uint256"
        }
      ],
      "name": "PricesUpdated",
      "type": "event"
    },
    {
      "anonymous": false,
      "inputs": [
        {
          "indexed": false,
          "internalType": "uint256",
          "name": "timestamp",
          "type": "uint256"
        }
      ],
      "name": "PricesUpdatedRealtime",
      "type": "event"
    },
    {
      "inputs": [],
      "name": "PYTH",
      "outputs": [
        {
          "internalType": "contract IPyth",
          "name": "",
          "type": "address"
        }
      ],
      "stateMutability": "view",
      "type": "function"
    },
    {
      "inputs": [
        {
          "internalType": "bytes32",
          "name": "priceId",
          "type": "bytes32"
        },
        {
          "internalType": "address",
          "name": "tokenAddress",
          "type": "address"
        }
      ],
      "name": "addPriceFeed",
      "outputs": [],
      "stateMutability": "nonpayable",
      "type": "function"
    },
    {
      "inputs": [
        {
          "internalType": "address[]",
          "name": "assets",
          "type": "address[]"
        },
        {
          "internalType": "uint256",
          "name": "threshold",
          "type": "uint256"
        },
        {
          "internalType": "uint256",
          "name": "timeWindow",
          "type": "uint256"
        }
      ],
      "name": "checkAssetsCrash",
      "outputs": [
        {
          "internalType": "bool",
          "name": "",
          "type": "bool"
        }
      ],
      "stateMutability": "view",
      "type": "function"
    },
    {
      "inputs": [],
      "name": "crashGuardCore",
      "outputs": [
        {
          "internalType": "address",
          "name": "",
          "type": "address"
        }
      ],
      "stateMutability": "view",
      "type": "function"
    },
    {
      "inputs": [
        {
          "components": [
            {
              "internalType": "uint256",
              "name": "singleAssetThreshold",
              "type": "uint256"
            },
            {
              "internalType": "uint256",
              "name": "multiAssetThreshold",
              "type": "uint256"
            },
            {
              "internalType": "uint256",
              "name": "timeWindow",
              "type": "uint256"
            },
            {
              "internalType": "uint256",
              "name": "minimumAssets",
              "type": "uint256"
            }
          ],
          "internalType": "struct IPythPriceMonitor.CrashThresholds",
          "name": "thresholds",
          "type": "tuple"
        }
      ],
      "name": "detectMultiAssetCrash",
      "outputs": [
        {
          "internalType": "bool",
          "name": "",
          "type": "bool"
        }
      ],
      "stateMutability": "view",
      "type": "function"
    },
    {
      "inputs": [],
      "name": "emergencyPaused",
      "outputs": [
        {
          "internalType": "bool",
          "name": "",
          "type": "bool"
        }
      ],
      "stateMutability": "view",
      "type": "function"
    },
    {
      "inputs": [
        {
          "internalType": "bytes32",
          "name": "priceId",
          "type": "bytes32"
        }
      ],
      "name": "getLatestPrice",
      "outputs": [
        {
          "components": [
            {
              "internalType": "uint256",
              "name": "price",
              "type": "uint256"
            },
            {
              "internalType": "uint256",
              "name": "timestamp",
              "type": "uint256"
            },
            {
              "internalType": "uint256",
              "name": "confidence",
              "type": "uint256"
            },
            {
              "internalType": "bool",
              "name": "isValid",
              "type": "bool"
            }
          ],
          "internalType": "struct IPythPriceMonitor.PriceData",
          "name": "",
          "type": "tuple"
        }
      ],
      "stateMutability": "view",
      "type": "function"
    },
    {
      "inputs": [
        {
          "internalType": "address",
          "name": "tokenAddress",
          "type": "address"
        }
      ],
      "name": "getPriceByToken",
      "outputs": [
        {
          "components": [
            {
              "internalType": "uint256",
              "name": "price",
              "type": "uint256"
            },
            {
              "internalType": "uint256",
              "name": "timestamp",
              "type": "uint256"
            },
            {
              "internalType": "uint256",
              "name": "confidence",
              "type": "uint256"
            },
            {
              "internalType": "bool",
              "name": "isValid",
              "type": "bool"
            }
          ],
          "internalType": "struct IPythPriceMonitor.PriceData",
          "name": "",
          "type": "tuple"
        }
      ],
      "stateMutability": "view",
      "type": "function"
    },
    {
      "inputs": [
        {
          "internalType": "bytes32",
          "name": "priceId",
          "type": "bytes32"
        },
        {
          "internalType": "uint256",
          "name": "timeRange",
          "type": "uint256"
        }
      ],
      "name": "getPriceHistory",
      "outputs": [
        {
          "components": [
            {
              "internalType": "uint256",
              "name": "price",
              "type": "uint256"
            },
            {
              "internalType": "uint256",
              "name": "timestamp",
              "type": "uint256"
            },
            {
              "internalType": "uint256",
              "name": "confidence",
              "type": "uint256"
            },
            {
              "internalType": "bool",
              "name": "isValid",
              "type": "bool"
            }
          ],
          "internalType": "struct IPythPriceMonitor.PriceData[]",
          "name": "",
          "type": "tuple[]"
        }
      ],
      "stateMutability": "view",
      "type": "function"
    },
    {
      "inputs": [
        {
          "internalType": "bytes32",
          "name": "priceId",
          "type": "bytes32"
        }
      ],
      "name": "getRealtimePrice",
      "outputs": [
        {
          "components": [
            {
              "internalType": "uint256",
              "name": "price",
              "type": "uint256"
            },
            {
              "internalType": "uint256",
              "name": "timestamp",
              "type": "uint256"
            },
            {
              "internalType": "uint256",
              "name": "confidence",
              "type": "uint256"
            },
            {
              "internalType": "bool",
              "name": "isValid",
              "type": "bool"
            }
          ],
          "internalType": "struct IPythPriceMonitor.PriceData",
          "name": "",
          "type": "tuple"
        }
      ],
      "stateMutability": "view",
      "type": "function"
    },
    {
      "inputs": [
        {
          "internalType": "bytes[]",
          "name": "priceUpdateData",
          "type": "bytes[]"
        }
      ],
      "name": "getUpdateFee",
      "outputs": [
        {
          "internalType": "uint256",
          "name": "",
          "type": "uint256"
        }
      ],
      "stateMutability": "view",
      "type": "function"
    },
    {
      "inputs": [
        {
          "internalType": "bytes32",
          "name": "priceId",
          "type": "bytes32"
        }
      ],
      "name": "isPriceFresh",
      "outputs": [
        {
          "internalType": "bool",
          "name": "",
          "type": "bool"
        }
      ],
      "stateMutability": "view",
      "type": "function"
    },
    {
      "inputs": [],
      "name": "owner",
      "outputs": [
        {
          "internalType": "address",
          "name": "",
          "type": "address"
        }
      ],
      "stateMutability": "view",
      "type": "function"
    },
    {
      "inputs": [
        {
          "internalType": "bytes32",
          "name": "",
          "type": "bytes32"
        }
      ],
      "name": "priceIdToToken",
      "outputs": [
        {
          "internalType": "address",
          "name": "",
          "type": "address"
        }
      ],
      "stateMutability": "view",
      "type": "function"
    },
    {
      "inputs": [
        {
          "internalType": "bytes32[]",
          "name": "priceIds",
          "type": "bytes32[]"
        }
      ],
      "name": "readLatestPrices",
      "outputs": [],
      "stateMutability": "nonpayable",
      "type": "function"
    },
    {
      "inputs": [
        {
          "internalType": "bytes32",
          "name": "priceId",
          "type": "bytes32"
        }
      ],
      "name": "removePriceFeed",
      "outputs": [],
      "stateMutability": "nonpayable",
      "type": "function"
    },
    {
      "inputs": [],
      "name": "renounceOwnership",
      "outputs": [],
      "stateMutability": "nonpayable",
      "type": "function"
    },
    {
      "inputs": [
        {
          "internalType": "address",
          "name": "_crashGuardCore",
          "type": "address"
        }
      ],
      "name": "setCrashGuardCore",
      "outputs": [],
      "stateMutability": "nonpayable",
      "type": "function"
    },
    {
      "inputs": [
        {
          "internalType": "bool",
          "name": "paused",
          "type": "bool"
        }
      ],
      "name": "setEmergencyPause",
      "outputs": [],
      "stateMutability": "nonpayable",
      "type": "function"
    },
    {
      "inputs": [
        {
          "internalType": "address",
          "name": "",
          "type": "address"
        }
      ],
      "name": "tokenToPriceId",
      "outputs": [
        {
          "internalType": "bytes32",
          "name": "",
          "type": "bytes32"
        }
      ],
      "stateMutability": "view",
      "type": "function"
    },
    {
      "inputs": [
        {
          "internalType": "address",
          "name": "newOwner",
          "type": "address"
        }
      ],
      "name": "transferOwnership",
      "outputs": [],
      "stateMutability": "nonpayable",
      "type": "function"
    },
    {
      "inputs": [
        {
          "internalType": "bytes32[]",
          "name": "priceIds",
          "type": "bytes32[]"
        }
      ],
      "name": "updatePrices",
      "outputs": [],
      "stateMutability": "payable",
      "type": "function"
    },
    {
      "inputs": [
        {
          "internalType": "bytes[]",
          "name": "priceUpdateData",
          "type": "bytes[]"
        }
      ],
      "name": "updatePricesRealtime",
      "outputs": [],
      "stateMutability": "payable",
      "type": "function"
    }
  ],
  "bytecode": "0x60a06040526006805460ff191690553480156200001a575f80fd5b5060405162002359380380620023598339810160408190526200003d9162000108565b6200004833620000b9565b600180556001600160a01b038116620000a75760405162461bcd60e51b815260206004820152601560248201527f496e76616c6964205079746820636f6e74726163740000000000000000000000604482015260640160405180910390fd5b6001600160a01b031660805262000137565b5f80546001600160a01b038381166001600160a01b0319831681178455604051919092169283917f8be0079c531659141344cd1fd0a4f28419497f9722a3daafe3b4186f6b6457e09190a35050565b5f6020828403121562000119575f80fd5b81516001600160a01b038116811462000130575f80fd5b9392505050565b6080516121df6200017a5f395f818161026e01528181610ab00152818161100c01528181611125015281816111f7015281816116d0015261177d01526121df5ff3fe60806040526004361061013c575f3560e01c80638b3d9de6116100b3578063d47eed451161006d578063d47eed45146103bb578063d8d1a657146103da578063e5e4f9d8146103f9578063f2fde38b1461040c578063f44a1b351461042b578063f960a7621461044a575f80fd5b80638b3d9de6146102f75780638da5cb5b14610316578063b2ee2f0114610332578063bfc8593114610351578063c33a9b1b1461037d578063cfd68ec61461039c575f80fd5b80636047675911610104578063604767591461023157806367e406d51461025d578063715018a6146102905780638209c169146102a6578063828323f7146102b9578063895476e3146102d8575f80fd5b80631ba023701461014057806327c830a91461017e5780633baed22c146101a7578063493de3d8146101f357806358e13d7714610212575b5f80fd5b34801561014b575f80fd5b5061016b61015a366004611b76565b60056020525f908152604090205481565b6040519081526020015b60405180910390f35b348015610189575f80fd5b506006546101979060ff1681565b6040519015158152602001610175565b3480156101b2575f80fd5b506101db6101c1366004611b8f565b60046020525f90815260409020546001600160a01b031681565b6040516001600160a01b039091168152602001610175565b3480156101fe575f80fd5b5061019761020d366004611bee565b61046e565b34801561021d575f80fd5b5061019761022c366004611c84565b61061d565b34801561023c575f80fd5b5061025061024b366004611b76565b6108b0565b6040516101759190611cc8565b348015610268575f80fd5b506101db7f000000000000000000000000000000000000000000000000000000000000000081565b34801561029b575f80fd5b506102a461097c565b005b6102a46102b4366004611cf5565b61098f565b3480156102c4575f80fd5b506101976102d3366004611b8f565b610a02565b3480156102e3575f80fd5b506102506102f2366004611b8f565b610a68565b348015610302575f80fd5b506102a4610311366004611cf5565b610b77565b348015610321575f80fd5b505f546001600160a01b03166101db565b34801561033d575f80fd5b5061025061034c366004611b8f565b610ba2565b34801561035c575f80fd5b5061037061036b366004611d34565b610c77565b6040516101759190611d54565b348015610388575f80fd5b506102a4610397366004611b76565b610e86565b3480156103a7575f80fd5b506102a46103b6366004611dc4565b610efe565b3480156103c6575f80fd5b5061016b6103d5366004611cf5565b610ff3565b3480156103e5575f80fd5b506102a46103f4366004611dee565b611082565b6102a4610407366004611cf5565b61109d565b348015610417575f80fd5b506102a4610426366004611b76565b6112d8565b348015610436575f80fd5b506102a4610445366004611b8f565b611351565b348015610455575f80fd5b506006546101db9061010090046001600160a01b031681565b5f836104ad5760405162461bcd60e51b81526020600482015260096024820152684e6f2061737365747360b81b60448201526064015b60405180910390fd5b5f83116104f05760405162461bcd60e51b8152602060048201526011602482015270125b9d985b1a59081d1a1c995cda1bdb19607a1b60448201526064016104a4565b5f805b858110156105f8575f60055f89898581811061051157610511611e0d565b90506020020160208101906105269190611b76565b6001600160a01b0316815260208101919091526040015f205490508061054c57506105e6565b5f8181526002602081815260409283902083516080810185528154815260018201549281019290925291820154928101929092526003015460ff1615156060820181905261059b5750506105e6565b5f6105a683886113f6565b905080602001515f036105bb575050506105e6565b805182515f916105ca91611521565b90508881106105e157856105dd81611e35565b9650505b505050505b806105f081611e35565b9150506104f3565b5061271061060886611770611e4d565b6106129190611e78565b111595945050505050565b80515f906106615760405162461bcd60e51b8152602060048201526011602482015270125b9d985b1a59081d1a1c995cda1bdb19607a1b60448201526064016104a4565b5f8260200151116106b45760405162461bcd60e51b815260206004820152601760248201527f496e76616c6964206d756c7469207468726573686f6c6400000000000000000060448201526064016104a4565b5f8260400151116106fd5760405162461bcd60e51b8152602060048201526013602482015272496e76616c69642074696d652077696e646f7760681b60448201526064016104a4565b6002826060015110156107525760405162461bcd60e51b815260206004820152601760248201527f4d696e20617373657473206d757374206265203e3d203200000000000000000060448201526064016104a4565b5f805f61075d61156a565b90505f5b815181101561085d575f82828151811061077d5761077d611e0d565b6020908102919091018101515f818152600280845260409182902082516080810184528154815260018201549581019590955290810154918401919091526003015460ff161580156060840152909250806107e8575061012c8160200151426107e69190611e8b565b115b156107f457505061084b565b846107fe81611e35565b9550505f610810838a604001516113f6565b60208101519091501561084757805182515f9161082c91611521565b8a519091508110610845578761084181611e35565b9850505b505b5050505b8061085581611e35565b915050610761565b5084606001518210158015610876575084606001518310155b156108a6575f8261088985612710611e4d565b6108939190611e78565b6020909601519095101595945050505050565b505f949350505050565b6108d960405180608001604052805f81526020015f81526020015f81526020015f151581525090565b6001600160a01b0382165f90815260056020526040902054806109345760405162461bcd60e51b8152602060048201526013602482015272151bdad95b881b9bdd081b5bdb9a5d1bdc9959606a1b60448201526064016104a4565b5f9081526002602081815260409283902083516080810185528154815260018201549281019290925291820154928101929092526003015460ff161515606082015292915050565b610984611586565b61098d5f6115df565b565b61099761162e565b60065460ff16156109ba5760405162461bcd60e51b81526004016104a490611e9e565b34156109eb5760405133903480156108fc02915f818181858888f193505050501580156109e9573d5f803e3d5ffd5b505b6109f58282611687565b6109fe60018055565b5050565b5f818152600260208181526040808420815160808101835281548152600182015493810193909352928301549082015260039091015460ff161580156060830181905290610a61575061012c816020015142610a5e9190611e8b565b11155b9392505050565b610a9160405180608001604052805f81526020015f81526020015f81526020015f151581525090565b60405163052571af60e51b815260048101839052603c60248201525f907f00000000000000000000000000000000000000000000000000000000000000006001600160a01b03169063a4ae35e090604401608060405180830381865afa158015610afd573d5f803e3d5ffd5b505050506040513d601f19601f82011682018060405250810190610b219190611eca565b90506040518060800160405280610b3f835f01518460400151611919565b8152602001428152602001610b5c83602001518460400151611919565b81526020015f835f015160070b131515815250915050919050565b610b7f61162e565b60065460ff16156109eb5760405162461bcd60e51b81526004016104a490611e9e565b610bcb60405180608001604052805f81526020015f81526020015f81526020015f151581525090565b5f828152600260208181526040928390208351608081018552815481526001820154928101839052928101549383019390935260039092015460ff161515606082015290610c515760405162461bcd60e51b81526020600482015260136024820152725072696365206e6f7420617661696c61626c6560681b60448201526064016104a4565b61012c816020015142610c649190611e8b565b1115610c71575f60608201525b92915050565b60605f8211610cbd5760405162461bcd60e51b8152602060048201526012602482015271496e76616c69642074696d652072616e676560701b60448201526064016104a4565b5f83815260036020526040812090610cd58442611e8b565b90505f805b8354811015610d2b5782848281548110610cf657610cf6611e0d565b905f5260205f2090600402016001015410610d195781610d1581611e35565b9250505b80610d2381611e35565b915050610cda565b505f8167ffffffffffffffff811115610d4657610d46611c3b565b604051908082528060200260200182016040528015610da057816020015b610d8d60405180608001604052805f81526020015f81526020015f81526020015f151581525090565b815260200190600190039081610d645790505b5090505f805b855481108015610db557508382105b15610e795784868281548110610dcd57610dcd611e0d565b905f5260205f2090600402016001015410610e6757858181548110610df457610df4611e0d565b5f9182526020918290206040805160808101825260049093029091018054835260018101549383019390935260028301549082015260039091015460ff16151560608201528351849084908110610e4d57610e4d611e0d565b60200260200101819052508180610e6390611e35565b9250505b80610e7181611e35565b915050610da6565b5090979650505050505050565b610e8e611586565b6001600160a01b038116610ed65760405162461bcd60e51b815260206004820152600f60248201526e496e76616c6964206164647265737360881b60448201526064016104a4565b600680546001600160a01b0390921661010002610100600160a81b0319909216919091179055565b610f06611586565b81610f465760405162461bcd60e51b815260206004820152601060248201526f125b9d985b1a59081c1c9a58d948125160821b60448201526064016104a4565b6001600160a01b038116610f8c5760405162461bcd60e51b815260206004820152600d60248201526c24b73b30b634b2103a37b5b2b760991b60448201526064016104a4565b5f82815260046020908152604080832080546001600160a01b0319166001600160a01b038616908117909155808452600590925280832085905551909184917fa5abcd81ca02f9f8356f97dd9b846206afcc503f14b41712b3e3520910a0d5129190a35050565b60405163d47eed4560e01b81525f906001600160a01b037f0000000000000000000000000000000000000000000000000000000000000000169063d47eed45906110439086908690600401611f67565b602060405180830381865afa15801561105e573d5f803e3d5ffd5b505050506040513d601f19601f82011682018060405250810190610a619190611fff565b61108a611586565b6006805460ff1916911515919091179055565b6110a561162e565b60065460ff16156110c85760405162461bcd60e51b81526004016104a490611e9e565b8061110c5760405162461bcd60e51b81526020600482015260146024820152734e6f20707269636520757064617465206461746160601b60448201526064016104a4565b60405163d47eed4560e01b81525f906001600160a01b037f0000000000000000000000000000000000000000000000000000000000000000169063d47eed459061115c9086908690600401611f67565b602060405180830381865afa158015611177573d5f803e3d5ffd5b505050506040513d601f19601f8201168201806040525081019061119b9190611fff565b9050803410156111e05760405162461bcd60e51b815260206004820152601060248201526f496e73756666696369656e742066656560801b60448201526064016104a4565b604051631df3cbc560e31b81526001600160a01b037f0000000000000000000000000000000000000000000000000000000000000000169063ef9e5e289083906112309087908790600401611f67565b5f604051808303818588803b158015611247575f80fd5b505af1158015611259573d5f803e3d5ffd5b50505050508034111561129b57336108fc6112748334611e8b565b6040518115909202915f818181858888f19350505050158015611299573d5f803e3d5ffd5b505b6040514281527f22dead95790c73080d11cd3305bfe1021aa973e6b9caf0ffe5ec51bedd8c68549060200160405180910390a1506109fe60018055565b6112e0611586565b6001600160a01b0381166113455760405162461bcd60e51b815260206004820152602660248201527f4f776e61626c653a206e6577206f776e657220697320746865207a65726f206160448201526564647265737360d01b60648201526084016104a4565b61134e816115df565b50565b611359611586565b5f81815260046020908152604080832080546001600160a01b031981169091556001600160a01b0316808452600583528184208490558484526002808452828520858155600181018690559081018590556003908101805460ff19169055909252822090916113c89190611b11565b60405182907f0a216b769c52442ef5c8d765614bdde4b5257f3510ed38c82f78dd7a800c64f9905f90a25050565b61141f60405180608001604052805f81526020015f81526020015f81526020015f151581525090565b5f838152600360205260408120906114378442611e8b565b82549091505b80156114f3578183611450600184611e8b565b8154811061146057611460611e0d565b905f5260205f20906004020160010154116114e15782611481600183611e8b565b8154811061149157611491611e0d565b5f9182526020918290206040805160808101825260049093029091018054835260018101549383019390935260028301549082015260039091015460ff16151560608201529350610c7192505050565b806114eb81612016565b91505061143d565b5060405180608001604052805f81526020015f81526020015f81526020015f15158152509250505092915050565b5f825f0361153057505f610c71565b82821061153e57505f610c71565b5f6115498385611e8b565b90508361155882612710611e4d565b6115629190611e78565b949350505050565b604080515f8082526020820190925260609190815b5092915050565b5f546001600160a01b0316331461098d5760405162461bcd60e51b815260206004820181905260248201527f4f776e61626c653a2063616c6c6572206973206e6f7420746865206f776e657260448201526064016104a4565b5f80546001600160a01b038381166001600160a01b0319831681178455604051919092169283917f8be0079c531659141344cd1fd0a4f28419497f9722a3daafe3b4186f6b6457e09190a35050565b6002600154036116805760405162461bcd60e51b815260206004820152601f60248201527f5265656e7472616e637947756172643a207265656e7472616e742063616c6c0060448201526064016104a4565b6002600155565b806116c35760405162461bcd60e51b815260206004820152600c60248201526b4e6f2070726963652049447360a01b60448201526064016104a4565b5f805b82811015611895577f00000000000000000000000000000000000000000000000000000000000000006001600160a01b031663a4ae35e085858481811061170f5761170f611e0d565b90506020020135603c6040518363ffffffff1660e01b815260040161173e929190918252602082015260400190565b608060405180830381865afa925050508015611777575060408051601f3d908101601f1916820190925261177491810190611eca565b60015b61185f577f00000000000000000000000000000000000000000000000000000000000000006001600160a01b031663a4ae35e08585848181106117bc576117bc611e0d565b9050602002013561012c6040518363ffffffff1660e01b81526004016117ec929190918252602082015260400190565b608060405180830381865afa925050508015611825575060408051601f3d908101601f1916820190925261182291810190611eca565b60015b156118835761184c85858481811061183f5761183f611e0d565b90506020020135826119be565b8261185681611e35565b93505050611883565b61187485858481811061183f5761183f611e0d565b8261187e81611e35565b935050505b8061188d81611e35565b9150506116c6565b505f81116118d95760405162461bcd60e51b8152602060048201526011602482015270139bc81c1c9a58d95cc81d5c19185d1959607a1b60448201526064016104a4565b7f836c4e988f14b9f1b2c614f835238a5a33a196308d3ad5e824c62d74a12d583483834260405161190c9392919061202b565b60405180910390a1505050565b5f808360070b1361192b57505f610c71565b600783900b5f600384900b126119585761194683600a612147565b6119509082611e4d565b915050610c71565b5f61196284612158565b60030b905060128163ffffffff161061199e57611980600882612179565b61198b90600a612147565b6119959083611e78565b92505050610c71565b6119a9816008612179565b6119b490600a612147565b6119959083611e4d565b5f60405180608001604052806119db845f01518560400151611919565b81526020014281526020016119f884602001518560400151611919565b8152835160070b5f9081126020928301528581526002808352604080832085518155858501516001820155858201519281019290925560608501516003928301805460ff191691151591909117905592522080549192509060641115611aa5578054600180820183555f8381526020908190208551600490940201928355840151908201556040830151600282015560608301516003909101805460ff1916911515919091179055611b0b565b5f611ab1606442612196565b905082828281548110611ac657611ac6611e0d565b5f918252602091829020835160049290920201908155908201516001820155604082015160028201556060909101516003909101805460ff1916911515919091179055505b50505050565b5080545f8255600402905f5260205f209081019061134e91905b80821115611b57575f80825560018201819055600282015560038101805460ff19169055600401611b2b565b5090565b80356001600160a01b0381168114611b71575f80fd5b919050565b5f60208284031215611b86575f80fd5b610a6182611b5b565b5f60208284031215611b9f575f80fd5b5035919050565b5f8083601f840112611bb6575f80fd5b50813567ffffffffffffffff811115611bcd575f80fd5b6020830191508360208260051b8501011115611be7575f80fd5b9250929050565b5f805f8060608587031215611c01575f80fd5b843567ffffffffffffffff811115611c17575f80fd5b611c2387828801611ba6565b90989097506020870135966040013595509350505050565b634e487b7160e01b5f52604160045260245ffd5b6040516080810167ffffffffffffffff81118282101715611c7e57634e487b7160e01b5f52604160045260245ffd5b60405290565b5f60808284031215611c94575f80fd5b611c9c611c4f565b823581526020830135602082015260408301356040820152606083013560608201528091505092915050565b81518152602080830151908201526040808301519082015260608083015115159082015260808101610c71565b5f8060208385031215611d06575f80fd5b823567ffffffffffffffff811115611d1c575f80fd5b611d2885828601611ba6565b90969095509350505050565b5f8060408385031215611d45575f80fd5b50508035926020909101359150565b602080825282518282018190525f9190848201906040850190845b81811015611db857611da58385518051825260208101516020830152604081015160408301526060810151151560608301525050565b9284019260809290920191600101611d6f565b50909695505050505050565b5f8060408385031215611dd5575f80fd5b82359150611de560208401611b5b565b90509250929050565b5f60208284031215611dfe575f80fd5b81358015158114610a61575f80fd5b634e487b7160e01b5f52603260045260245ffd5b634e487b7160e01b5f52601160045260245ffd5b5f60018201611e4657611e46611e21565b5060010190565b8082028115828204841417610c7157610c71611e21565b634e487b7160e01b5f52601260045260245ffd5b5f82611e8657611e86611e64565b500490565b81810381811115610c7157610c71611e21565b60208082526012908201527110dbdb9d1c9858dd081a5cc81c185d5cd95960721b604082015260600190565b5f60808284031215611eda575f80fd5b611ee2611c4f565b82518060070b8114611ef2575f80fd5b8152602083015167ffffffffffffffff81168114611f0e575f80fd5b60208201526040830151600381900b8114611f27575f80fd5b60408201526060928301519281019290925250919050565b81835281816020850137505f828201602090810191909152601f909101601f19169091010190565b60208082528181018390525f906040600585901b8401810190840186845b87811015611ff257868403603f190183528135368a9003601e19018112611faa575f80fd5b8901858101903567ffffffffffffffff811115611fc5575f80fd5b803603821315611fd3575f80fd5b611fde868284611f3f565b955050509184019190840190600101611f85565b5091979650505050505050565b5f6020828403121561200f575f80fd5b5051919050565b5f8161202457612024611e21565b505f190190565b604080825281018390525f6001600160fb1b03841115612049575f80fd5b8360051b808660608501376020830193909352500160600192915050565b600181815b808511156120a157815f190482111561208757612087611e21565b8085161561209457918102915b93841c939080029061206c565b509250929050565b5f826120b757506001610c71565b816120c357505f610c71565b81600181146120d957600281146120e3576120ff565b6001915050610c71565b60ff8411156120f4576120f4611e21565b50506001821b610c71565b5060208310610133831016604e8410600b8410161715612122575081810a610c71565b61212c8383612067565b805f190482111561213f5761213f611e21565b029392505050565b5f610a6163ffffffff8416836120a9565b5f8160030b637fffffff19810361217157612171611e21565b5f0392915050565b63ffffffff82811682821603908082111561157f5761157f611e21565b5f826121a4576121a4611e64565b50069056fea264697066735822122020012506fdbc26e6e759b9be339a30c5659be3a3be821c39b7b52a7c86e3179464736f6c63430008140033",
  "linkReferences": {},
  "deployedLinkReferences": {},
  "immutableReferences": {
    "14123": [
      {
        "length": 32,
        "start": 622
      },
      {
        "length": 32,
        "start": 2736
      },
      {
        "length": 32,
        "start": 4108
      },
      {
        "length": 32,
        "start": 4389
      },
      {
        "length": 32,
        "start": 4599
      },
      {
        "length": 32,
        "start": 5840
      },
      {
        "length": 32,
        "start": 6013
      }
    ]
  },
  "inputSourceName": "project/contracts/PythPriceMonitor.sol",
  "buildInfoId": "solc-0_8_20-c104ac2a4beab02af3661ccba76522edd6a80bf1"
}