{
  "_format": "hh3-artifact-1",
  "contractName": "SimpleCrossChainBridge",
  "sourceName": "contracts/SimpleCrossChainBridge.sol",
  "abi": [
    {
      "inputs": [
        {
          "internalType": "address",
          "name": "_crashGuardCore",
          "type": "address"
        }
      ],
      "stateMutability": "nonpayable",
      "type": "constructor"
    },
    {
      "anonymous": false,
      "inputs": [
        {
          "indexed": true,
          "internalType": "uint256",
          "name": "chainId",
          "type": "uint256"
        },
        {
          "indexed": false,
          "internalType": "bool",
          "name": "supported",
          "type": "bool"
        }
      ],
      "name": "ChainSupportUpdated",
      "type": "event"
    },
    {
      "anonymous": false,
      "inputs": [
        {
          "indexed": true,
          "internalType": "address",
          "name": "user",
          "type": "address"
        },
        {
          "indexed": true,
          "internalType": "address",
          "name": "token",
          "type": "address"
        },
        {
          "indexed": false,
          "internalType": "uint256",
          "name": "amount",
          "type": "uint256"
        },
        {
          "indexed": true,
          "internalType": "uint256",
          "name": "sourceChain",
          "type": "uint256"
        },
        {
          "indexed": false,
          "internalType": "bytes32",
          "name": "depositHash",
          "type": "bytes32"
        }
      ],
      "name": "CrossChainDepositCompleted",
      "type": "event"
    },
    {
      "anonymous": false,
      "inputs": [
        {
          "indexed": true,
          "internalType": "address",
          "name": "user",
          "type": "address"
        },
        {
          "indexed": true,
          "internalType": "address",
          "name": "token",
          "type": "address"
        },
        {
          "indexed": false,
          "internalType": "uint256",
          "name": "amount",
          "type": "uint256"
        },
        {
          "indexed": true,
          "internalType": "uint256",
          "name": "destinationChain",
          "type": "uint256"
        },
        {
          "indexed": false,
          "internalType": "bytes32",
          "name": "depositHash",
          "type": "bytes32"
        }
      ],
      "name": "CrossChainDepositInitiated",
      "type": "event"
    },
    {
      "anonymous": false,
      "inputs": [
        {
          "indexed": true,
          "internalType": "address",
          "name": "previousOwner",
          "type": "address"
        },
        {
          "indexed": true,
          "internalType": "address",
          "name": "newOwner",
          "type": "address"
        }
      ],
      "name": "OwnershipTransferred",
      "type": "event"
    },
    {
      "anonymous": false,
      "inputs": [
        {
          "indexed": true,
          "internalType": "address",
          "name": "relayer",
          "type": "address"
        },
        {
          "indexed": false,
          "internalType": "bool",
          "name": "authorized",
          "type": "bool"
        }
      ],
      "name": "RelayerUpdated",
      "type": "event"
    },
    {
      "inputs": [
        {
          "internalType": "address",
          "name": "",
          "type": "address"
        }
      ],
      "name": "authorizedRelayers",
      "outputs": [
        {
          "internalType": "bool",
          "name": "",
          "type": "bool"
        }
      ],
      "stateMutability": "view",
      "type": "function"
    },
    {
      "inputs": [
        {
          "internalType": "address",
          "name": "user",
          "type": "address"
        },
        {
          "internalType": "address",
          "name": "token",
          "type": "address"
        },
        {
          "internalType": "uint256",
          "name": "amount",
          "type": "uint256"
        },
        {
          "internalType": "uint256",
          "name": "sourceChain",
          "type": "uint256"
        },
        {
          "internalType": "bytes32",
          "name": "depositHash",
          "type": "bytes32"
        }
      ],
      "name": "completeCrossChainDeposit",
      "outputs": [],
      "stateMutability": "nonpayable",
      "type": "function"
    },
    {
      "inputs": [],
      "name": "crashGuardCore",
      "outputs": [
        {
          "internalType": "contract ICrashGuardCore",
          "name": "",
          "type": "address"
        }
      ],
      "stateMutability": "view",
      "type": "function"
    },
    {
      "inputs": [
        {
          "internalType": "address",
          "name": "token",
          "type": "address"
        },
        {
          "internalType": "uint256",
          "name": "amount",
          "type": "uint256"
        }
      ],
      "name": "emergencyWithdraw",
      "outputs": [],
      "stateMutability": "nonpayable",
      "type": "function"
    },
    {
      "inputs": [
        {
          "internalType": "address",
          "name": "token",
          "type": "address"
        },
        {
          "internalType": "uint256",
          "name": "amount",
          "type": "uint256"
        },
        {
          "internalType": "uint256",
          "name": "destinationChain",
          "type": "uint256"
        },
        {
          "internalType": "address",
          "name": "destinationUser",
          "type": "address"
        }
      ],
      "name": "initiateCrossChainDeposit",
      "outputs": [],
      "stateMutability": "payable",
      "type": "function"
    },
    {
      "inputs": [
        {
          "internalType": "bytes32",
          "name": "depositHash",
          "type": "bytes32"
        }
      ],
      "name": "isDepositProcessed",
      "outputs": [
        {
          "internalType": "bool",
          "name": "",
          "type": "bool"
        }
      ],
      "stateMutability": "view",
      "type": "function"
    },
    {
      "inputs": [],
      "name": "owner",
      "outputs": [
        {
          "internalType": "address",
          "name": "",
          "type": "address"
        }
      ],
      "stateMutability": "view",
      "type": "function"
    },
    {
      "inputs": [
        {
          "internalType": "bytes32",
          "name": "",
          "type": "bytes32"
        }
      ],
      "name": "processedDeposits",
      "outputs": [
        {
          "internalType": "bool",
          "name": "",
          "type": "bool"
        }
      ],
      "stateMutability": "view",
      "type": "function"
    },
    {
      "inputs": [],
      "name": "renounceOwnership",
      "outputs": [],
      "stateMutability": "nonpayable",
      "type": "function"
    },
    {
      "inputs": [
        {
          "internalType": "uint256",
          "name": "chainId",
          "type": "uint256"
        },
        {
          "internalType": "bool",
          "name": "supported",
          "type": "bool"
        }
      ],
      "name": "setChainSupport",
      "outputs": [],
      "stateMutability": "nonpayable",
      "type": "function"
    },
    {
      "inputs": [
        {
          "internalType": "address",
          "name": "_crashGuardCore",
          "type": "address"
        }
      ],
      "name": "setCrashGuardCore",
      "outputs": [],
      "stateMutability": "nonpayable",
      "type": "function"
    },
    {
      "inputs": [
        {
          "internalType": "address",
          "name": "relayer",
          "type": "address"
        },
        {
          "internalType": "bool",
          "name": "authorized",
          "type": "bool"
        }
      ],
      "name": "setRelayerAuthorization",
      "outputs": [],
      "stateMutability": "nonpayable",
      "type": "function"
    },
    {
      "inputs": [
        {
          "internalType": "uint256",
          "name": "",
          "type": "uint256"
        }
      ],
      "name": "supportedChains",
      "outputs": [
        {
          "internalType": "bool",
          "name": "",
          "type": "bool"
        }
      ],
      "stateMutability": "view",
      "type": "function"
    },
    {
      "inputs": [
        {
          "internalType": "address",
          "name": "newOwner",
          "type": "address"
        }
      ],
      "name": "transferOwnership",
      "outputs": [],
      "stateMutability": "nonpayable",
      "type": "function"
    },
    {
      "stateMutability": "payable",
      "type": "receive"
    }
  ],
  "bytecode": "0x608060405234801561000f575f80fd5b506040516111bd3803806111bd83398101604081905261002e91610109565b610037336100ba565b600180556001600160a01b0381166100955760405162461bcd60e51b815260206004820152601a60248201527f496e76616c696420437261736847756172642061646472657373000000000000604482015260640160405180910390fd5b600280546001600160a01b0319166001600160a01b0392909216919091179055610136565b5f80546001600160a01b038381166001600160a01b0319831681178455604051919092169283917f8be0079c531659141344cd1fd0a4f28419497f9722a3daafe3b4186f6b6457e09190a35050565b5f60208284031215610119575f80fd5b81516001600160a01b038116811461012f575f80fd5b9392505050565b61107a806101435f395ff3fe6080604052600436106100dc575f3560e01c806395ccea671161007c578063dbe82c3111610057578063dbe82c311461026a578063ec93dee314610289578063f2fde38b146102a8578063f960a762146102c7575f80fd5b806395ccea67146101fe578063c33a9b1b1461021d578063d5d0d21c1461023c575f80fd5b806350b13e6d116100b757806350b13e6d14610179578063548d496f1461018c578063715018a6146101ba5780638da5cb5b146101ce575f80fd5b806329e295c5146100e757806340c5faf01461012a57806346a9d08c14610158575f80fd5b366100e357005b5f80fd5b3480156100f2575f80fd5b50610115610101366004610e6a565b60046020525f908152604090205460ff1681565b60405190151581526020015b60405180910390f35b348015610135575f80fd5b50610115610144366004610e8a565b60056020525f908152604090205460ff1681565b348015610163575f80fd5b50610177610172366004610eae565b6102e6565b005b610177610187366004610ee3565b6103a8565b348015610197575f80fd5b506101156101a6366004610e8a565b60036020525f908152604090205460ff1681565b3480156101c5575f80fd5b50610177610634565b3480156101d9575f80fd5b505f546001600160a01b03165b6040516001600160a01b039091168152602001610121565b348015610209575f80fd5b50610177610218366004610f26565b610647565b348015610228575f80fd5b50610177610237366004610e6a565b6106c1565b348015610247575f80fd5b50610115610256366004610e8a565b5f9081526005602052604090205460ff1690565b348015610275575f80fd5b50610177610284366004610f4e565b610733565b348015610294575f80fd5b506101776102a3366004610f97565b610944565b3480156102b3575f80fd5b506101776102c2366004610e6a565b6109dd565b3480156102d2575f80fd5b506002546101e6906001600160a01b031681565b6102ee610a56565b6001600160a01b0382166103495760405162461bcd60e51b815260206004820152601760248201527f496e76616c69642072656c61796572206164647265737300000000000000000060448201526064015b60405180910390fd5b6001600160a01b0382165f81815260046020908152604091829020805460ff191685151590811790915591519182527f4b36b2e66f38ed349bec532105790177f1283bcbc094e6cd48565195d3033c4391015b60405180910390a25050565b6103b0610aaf565b5f8281526003602052604090205460ff166104035760405162461bcd60e51b815260206004820152601360248201527210da185a5b881b9bdd081cdd5c1c1bdc9d1959606a1b6044820152606401610340565b6001600160a01b0381166104595760405162461bcd60e51b815260206004820152601860248201527f496e76616c69642064657374696e6174696f6e207573657200000000000000006044820152606401610340565b5f83116104a85760405162461bcd60e51b815260206004820152601760248201527f416d6f756e74206d75737420626520706f7369746976650000000000000000006044820152606401610340565b6040516bffffffffffffffffffffffff1933606090811b8216602084015286811b82166034840152604883018690526068830185905283901b16608882015242609c8201524360bc8201525f9060dc0160408051601f19818403018152919052805160209091012090506001600160a01b03851661056a578334146105655760405162461bcd60e51b815260206004820152601360248201527208aa89040c2dadeeadce840dad2e6dac2e8c6d606b1b6044820152606401610340565b6105cd565b34156105b85760405162461bcd60e51b815260206004820152601a60248201527f455448206e6f7420657870656374656420666f722045524332300000000000006044820152606401610340565b6105cd6001600160a01b038616333087610b08565b82856001600160a01b0316836001600160a01b03167f19cae063b668d0fc2391b408cf98b12995fd9721a314981d8296f637439f3351878560405161061c929190918252602082015260400190565b60405180910390a45061062e60018055565b50505050565b61063c610a56565b6106455f610b73565b565b61064f610a56565b6001600160a01b038216610698575f80546040516001600160a01b039091169183156108fc02918491818181858888f19350505050158015610693573d5f803e3d5ffd5b505050565b6106bd6106ac5f546001600160a01b031690565b6001600160a01b0384169083610bc2565b5050565b6106c9610a56565b6001600160a01b0381166107115760405162461bcd60e51b815260206004820152600f60248201526e496e76616c6964206164647265737360881b6044820152606401610340565b600280546001600160a01b0319166001600160a01b0392909216919091179055565b335f9081526004602052604090205460ff1661078a5760405162461bcd60e51b81526020600482015260166024820152752737ba1030baba3437b934bd32b2103932b630bcb2b960511b6044820152606401610340565b610792610aaf565b5f8181526005602052604090205460ff16156107f05760405162461bcd60e51b815260206004820152601960248201527f4465706f73697420616c72656164792070726f636573736564000000000000006044820152606401610340565b5f8281526003602052604090205460ff1661084d5760405162461bcd60e51b815260206004820152601a60248201527f536f7572636520636861696e206e6f7420737570706f727465640000000000006044820152606401610340565b5f8181526005602052604090819020805460ff19166001179055600254905163980b5ead60e01b81526001600160a01b03878116600483015286811660248301526044820186905260648201859052608482018490529091169063980b5ead9060a4015f604051808303815f87803b1580156108c7575f80fd5b505af11580156108d9573d5f803e3d5ffd5b5050505081846001600160a01b0316866001600160a01b03167f8136d1342de8f35afc28c5ddcb9feabbd3f73abad96abf723339dd9cb7c6ee87868560405161092c929190918252602082015260400190565b60405180910390a461093d60018055565b5050505050565b61094c610a56565b815f0361098e5760405162461bcd60e51b815260206004820152601060248201526f125b9d985b1a590818da185a5b88125160821b6044820152606401610340565b5f82815260036020908152604091829020805460ff1916841515908117909155915191825283917f3867ef478c2fcf9f1d860353178b53a6a5b10cdee0ab40aacda7ca6b38b86d73910161039c565b6109e5610a56565b6001600160a01b038116610a4a5760405162461bcd60e51b815260206004820152602660248201527f4f776e61626c653a206e6577206f776e657220697320746865207a65726f206160448201526564647265737360d01b6064820152608401610340565b610a5381610b73565b50565b5f546001600160a01b031633146106455760405162461bcd60e51b815260206004820181905260248201527f4f776e61626c653a2063616c6c6572206973206e6f7420746865206f776e65726044820152606401610340565b600260015403610b015760405162461bcd60e51b815260206004820152601f60248201527f5265656e7472616e637947756172643a207265656e7472616e742063616c6c006044820152606401610340565b6002600155565b6040516001600160a01b038085166024830152831660448201526064810182905261062e9085906323b872dd60e01b906084015b60408051601f198184030181529190526020810180516001600160e01b03166001600160e01b031990931692909217909152610bf2565b5f80546001600160a01b038381166001600160a01b0319831681178455604051919092169283917f8be0079c531659141344cd1fd0a4f28419497f9722a3daafe3b4186f6b6457e09190a35050565b6040516001600160a01b03831660248201526044810182905261069390849063a9059cbb60e01b90606401610b3c565b5f610c46826040518060400160405280602081526020017f5361666545524332303a206c6f772d6c6576656c2063616c6c206661696c6564815250856001600160a01b0316610cc59092919063ffffffff16565b905080515f1480610c66575080806020019051810190610c669190610fba565b6106935760405162461bcd60e51b815260206004820152602a60248201527f5361666545524332303a204552433230206f7065726174696f6e20646964206e6044820152691bdd081cdd58d8d9595960b21b6064820152608401610340565b6060610cd384845f85610cdb565b949350505050565b606082471015610d3c5760405162461bcd60e51b815260206004820152602660248201527f416464726573733a20696e73756666696369656e742062616c616e636520666f6044820152651c8818d85b1b60d21b6064820152608401610340565b5f80866001600160a01b03168587604051610d579190610ff7565b5f6040518083038185875af1925050503d805f8114610d91576040519150601f19603f3d011682016040523d82523d5f602084013e610d96565b606091505b5091509150610da787838387610db2565b979650505050505050565b60608315610e205782515f03610e19576001600160a01b0385163b610e195760405162461bcd60e51b815260206004820152601d60248201527f416464726573733a2063616c6c20746f206e6f6e2d636f6e74726163740000006044820152606401610340565b5081610cd3565b610cd38383815115610e355781518083602001fd5b8060405162461bcd60e51b81526004016103409190611012565b80356001600160a01b0381168114610e65575f80fd5b919050565b5f60208284031215610e7a575f80fd5b610e8382610e4f565b9392505050565b5f60208284031215610e9a575f80fd5b5035919050565b8015158114610a53575f80fd5b5f8060408385031215610ebf575f80fd5b610ec883610e4f565b91506020830135610ed881610ea1565b809150509250929050565b5f805f8060808587031215610ef6575f80fd5b610eff85610e4f565b93506020850135925060408501359150610f1b60608601610e4f565b905092959194509250565b5f8060408385031215610f37575f80fd5b610f4083610e4f565b946020939093013593505050565b5f805f805f60a08688031215610f62575f80fd5b610f6b86610e4f565b9450610f7960208701610e4f565b94979496505050506040830135926060810135926080909101359150565b5f8060408385031215610fa8575f80fd5b823591506020830135610ed881610ea1565b5f60208284031215610fca575f80fd5b8151610e8381610ea1565b5f5b83811015610fef578181015183820152602001610fd7565b50505f910152565b5f8251611008818460208701610fd5565b9190910192915050565b602081525f8251806020840152611030816040850160208701610fd5565b601f01601f1916919091016040019291505056fea26469706673582212204736cc84ab4f8268ef715cee284b48c37ee65b31111a2fc475e47826e5c9464e64736f6c63430008140033",
  "linkReferences": {},
  "deployedLinkReferences": {},
  "immutableReferences": {},
  "inputSourceName": "project/contracts/SimpleCrossChainBridge.sol",
  "buildInfoId": "solc-0_8_20-c104ac2a4beab02af3661ccba76522edd6a80bf1"
}