{
  "_format": "hh3-artifact-1",
  "contractName": "MockERC20",
  "sourceName": "contracts/MockERC20.sol",
  "abi": [
    {
      "inputs": [
        {
          "internalType": "string",
          "name": "name",
          "type": "string"
        },
        {
          "internalType": "string",
          "name": "symbol",
          "type": "string"
        },
        {
          "internalType": "uint8",
          "name": "decimals_",
          "type": "uint8"
        }
      ],
      "stateMutability": "nonpayable",
      "type": "constructor"
    },
    {
      "anonymous": false,
      "inputs": [
        {
          "indexed": true,
          "internalType": "address",
          "name": "owner",
          "type": "address"
        },
        {
          "indexed": true,
          "internalType": "address",
          "name": "spender",
          "type": "address"
        },
        {
          "indexed": false,
          "internalType": "uint256",
          "name": "value",
          "type": "uint256"
        }
      ],
      "name": "Approval",
      "type": "event"
    },
    {
      "anonymous": false,
      "inputs": [
        {
          "indexed": true,
          "internalType": "address",
          "name": "previousOwner",
          "type": "address"
        },
        {
          "indexed": true,
          "internalType": "address",
          "name": "newOwner",
          "type": "address"
        }
      ],
      "name": "OwnershipTransferred",
      "type": "event"
    },
    {
      "anonymous": false,
      "inputs": [
        {
          "indexed": true,
          "internalType": "address",
          "name": "from",
          "type": "address"
        },
        {
          "indexed": true,
          "internalType": "address",
          "name": "to",
          "type": "address"
        },
        {
          "indexed": false,
          "internalType": "uint256",
          "name": "value",
          "type": "uint256"
        }
      ],
      "name": "Transfer",
      "type": "event"
    },
    {
      "inputs": [
        {
          "internalType": "address",
          "name": "owner",
          "type": "address"
        },
        {
          "internalType": "address",
          "name": "spender",
          "type": "address"
        }
      ],
      "name": "allowance",
      "outputs": [
        {
          "internalType": "uint256",
          "name": "",
          "type": "uint256"
        }
      ],
      "stateMutability": "view",
      "type": "function"
    },
    {
      "inputs": [
        {
          "internalType": "address",
          "name": "spender",
          "type": "address"
        },
        {
          "internalType": "uint256",
          "name": "amount",
          "type": "uint256"
        }
      ],
      "name": "approve",
      "outputs": [
        {
          "internalType": "bool",
          "name": "",
          "type": "bool"
        }
      ],
      "stateMutability": "nonpayable",
      "type": "function"
    },
    {
      "inputs": [
        {
          "internalType": "address",
          "name": "account",
          "type": "address"
        }
      ],
      "name": "balanceOf",
      "outputs": [
        {
          "internalType": "uint256",
          "name": "",
          "type": "uint256"
        }
      ],
      "stateMutability": "view",
      "type": "function"
    },
    {
      "inputs": [
        {
          "internalType": "address",
          "name": "from",
          "type": "address"
        },
        {
          "internalType": "uint256",
          "name": "amount",
          "type": "uint256"
        }
      ],
      "name": "burn",
      "outputs": [],
      "stateMutability": "nonpayable",
      "type": "function"
    },
    {
      "inputs": [],
      "name": "decimals",
      "outputs": [
        {
          "internalType": "uint8",
          "name": "",
          "type": "uint8"
        }
      ],
      "stateMutability": "view",
      "type": "function"
    },
    {
      "inputs": [
        {
          "internalType": "address",
          "name": "spender",
          "type": "address"
        },
        {
          "internalType": "uint256",
          "name": "subtractedValue",
          "type": "uint256"
        }
      ],
      "name": "decreaseAllowance",
      "outputs": [
        {
          "internalType": "bool",
          "name": "",
          "type": "bool"
        }
      ],
      "stateMutability": "nonpayable",
      "type": "function"
    },
    {
      "inputs": [
        {
          "internalType": "address",
          "name": "spender",
          "type": "address"
        },
        {
          "internalType": "uint256",
          "name": "addedValue",
          "type": "uint256"
        }
      ],
      "name": "increaseAllowance",
      "outputs": [
        {
          "internalType": "bool",
          "name": "",
          "type": "bool"
        }
      ],
      "stateMutability": "nonpayable",
      "type": "function"
    },
    {
      "inputs": [
        {
          "internalType": "address",
          "name": "to",
          "type": "address"
        },
        {
          "internalType": "uint256",
          "name": "amount",
          "type": "uint256"
        }
      ],
      "name": "mint",
      "outputs": [],
      "stateMutability": "nonpayable",
      "type": "function"
    },
    {
      "inputs": [
        {
          "internalType": "uint256",
          "name": "amount",
          "type": "uint256"
        }
      ],
      "name": "mintToSelf",
      "outputs": [],
      "stateMutability": "nonpayable",
      "type": "function"
    },
    {
      "inputs": [],
      "name": "name",
      "outputs": [
        {
          "internalType": "string",
          "name": "",
          "type": "string"
        }
      ],
      "stateMutability": "view",
      "type": "function"
    },
    {
      "inputs": [],
      "name": "owner",
      "outputs": [
        {
          "internalType": "address",
          "name": "",
          "type": "address"
        }
      ],
      "stateMutability": "view",
      "type": "function"
    },
    {
      "inputs": [],
      "name": "renounceOwnership",
      "outputs": [],
      "stateMutability": "nonpayable",
      "type": "function"
    },
    {
      "inputs": [],
      "name": "symbol",
      "outputs": [
        {
          "internalType": "string",
          "name": "",
          "type": "string"
        }
      ],
      "stateMutability": "view",
      "type": "function"
    },
    {
      "inputs": [],
      "name": "totalSupply",
      "outputs": [
        {
          "internalType": "uint256",
          "name": "",
          "type": "uint256"
        }
      ],
      "stateMutability": "view",
      "type": "function"
    },
    {
      "inputs": [
        {
          "internalType": "address",
          "name": "to",
          "type": "address"
        },
        {
          "internalType": "uint256",
          "name": "amount",
          "type": "uint256"
        }
      ],
      "name": "transfer",
      "outputs": [
        {
          "internalType": "bool",
          "name": "",
          "type": "bool"
        }
      ],
      "stateMutability": "nonpayable",
      "type": "function"
    },
    {
      "inputs": [
        {
          "internalType": "address",
          "name": "from",
          "type": "address"
        },
        {
          "internalType": "address",
          "name": "to",
          "type": "address"
        },
        {
          "internalType": "uint256",
          "name": "amount",
          "type": "uint256"
        }
      ],
      "name": "transferFrom",
      "outputs": [
        {
          "internalType": "bool",
          "name": "",
          "type": "bool"
        }
      ],
      "stateMutability": "nonpayable",
      "type": "function"
    },
    {
      "inputs": [
        {
          "internalType": "address",
          "name": "newOwner",
          "type": "address"
        }
      ],
      "name": "transferOwnership",
      "outputs": [],
      "stateMutability": "nonpayable",
      "type": "function"
    }
  ],
  "bytecode": "0x608060405234801562000010575f80fd5b5060405162001000380380620010008339810160408190526200003391620001a9565b82826003620000438382620002b4565b506004620000528282620002b4565b5050506200006f620000696200009660201b60201c565b6200009a565b6005805460ff909216600160a01b0260ff60a01b19909216919091179055506200037c9050565b3390565b600580546001600160a01b038381166001600160a01b0319831681179093556040519116919082907f8be0079c531659141344cd1fd0a4f28419497f9722a3daafe3b4186f6b6457e0905f90a35050565b634e487b7160e01b5f52604160045260245ffd5b5f82601f8301126200010f575f80fd5b81516001600160401b03808211156200012c576200012c620000eb565b604051601f8301601f19908116603f01168101908282118183101715620001575762000157620000eb565b8160405283815260209250868385880101111562000173575f80fd5b5f91505b8382101562000196578582018301518183018401529082019062000177565b5f93810190920192909252949350505050565b5f805f60608486031215620001bc575f80fd5b83516001600160401b0380821115620001d3575f80fd5b620001e187838801620000ff565b94506020860151915080821115620001f7575f80fd5b506200020686828701620000ff565b925050604084015160ff811681146200021d575f80fd5b809150509250925092565b600181811c908216806200023d57607f821691505b6020821081036200025c57634e487b7160e01b5f52602260045260245ffd5b50919050565b601f821115620002af575f81815260208120601f850160051c810160208610156200028a5750805b601f850160051c820191505b81811015620002ab5782815560010162000296565b5050505b505050565b81516001600160401b03811115620002d057620002d0620000eb565b620002e881620002e1845462000228565b8462000262565b602080601f8311600181146200031e575f8415620003065750858301515b5f19600386901b1c1916600185901b178555620002ab565b5f85815260208120601f198616915b828110156200034e578886015182559484019460019091019084016200032d565b50858210156200036c57878501515f19600388901b60f8161c191681555b5050505050600190811b01905550565b610c76806200038a5f395ff3fe608060405234801561000f575f80fd5b5060043610610106575f3560e01c8063715018a61161009e578063a457c2d71161006e578063a457c2d71461021d578063a9059cbb14610230578063bb6d5e3b14610243578063dd62ed3e14610256578063f2fde38b14610269575f80fd5b8063715018a6146101df5780638da5cb5b146101e757806395d89b41146102025780639dc29fac1461020a575f80fd5b8063313ce567116100d9578063313ce56714610170578063395093511461018f57806340c10f19146101a257806370a08231146101b7575f80fd5b806306fdde031461010a578063095ea7b31461012857806318160ddd1461014b57806323b872dd1461015d575b5f80fd5b61011261027c565b60405161011f9190610aba565b60405180910390f35b61013b610136366004610b20565b61030c565b604051901515815260200161011f565b6002545b60405190815260200161011f565b61013b61016b366004610b48565b610325565b600554600160a01b900460ff1660405160ff909116815260200161011f565b61013b61019d366004610b20565b610348565b6101b56101b0366004610b20565b610369565b005b61014f6101c5366004610b81565b6001600160a01b03165f9081526020819052604090205490565b6101b561037f565b6005546040516001600160a01b03909116815260200161011f565b610112610392565b6101b5610218366004610b20565b6103a1565b61013b61022b366004610b20565b6103b3565b61013b61023e366004610b20565b610432565b6101b5610251366004610ba1565b61043f565b61014f610264366004610bb8565b61044c565b6101b5610277366004610b81565b610476565b60606003805461028b90610be9565b80601f01602080910402602001604051908101604052809291908181526020018280546102b790610be9565b80156103025780601f106102d957610100808354040283529160200191610302565b820191905f5260205f20905b8154815290600101906020018083116102e557829003601f168201915b5050505050905090565b5f336103198185856104ec565b60019150505b92915050565b5f33610332858285610610565b61033d858585610688565b506001949350505050565b5f3361031981858561035a838361044c565b6103649190610c21565b6104ec565b61037161082a565b61037b8282610884565b5050565b61038761082a565b6103905f610941565b565b60606004805461028b90610be9565b6103a961082a565b61037b8282610992565b5f33816103c0828661044c565b9050838110156104255760405162461bcd60e51b815260206004820152602560248201527f45524332303a2064656372656173656420616c6c6f77616e63652062656c6f77604482015264207a65726f60d81b60648201526084015b60405180910390fd5b61033d82868684036104ec565b5f33610319818585610688565b6104493382610884565b50565b6001600160a01b039182165f90815260016020908152604080832093909416825291909152205490565b61047e61082a565b6001600160a01b0381166104e35760405162461bcd60e51b815260206004820152602660248201527f4f776e61626c653a206e6577206f776e657220697320746865207a65726f206160448201526564647265737360d01b606482015260840161041c565b61044981610941565b6001600160a01b03831661054e5760405162461bcd60e51b8152602060048201526024808201527f45524332303a20617070726f76652066726f6d20746865207a65726f206164646044820152637265737360e01b606482015260840161041c565b6001600160a01b0382166105af5760405162461bcd60e51b815260206004820152602260248201527f45524332303a20617070726f766520746f20746865207a65726f206164647265604482015261737360f01b606482015260840161041c565b6001600160a01b038381165f8181526001602090815260408083209487168084529482529182902085905590518481527f8c5be1e5ebec7d5bd14f71427d1e84f3dd0314c0f7b2291e5b200ac8c7c3b92591015b60405180910390a3505050565b5f61061b848461044c565b90505f19811461068257818110156106755760405162461bcd60e51b815260206004820152601d60248201527f45524332303a20696e73756666696369656e7420616c6c6f77616e6365000000604482015260640161041c565b61068284848484036104ec565b50505050565b6001600160a01b0383166106ec5760405162461bcd60e51b815260206004820152602560248201527f45524332303a207472616e736665722066726f6d20746865207a65726f206164604482015264647265737360d81b606482015260840161041c565b6001600160a01b03821661074e5760405162461bcd60e51b815260206004820152602360248201527f45524332303a207472616e7366657220746f20746865207a65726f206164647260448201526265737360e81b606482015260840161041c565b6001600160a01b0383165f90815260208190526040902054818110156107c55760405162461bcd60e51b815260206004820152602660248201527f45524332303a207472616e7366657220616d6f756e7420657863656564732062604482015265616c616e636560d01b606482015260840161041c565b6001600160a01b038481165f81815260208181526040808320878703905593871680835291849020805487019055925185815290927fddf252ad1be2c89b69c2b068fc378daa952ba7f163c4a11628f55a4df523b3ef910160405180910390a3610682565b6005546001600160a01b031633146103905760405162461bcd60e51b815260206004820181905260248201527f4f776e61626c653a2063616c6c6572206973206e6f7420746865206f776e6572604482015260640161041c565b6001600160a01b0382166108da5760405162461bcd60e51b815260206004820152601f60248201527f45524332303a206d696e7420746f20746865207a65726f206164647265737300604482015260640161041c565b8060025f8282546108eb9190610c21565b90915550506001600160a01b0382165f81815260208181526040808320805486019055518481527fddf252ad1be2c89b69c2b068fc378daa952ba7f163c4a11628f55a4df523b3ef910160405180910390a35050565b600580546001600160a01b038381166001600160a01b0319831681179093556040519116919082907f8be0079c531659141344cd1fd0a4f28419497f9722a3daafe3b4186f6b6457e0905f90a35050565b6001600160a01b0382166109f25760405162461bcd60e51b815260206004820152602160248201527f45524332303a206275726e2066726f6d20746865207a65726f206164647265736044820152607360f81b606482015260840161041c565b6001600160a01b0382165f9081526020819052604090205481811015610a655760405162461bcd60e51b815260206004820152602260248201527f45524332303a206275726e20616d6f756e7420657863656564732062616c616e604482015261636560f01b606482015260840161041c565b6001600160a01b0383165f818152602081815260408083208686039055600280548790039055518581529192917fddf252ad1be2c89b69c2b068fc378daa952ba7f163c4a11628f55a4df523b3ef9101610603565b5f6020808352835180828501525f5b81811015610ae557858101830151858201604001528201610ac9565b505f604082860101526040601f19601f8301168501019250505092915050565b80356001600160a01b0381168114610b1b575f80fd5b919050565b5f8060408385031215610b31575f80fd5b610b3a83610b05565b946020939093013593505050565b5f805f60608486031215610b5a575f80fd5b610b6384610b05565b9250610b7160208501610b05565b9150604084013590509250925092565b5f60208284031215610b91575f80fd5b610b9a82610b05565b9392505050565b5f60208284031215610bb1575f80fd5b5035919050565b5f8060408385031215610bc9575f80fd5b610bd283610b05565b9150610be060208401610b05565b90509250929050565b600181811c90821680610bfd57607f821691505b602082108103610c1b57634e487b7160e01b5f52602260045260245ffd5b50919050565b8082018082111561031f57634e487b7160e01b5f52601160045260245ffdfea2646970667358221220322f8b96bd2329bb9b003ef28428cf5603746a5736f796d190de982580904cc064736f6c63430008140033",
  "linkReferences": {},
  "deployedLinkReferences": {},
  "immutableReferences": {},
  "inputSourceName": "project/contracts/MockERC20.sol",
  "buildInfoId": "solc-0_8_20-c589a5f438ca614ab53578f9abd03cd0fa8f78bf"
}