{
  "_format": "hh3-artifact-1",
  "contractName": "DEXAggregator",
  "sourceName": "contracts/DEXAggregator.sol",
  "abi": [
    {
      "inputs": [
        {
          "internalType": "address",
          "name": "_oneInchRouter",
          "type": "address"
        },
        {
          "internalType": "address",
          "name": "_uniswapRouter",
          "type": "address"
        },
        {
          "internalType": "address",
          "name": "_uniswapQuoter",
          "type": "address"
        }
      ],
      "stateMutability": "nonpayable",
      "type": "constructor"
    },
    {
      "anonymous": false,
      "inputs": [
        {
          "indexed": false,
          "internalType": "address",
          "name": "tokenIn",
          "type": "address"
        },
        {
          "indexed": false,
          "internalType": "address",
          "name": "tokenOut",
          "type": "address"
        },
        {
          "indexed": false,
          "internalType": "enum DEXAggregator.DEXType",
          "name": "dex",
          "type": "uint8"
        },
        {
          "indexed": false,
          "internalType": "uint256",
          "name": "expectedOutput",
          "type": "uint256"
        }
      ],
      "name": "BestRouteSelected",
      "type": "event"
    },
    {
      "anonymous": false,
      "inputs": [
        {
          "indexed": false,
          "internalType": "address",
          "name": "oneInch",
          "type": "address"
        },
        {
          "indexed": false,
          "internalType": "address",
          "name": "uniswap",
          "type": "address"
        },
        {
          "indexed": false,
          "internalType": "address",
          "name": "quoter",
          "type": "address"
        }
      ],
      "name": "DEXRoutersUpdated",
      "type": "event"
    },
    {
      "anonymous": false,
      "inputs": [
        {
          "indexed": true,
          "internalType": "address",
          "name": "previousOwner",
          "type": "address"
        },
        {
          "indexed": true,
          "internalType": "address",
          "name": "newOwner",
          "type": "address"
        }
      ],
      "name": "OwnershipTransferred",
      "type": "event"
    },
    {
      "anonymous": false,
      "inputs": [
        {
          "indexed": false,
          "internalType": "address",
          "name": "tokenIn",
          "type": "address"
        },
        {
          "indexed": false,
          "internalType": "address",
          "name": "tokenOut",
          "type": "address"
        },
        {
          "components": [
            {
              "internalType": "address[]",
              "name": "path",
              "type": "address[]"
            },
            {
              "internalType": "address[]",
              "name": "exchanges",
              "type": "address[]"
            },
            {
              "internalType": "uint256[]",
              "name": "fees",
              "type": "uint256[]"
            },
            {
              "internalType": "uint256",
              "name": "expectedOutput",
              "type": "uint256"
            },
            {
              "internalType": "uint256",
              "name": "gasEstimate",
              "type": "uint256"
            }
          ],
          "indexed": false,
          "internalType": "struct IDEXAggregator.RouteInfo",
          "name": "route",
          "type": "tuple"
        }
      ],
      "name": "RouteOptimized",
      "type": "event"
    },
    {
      "anonymous": false,
      "inputs": [
        {
          "indexed": true,
          "internalType": "address",
          "name": "tokenIn",
          "type": "address"
        },
        {
          "indexed": true,
          "internalType": "address",
          "name": "tokenOut",
          "type": "address"
        },
        {
          "indexed": false,
          "internalType": "uint256",
          "name": "amountIn",
          "type": "uint256"
        },
        {
          "indexed": false,
          "internalType": "uint256",
          "name": "amountOut",
          "type": "uint256"
        },
        {
          "indexed": true,
          "internalType": "address",
          "name": "recipient",
          "type": "address"
        }
      ],
      "name": "SwapExecuted",
      "type": "event"
    },
    {
      "inputs": [],
      "name": "UNISWAP_FEE_HIGH",
      "outputs": [
        {
          "internalType": "uint24",
          "name": "",
          "type": "uint24"
        }
      ],
      "stateMutability": "view",
      "type": "function"
    },
    {
      "inputs": [],
      "name": "UNISWAP_FEE_LOW",
      "outputs": [
        {
          "internalType": "uint24",
          "name": "",
          "type": "uint24"
        }
      ],
      "stateMutability": "view",
      "type": "function"
    },
    {
      "inputs": [],
      "name": "UNISWAP_FEE_MEDIUM",
      "outputs": [
        {
          "internalType": "uint24",
          "name": "",
          "type": "uint24"
        }
      ],
      "stateMutability": "view",
      "type": "function"
    },
    {
      "inputs": [],
      "name": "WETH",
      "outputs": [
        {
          "internalType": "address",
          "name": "",
          "type": "address"
        }
      ],
      "stateMutability": "view",
      "type": "function"
    },
    {
      "inputs": [
        {
          "internalType": "address",
          "name": "",
          "type": "address"
        }
      ],
      "name": "authorizedCallers",
      "outputs": [
        {
          "internalType": "bool",
          "name": "",
          "type": "bool"
        }
      ],
      "stateMutability": "view",
      "type": "function"
    },
    {
      "inputs": [
        {
          "components": [
            {
              "internalType": "address",
              "name": "tokenIn",
              "type": "address"
            },
            {
              "internalType": "address",
              "name": "tokenOut",
              "type": "address"
            },
            {
              "internalType": "uint256",
              "name": "amountIn",
              "type": "uint256"
            },
            {
              "internalType": "uint256",
              "name": "minAmountOut",
              "type": "uint256"
            },
            {
              "internalType": "address",
              "name": "recipient",
              "type": "address"
            },
            {
              "internalType": "uint256",
              "name": "deadline",
              "type": "uint256"
            }
          ],
          "internalType": "struct IDEXAggregator.SwapParams[]",
          "name": "swaps",
          "type": "tuple[]"
        }
      ],
      "name": "batchSwaps",
      "outputs": [
        {
          "internalType": "uint256[]",
          "name": "amountsOut",
          "type": "uint256[]"
        }
      ],
      "stateMutability": "nonpayable",
      "type": "function"
    },
    {
      "inputs": [
        {
          "internalType": "address",
          "name": "token",
          "type": "address"
        },
        {
          "internalType": "uint256",
          "name": "amount",
          "type": "uint256"
        }
      ],
      "name": "emergencyRecoverToken",
      "outputs": [],
      "stateMutability": "nonpayable",
      "type": "function"
    },
    {
      "inputs": [
        {
          "components": [
            {
              "internalType": "address",
              "name": "tokenIn",
              "type": "address"
            },
            {
              "internalType": "address",
              "name": "tokenOut",
              "type": "address"
            },
            {
              "internalType": "uint256",
              "name": "amountIn",
              "type": "uint256"
            },
            {
              "internalType": "uint256",
              "name": "minAmountOut",
              "type": "uint256"
            },
            {
              "internalType": "address",
              "name": "recipient",
              "type": "address"
            },
            {
              "internalType": "uint256",
              "name": "deadline",
              "type": "uint256"
            }
          ],
          "internalType": "struct IDEXAggregator.SwapParams",
          "name": "params",
          "type": "tuple"
        }
      ],
      "name": "executeSwap",
      "outputs": [
        {
          "internalType": "uint256",
          "name": "amountOut",
          "type": "uint256"
        }
      ],
      "stateMutability": "nonpayable",
      "type": "function"
    },
    {
      "inputs": [
        {
          "components": [
            {
              "internalType": "address",
              "name": "tokenIn",
              "type": "address"
            },
            {
              "internalType": "address",
              "name": "tokenOut",
              "type": "address"
            },
            {
              "internalType": "uint256",
              "name": "amountIn",
              "type": "uint256"
            },
            {
              "internalType": "uint256",
              "name": "minAmountOut",
              "type": "uint256"
            },
            {
              "internalType": "address",
              "name": "recipient",
              "type": "address"
            },
            {
              "internalType": "uint256",
              "name": "deadline",
              "type": "uint256"
            }
          ],
          "internalType": "struct IDEXAggregator.SwapParams",
          "name": "params",
          "type": "tuple"
        },
        {
          "components": [
            {
              "internalType": "bool",
              "name": "usePrivateMempool",
              "type": "bool"
            },
            {
              "internalType": "uint256",
              "name": "maxPriorityFee",
              "type": "uint256"
            },
            {
              "internalType": "uint256",
              "name": "commitRevealDelay",
              "type": "uint256"
            }
          ],
          "internalType": "struct IDEXAggregator.MEVProtectionConfig",
          "name": "",
          "type": "tuple"
        }
      ],
      "name": "executeSwapWithMEVProtection",
      "outputs": [
        {
          "internalType": "uint256",
          "name": "amountOut",
          "type": "uint256"
        }
      ],
      "stateMutability": "nonpayable",
      "type": "function"
    },
    {
      "inputs": [
        {
          "internalType": "address",
          "name": "tokenIn",
          "type": "address"
        },
        {
          "internalType": "address",
          "name": "tokenOut",
          "type": "address"
        },
        {
          "internalType": "uint256",
          "name": "amountIn",
          "type": "uint256"
        }
      ],
      "name": "getOptimalRoute",
      "outputs": [
        {
          "components": [
            {
              "internalType": "address[]",
              "name": "path",
              "type": "address[]"
            },
            {
              "internalType": "address[]",
              "name": "exchanges",
              "type": "address[]"
            },
            {
              "internalType": "uint256[]",
              "name": "fees",
              "type": "uint256[]"
            },
            {
              "internalType": "uint256",
              "name": "expectedOutput",
              "type": "uint256"
            },
            {
              "internalType": "uint256",
              "name": "gasEstimate",
              "type": "uint256"
            }
          ],
          "internalType": "struct IDEXAggregator.RouteInfo",
          "name": "",
          "type": "tuple"
        }
      ],
      "stateMutability": "nonpayable",
      "type": "function"
    },
    {
      "inputs": [],
      "name": "oneInchRouter",
      "outputs": [
        {
          "internalType": "contract IAggregationRouterV5",
          "name": "",
          "type": "address"
        }
      ],
      "stateMutability": "view",
      "type": "function"
    },
    {
      "inputs": [],
      "name": "owner",
      "outputs": [
        {
          "internalType": "address",
          "name": "",
          "type": "address"
        }
      ],
      "stateMutability": "view",
      "type": "function"
    },
    {
      "inputs": [],
      "name": "renounceOwnership",
      "outputs": [],
      "stateMutability": "nonpayable",
      "type": "function"
    },
    {
      "inputs": [
        {
          "internalType": "address",
          "name": "caller",
          "type": "address"
        },
        {
          "internalType": "bool",
          "name": "authorized",
          "type": "bool"
        }
      ],
      "name": "setAuthorizedCaller",
      "outputs": [],
      "stateMutability": "nonpayable",
      "type": "function"
    },
    {
      "inputs": [
        {
          "internalType": "address",
          "name": "tokenIn",
          "type": "address"
        },
        {
          "internalType": "address",
          "name": "tokenOut",
          "type": "address"
        },
        {
          "internalType": "uint256",
          "name": "amountIn",
          "type": "uint256"
        },
        {
          "internalType": "uint256",
          "name": "maxSlippage",
          "type": "uint256"
        },
        {
          "internalType": "uint256",
          "name": "deadline",
          "type": "uint256"
        }
      ],
      "name": "swapTokens",
      "outputs": [
        {
          "internalType": "uint256",
          "name": "amountOut",
          "type": "uint256"
        },
        {
          "internalType": "uint256",
          "name": "actualSlippage",
          "type": "uint256"
        }
      ],
      "stateMutability": "nonpayable",
      "type": "function"
    },
    {
      "inputs": [
        {
          "internalType": "address",
          "name": "newOwner",
          "type": "address"
        }
      ],
      "name": "transferOwnership",
      "outputs": [],
      "stateMutability": "nonpayable",
      "type": "function"
    },
    {
      "inputs": [],
      "name": "uniswapQuoter",
      "outputs": [
        {
          "internalType": "contract IQuoter",
          "name": "",
          "type": "address"
        }
      ],
      "stateMutability": "view",
      "type": "function"
    },
    {
      "inputs": [],
      "name": "uniswapRouter",
      "outputs": [
        {
          "internalType": "contract ISwapRouter",
          "name": "",
          "type": "address"
        }
      ],
      "stateMutability": "view",
      "type": "function"
    },
    {
      "inputs": [
        {
          "internalType": "address",
          "name": "_oneInchRouter",
          "type": "address"
        },
        {
          "internalType": "address",
          "name": "_uniswapRouter",
          "type": "address"
        },
        {
          "internalType": "address",
          "name": "_uniswapQuoter",
          "type": "address"
        }
      ],
      "name": "updateDEXRouters",
      "outputs": [],
      "stateMutability": "nonpayable",
      "type": "function"
    },
    {
      "stateMutability": "payable",
      "type": "receive"
    }
  ],
  "bytecode": "0x608060405234801562000010575f80fd5b50604051620026fb380380620026fb833981016040819052620000339162000215565b6200003e33620001aa565b600180556001600160a01b0383166200009e5760405162461bcd60e51b815260206004820152601460248201527f496e76616c69642031696e636820726f7574657200000000000000000000000060448201526064015b60405180910390fd5b6001600160a01b038216620000f65760405162461bcd60e51b815260206004820152601660248201527f496e76616c696420556e697377617020726f7574657200000000000000000000604482015260640162000095565b6001600160a01b0381166200014e5760405162461bcd60e51b815260206004820152601660248201527f496e76616c696420556e69737761702071756f74657200000000000000000000604482015260640162000095565b600280546001600160a01b039485166001600160a01b031991821617909155600380549385169382169390931790925560048054919093169116179055335f908152600560205260409020805460ff191660011790556200025c565b5f80546001600160a01b038381166001600160a01b0319831681178455604051919092169283917f8be0079c531659141344cd1fd0a4f28419497f9722a3daafe3b4186f6b6457e09190a35050565b80516001600160a01b038116811462000210575f80fd5b919050565b5f805f6060848603121562000228575f80fd5b6200023384620001f9565b92506200024360208501620001f9565b91506200025360408501620001f9565b90509250925092565b612491806200026a5f395ff3fe608060405260043610610113575f3560e01c8063790201941161009d578063ad5c464811610062578063ad5c464814610330578063bdca8ccc1461034a578063c064893314610376578063f2fde38b1461038b578063ff3ec632146103aa575f80fd5b806379020194146102955780638747bd2c146102b45780638da5cb5b146102e05780639bd20dae146102fc578063ac3af20814610311575f80fd5b8063456e3a46116100e3578063456e3a46146101c05780634db4a352146101ed578063536fff6c14610224578063715018a614610262578063735de9f714610276575f80fd5b806307a9ca5b1461011e5780632cdc6ab31461013f57806343d91bf11461016d578063454bbd29146101a1575f80fd5b3661011a57005b5f80fd5b348015610129575f80fd5b5061013d610138366004611e02565b6103c9565b005b34801561014a575f80fd5b5061015461271081565b60405162ffffff90911681526020015b60405180910390f35b348015610178575f80fd5b5061018c610187366004611e42565b61052f565b60408051928352602083019190915201610164565b3480156101ac575f80fd5b5061013d6101bb366004611e98565b610765565b3480156101cb575f80fd5b506101df6101da366004611ee3565b6107df565b604051908152602001610164565b3480156101f8575f80fd5b5060045461020c906001600160a01b031681565b6040516001600160a01b039091168152602001610164565b34801561022f575f80fd5b5061025261023e366004611f04565b60056020525f908152604090205460ff1681565b6040519015158152602001610164565b34801561026d575f80fd5b5061013d610a52565b348015610281575f80fd5b5060035461020c906001600160a01b031681565b3480156102a0575f80fd5b5061013d6102af366004611f1d565b610a65565b3480156102bf575f80fd5b506102d36102ce366004611f45565b610b3f565b6040516101649190611fb4565b3480156102eb575f80fd5b505f546001600160a01b031661020c565b348015610307575f80fd5b506101546101f481565b34801561031c575f80fd5b5060025461020c906001600160a01b031681565b34801561033b575f80fd5b5061020c6006602160991b0181565b348015610355575f80fd5b50610369610364366004611feb565b6110a6565b6040516101649190612066565b348015610381575f80fd5b50610154610bb881565b348015610396575f80fd5b5061013d6103a5366004611f04565b6112c4565b3480156103b5575f80fd5b506101df6103c4366004612101565b61133d565b6103d16113f5565b6001600160a01b03831661041c5760405162461bcd60e51b815260206004820152600d60248201526c092dcecc2d8d2c84062d2dcc6d609b1b60448201526064015b60405180910390fd5b6001600160a01b0382166104645760405162461bcd60e51b815260206004820152600f60248201526e0496e76616c696420556e697377617608c1b6044820152606401610413565b6001600160a01b0381166104ab5760405162461bcd60e51b815260206004820152600e60248201526d24b73b30b634b21038bab7ba32b960911b6044820152606401610413565b600280546001600160a01b038581166001600160a01b0319928316811790935560038054868316908416811790915560048054928616929093168217909255604080519384526020840192909252908201527fd9ea4b8fc7a3b7ba53ad58acb9a7194f8f63a6df2372c4b96f5f5fca1aff5aa09060600160405180910390a1505050565b335f90815260056020526040812054819060ff168061055757505f546001600160a01b031633145b6105735760405162461bcd60e51b81526004016104139061213f565b61057b61144e565b8242111561059b5760405162461bcd60e51b815260040161041390612167565b5f85116105ba5760405162461bcd60e51b815260040161041390612188565b856001600160a01b0316876001600160a01b0316036106085760405162461bcd60e51b815260206004820152600a60248201526929b0b6b2903a37b5b2b760b11b6044820152606401610413565b61061d6001600160a01b0388163330886114a7565b5f8061062a898989611518565b90925090505f61271061063d88826121c4565b61064790846121d7565b61065191906121ee565b90505f8360018111156106665761066661220d565b0361067f576106788a8a8a8433611597565b9450610690565b61068d8a8a8a84338b61166c565b94505b84821161069d575f6106be565b816106a886826121c4565b6106b4906127106121d7565b6106be91906121ee565b9350868411156107045760405162461bcd60e51b815260206004820152601160248201527014db1a5c1c1859d948195e18d959591959607a1b6044820152606401610413565b604080518981526020810187905233916001600160a01b038c811692908e16917fee4825a7988c5519a874be79f2a84d13d02cfe5f74cad97cda2d5b55d2b13bfa910160405180910390a450505061075b60018055565b9550959350505050565b61076d6113f5565b6001600160a01b0382166107b55760405162461bcd60e51b815260206004820152600f60248201526e496e76616c6964206164647265737360881b6044820152606401610413565b6001600160a01b03919091165f908152600560205260409020805460ff1916911515919091179055565b335f9081526005602052604081205460ff168061080557505f546001600160a01b031633145b6108215760405162461bcd60e51b81526004016104139061213f565b61082961144e565b5f82604001351161084c5760405162461bcd60e51b815260040161041390612188565b428260a0013510156108705760405162461bcd60e51b815260040161041390612167565b610898333060408501356108876020870187611f04565b6001600160a01b03169291906114a7565b5f6108c36108a96020850185611f04565b6108b96040860160208701611f04565b8560400135611518565b5090505f8160018111156108d9576108d961220d565b036109245761091d6108ee6020850185611f04565b6108fe6040860160208701611f04565b6040860135606087013561091860a0890160808a01611f04565b611597565b915061096b565b6109686109346020850185611f04565b6109446040860160208701611f04565b6040860135606087013561095e60a0890160808a01611f04565b8860a0013561166c565b91505b82606001358210156109b55760405162461bcd60e51b8152602060048201526013602482015272125b9cdd59999a58da595b9d081bdd5d1c1d5d606a1b6044820152606401610413565b6109c560a0840160808501611f04565b6001600160a01b03166109de6040850160208601611f04565b6001600160a01b03166109f46020860186611f04565b6001600160a01b03167fee4825a7988c5519a874be79f2a84d13d02cfe5f74cad97cda2d5b55d2b13bfa866040013586604051610a3b929190918252602082015260400190565b60405180910390a450610a4d60018055565b919050565b610a5a6113f5565b610a635f611798565b565b610a6d6113f5565b6001600160a01b038216610b16575f80546040516001600160a01b039091169083908381818185875af1925050503d805f8114610ac5576040519150601f19603f3d011682016040523d82523d5f602084013e610aca565b606091505b5050905080610b115760405162461bcd60e51b8152602060048201526013602482015272115512081d1c985b9cd9995c8819985a5b1959606a1b6044820152606401610413565b505050565b610b3b610b2a5f546001600160a01b031690565b6001600160a01b03841690836117e7565b5050565b335f9081526005602052604090205460609060ff1680610b6857505f546001600160a01b031633145b610b845760405162461bcd60e51b81526004016104139061213f565b610b8c61144e565b8167ffffffffffffffff811115610ba557610ba5612221565b604051908082528060200260200182016040528015610bce578160200160208202803683370190505b5090505f5b82811015611096575f848483818110610bee57610bee612235565b905060c002016040013511610c155760405162461bcd60e51b815260040161041390612188565b42848483818110610c2857610c28612235565b905060c0020160a001351015610c505760405162461bcd60e51b815260040161041390612167565b610c993330868685818110610c6757610c67612235565b905060c0020160400135878786818110610c8357610c83612235565b61088792602060c0909202019081019150611f04565b5f610d10858584818110610caf57610caf612235565b610cc592602060c0909202019081019150611f04565b868685818110610cd757610cd7612235565b905060c002016020016020810190610cef9190611f04565b878786818110610d0157610d01612235565b905060c0020160400135611518565b5090505f816001811115610d2657610d2661220d565b03610e0557610de2858584818110610d4057610d40612235565b610d5692602060c0909202019081019150611f04565b868685818110610d6857610d68612235565b905060c002016020016020810190610d809190611f04565b878786818110610d9257610d92612235565b905060c0020160400135888887818110610dae57610dae612235565b905060c0020160600135898988818110610dca57610dca612235565b905060c0020160800160208101906109189190611f04565b838381518110610df457610df4612235565b602002602001018181525050610efc565b610edd858584818110610e1a57610e1a612235565b610e3092602060c0909202019081019150611f04565b868685818110610e4257610e42612235565b905060c002016020016020810190610e5a9190611f04565b878786818110610e6c57610e6c612235565b905060c0020160400135888887818110610e8857610e88612235565b905060c0020160600135898988818110610ea457610ea4612235565b905060c002016080016020810190610ebc9190611f04565b8a8a89818110610ece57610ece612235565b905060c0020160a0013561166c565b838381518110610eef57610eef612235565b6020026020010181815250505b848483818110610f0e57610f0e612235565b905060c0020160600135838381518110610f2a57610f2a612235565b60200260200101511015610f765760405162461bcd60e51b8152602060048201526013602482015272125b9cdd59999a58da595b9d081bdd5d1c1d5d606a1b6044820152606401610413565b848483818110610f8857610f88612235565b905060c002016080016020810190610fa09190611f04565b6001600160a01b0316858584818110610fbb57610fbb612235565b905060c002016020016020810190610fd39190611f04565b6001600160a01b0316868685818110610fee57610fee612235565b61100492602060c0909202019081019150611f04565b6001600160a01b03167fee4825a7988c5519a874be79f2a84d13d02cfe5f74cad97cda2d5b55d2b13bfa88888781811061104057611040612235565b905060c002016040013587878151811061105c5761105c612235565b602002602001015160405161107b929190918252602082015260400190565b60405180910390a4508061108e81612249565b915050610bd3565b506110a060018055565b92915050565b6110d66040518060a001604052806060815260200160608152602001606081526020015f81526020015f81525090565b5f806110e3868686611518565b6040805160028082526060820183529395509193505f929060208301908036833701905050905086815f8151811061111d5761111d612235565b60200260200101906001600160a01b031690816001600160a01b031681525050858160018151811061115157611151612235565b6001600160a01b0392909216602092830291909101909101526040805160018082528183019092525f918160200160208202803683370190505090505f8460018111156111a0576111a061220d565b146111b6576003546001600160a01b03166111c3565b6002546001600160a01b03165b815f815181106111d5576111d5612235565b6001600160a01b0392909216602092830291909101909101526040805160018082528183019092525f918160200160208202803683370190505090505f8560018111156112245761122461220d565b1461123157610bb8611234565b60645b61ffff16815f8151811061124a5761124a612235565b6020026020010181815250506040518060a001604052808481526020018381526020018281526020018581526020015f600181111561128b5761128b61220d565b87600181111561129d5761129d61220d565b146112ab57620249f06112b0565b6202bf205b62ffffff1690529998505050505050505050565b6112cc6113f5565b6001600160a01b0381166113315760405162461bcd60e51b815260206004820152602660248201527f4f776e61626c653a206e6577206f776e657220697320746865207a65726f206160448201526564647265737360d01b6064820152608401610413565b61133a81611798565b50565b335f9081526005602052604081205460ff168061136357505f546001600160a01b031633145b61137f5760405162461bcd60e51b81526004016104139061213f565b61138761144e565b6040516322b71d2360e11b8152309063456e3a46906113aa908690600401612261565b6020604051808303815f875af11580156113c6573d5f803e3d5ffd5b505050506040513d601f19601f820116820180604052508101906113ea91906122c5565b90506110a060018055565b5f546001600160a01b03163314610a635760405162461bcd60e51b815260206004820181905260248201527f4f776e61626c653a2063616c6c6572206973206e6f7420746865206f776e65726044820152606401610413565b6002600154036114a05760405162461bcd60e51b815260206004820152601f60248201527f5265656e7472616e637947756172643a207265656e7472616e742063616c6c006044820152606401610413565b6002600155565b6040516001600160a01b03808516602483015283166044820152606481018290526115129085906323b872dd60e01b906084015b60408051601f198184030181529190526020810180516001600160e01b03166001600160e01b031990931692909217909152611817565b50505050565b5f805f6115268686866118ea565b90505f61153487878761190a565b9050808210611548575f9350819250611550565b600193508092505b7fce1b4846c1115b01d2b91dbacb2e48a81f784285768607b4eefb4676204fb5d88787868660405161158594939291906122dc565b60405180910390a15050935093915050565b6002545f906115b3906001600160a01b03888116911686611a15565b6040805160e0810182526001600160a01b0380891682528781166020830152600254811682840181905290851660608301526080820187905260a082018690525f60c0830181905292516312aa3caf60e01b81529192916312aa3caf906116209083908690600401612322565b60408051808303815f875af115801561163b573d5f803e3d5ffd5b505050506040513d601f19601f8201168201806040525081019061165f91906123af565b5098975050505050505050565b6003545f90611688906001600160a01b03898116911687611a15565b5f611694888888611aa3565b60408051610100810182526001600160a01b038b811682528a81166020830190815262ffffff8581168486019081528a841660608601908152608086018b815260a087018f815260c088018f81525f60e08a019081526003549a5163414bf38960e01b81528a518a166004820152975189166024890152945190951660448701529151861660648601525160848501525160a4840152905160c483015251821660e4820152939450909291169063414bf38990610104016020604051808303815f875af1158015611767573d5f803e3d5ffd5b505050506040513d601f19601f8201168201806040525081019061178b91906122c5565b9998505050505050505050565b5f80546001600160a01b038381166001600160a01b0319831681178455604051919092169283917f8be0079c531659141344cd1fd0a4f28419497f9722a3daafe3b4186f6b6457e09190a35050565b6040516001600160a01b038316602482015260448101829052610b1190849063a9059cbb60e01b906064016114db565b5f61186b826040518060400160405280602081526020017f5361666545524332303a206c6f772d6c6576656c2063616c6c206661696c6564815250856001600160a01b0316611bc99092919063ffffffff16565b905080515f148061188b57508080602001905181019061188b91906123d1565b610b115760405162461bcd60e51b815260206004820152602a60248201527f5361666545524332303a204552433230206f7065726174696f6e20646964206e6044820152691bdd081cdd58d8d9595960b21b6064820152608401610413565b5f60646118f88360636121d7565b61190291906121ee565b949350505050565b604080516060810182526101f48152610bb86020820152612710918101919091525f908190815b6003811015611a0a576004546001600160a01b031663f7729d43888885856003811061195f5761195f612235565b60200201516040516001600160e01b031960e086901b1681526001600160a01b03938416600482015292909116602483015262ffffff166044820152606481018890525f608482015260a4016020604051808303815f875af19250505080156119e5575060408051601f3d908101601f191682019092526119e2918101906122c5565b60015b156119f857838111156119f6578093505b505b80611a0281612249565b915050611931565b509095945050505050565b604080516001600160a01b038416602482015260448082018490528251808303909101815260649091019091526020810180516001600160e01b031663095ea7b360e01b179052611a668482611bd7565b611512576040516001600160a01b03841660248201525f6044820152611a9990859063095ea7b360e01b906064016114db565b6115128482611817565b604080516060810182526101f48152610bb860208201819052612710928201929092525f9182805b6003811015611bbd576004546001600160a01b031663f7729d438989878560038110611af957611af9612235565b60200201516040516001600160e01b031960e086901b1681526001600160a01b03938416600482015292909116602483015262ffffff166044820152606481018990525f608482015260a4016020604051808303815f875af1925050508015611b7f575060408051601f3d908101601f19168201909252611b7c918101906122c5565b60015b15611bab5782811115611ba957809250848260038110611ba157611ba1612235565b602002015193505b505b80611bb581612249565b915050611acb565b50909695505050505050565b606061190284845f85611c78565b5f805f846001600160a01b031684604051611bf2919061240e565b5f604051808303815f865af19150503d805f8114611c2b576040519150601f19603f3d011682016040523d82523d5f602084013e611c30565b606091505b5091509150818015611c5a575080511580611c5a575080806020019051810190611c5a91906123d1565b8015611c6f57506001600160a01b0385163b15155b95945050505050565b606082471015611cd95760405162461bcd60e51b815260206004820152602660248201527f416464726573733a20696e73756666696369656e742062616c616e636520666f6044820152651c8818d85b1b60d21b6064820152608401610413565b5f80866001600160a01b03168587604051611cf4919061240e565b5f6040518083038185875af1925050503d805f8114611d2e576040519150601f19603f3d011682016040523d82523d5f602084013e611d33565b606091505b5091509150611d4487838387611d4f565b979650505050505050565b60608315611dbd5782515f03611db6576001600160a01b0385163b611db65760405162461bcd60e51b815260206004820152601d60248201527f416464726573733a2063616c6c20746f206e6f6e2d636f6e74726163740000006044820152606401610413565b5081611902565b6119028383815115611dd25781518083602001fd5b8060405162461bcd60e51b81526004016104139190612429565b80356001600160a01b0381168114610a4d575f80fd5b5f805f60608486031215611e14575f80fd5b611e1d84611dec565b9250611e2b60208501611dec565b9150611e3960408501611dec565b90509250925092565b5f805f805f60a08688031215611e56575f80fd5b611e5f86611dec565b9450611e6d60208701611dec565b94979496505050506040830135926060810135926080909101359150565b801515811461133a575f80fd5b5f8060408385031215611ea9575f80fd5b611eb283611dec565b91506020830135611ec281611e8b565b809150509250929050565b5f60c08284031215611edd575f80fd5b50919050565b5f60c08284031215611ef3575f80fd5b611efd8383611ecd565b9392505050565b5f60208284031215611f14575f80fd5b611efd82611dec565b5f8060408385031215611f2e575f80fd5b611f3783611dec565b946020939093013593505050565b5f8060208385031215611f56575f80fd5b823567ffffffffffffffff80821115611f6d575f80fd5b818501915085601f830112611f80575f80fd5b813581811115611f8e575f80fd5b86602060c083028501011115611fa2575f80fd5b60209290920196919550909350505050565b602080825282518282018190525f9190848201906040850190845b81811015611bbd57835183529284019291840191600101611fcf565b5f805f60608486031215611ffd575f80fd5b61200684611dec565b925061201460208501611dec565b9150604084013590509250925092565b5f8151808452602080850194508084015f5b8381101561205b5781516001600160a01b031687529582019590820190600101612036565b509495945050505050565b5f6020808352835160a08285015261208160c0850182612024565b905081850151601f198086840301604087015261209e8383612024565b60408801518782039092016060880152815180825291850193505f92508401905b808310156120df57835182529284019260019290920191908401906120bf565b5060608701516080870152608087015160a08701528094505050505092915050565b5f80828403610120811215612114575f80fd5b61211e8585611ecd565b9250606060bf1982011215612131575f80fd5b5060c0830190509250929050565b6020808252600e908201526d139bdd08185d5d1a1bdc9a5e995960921b604082015260600190565b602080825260079082015266115e1c1a5c995960ca1b604082015260600190565b6020808252600e908201526d125b9d985b1a5908185b5bdd5b9d60921b604082015260600190565b634e487b7160e01b5f52601160045260245ffd5b818103818111156110a0576110a06121b0565b80820281158282048414176110a0576110a06121b0565b5f8261220857634e487b7160e01b5f52601260045260245ffd5b500490565b634e487b7160e01b5f52602160045260245ffd5b634e487b7160e01b5f52604160045260245ffd5b634e487b7160e01b5f52603260045260245ffd5b5f6001820161225a5761225a6121b0565b5060010190565b60c081016001600160a01b038061227785611dec565b1683528061228760208601611dec565b1660208401526040840135604084015260608401356060840152806122ae60808601611dec565b1660808401525060a083013560a083015292915050565b5f602082840312156122d5575f80fd5b5051919050565b6001600160a01b03858116825284166020820152608081016002841061231057634e487b7160e01b5f52602160045260245ffd5b60408201939093526060015292915050565b5f61014060018060a01b03808616845280855116602085015280602086015116604085015280604086015116606085015280606086015116608085015250608084015160a084015260a084015160c084015260c084015160e0840152806101008401526123948184015f815260200190565b8381036101208501525f815290506020810195945050505050565b5f80604083850312156123c0575f80fd5b505080516020909101519092909150565b5f602082840312156123e1575f80fd5b8151611efd81611e8b565b5f5b838110156124065781810151838201526020016123ee565b50505f910152565b5f825161241f8184602087016123ec565b9190910192915050565b602081525f82518060208401526124478160408501602087016123ec565b601f01601f1916919091016040019291505056fea26469706673582212203b9544b103d45bbdb549883070d55661e9fec83f2e97923c01db1960fbb48a3364736f6c63430008140033",
  "linkReferences": {},
  "deployedLinkReferences": {},
  "immutableReferences": {},
  "inputSourceName": "project/contracts/DEXAggregator.sol",
  "buildInfoId": "solc-0_8_20-c104ac2a4beab02af3661ccba76522edd6a80bf1"
}