{
  "_format": "hh3-artifact-1",
  "contractName": "CrashGuardCore",
  "sourceName": "contracts/CrashGuardCore.sol",
  "abi": [
    {
      "inputs": [],
      "stateMutability": "nonpayable",
      "type": "constructor"
    },
    {
      "anonymous": false,
      "inputs": [
        {
          "indexed": true,
          "internalType": "address",
          "name": "user",
          "type": "address"
        },
        {
          "indexed": true,
          "internalType": "address",
          "name": "token",
          "type": "address"
        },
        {
          "indexed": false,
          "internalType": "uint256",
          "name": "amount",
          "type": "uint256"
        }
      ],
      "name": "AssetDeposited",
      "type": "event"
    },
    {
      "anonymous": false,
      "inputs": [
        {
          "indexed": true,
          "internalType": "address",
          "name": "user",
          "type": "address"
        },
        {
          "indexed": true,
          "internalType": "address",
          "name": "token",
          "type": "address"
        },
        {
          "indexed": false,
          "internalType": "uint256",
          "name": "amount",
          "type": "uint256"
        }
      ],
      "name": "AssetWithdrawn",
      "type": "event"
    },
    {
      "anonymous": false,
      "inputs": [
        {
          "indexed": true,
          "internalType": "address",
          "name": "user",
          "type": "address"
        },
        {
          "indexed": false,
          "internalType": "uint256",
          "name": "timestamp",
          "type": "uint256"
        }
      ],
      "name": "EmergencyProtectionTriggered",
      "type": "event"
    },
    {
      "anonymous": false,
      "inputs": [
        {
          "indexed": true,
          "internalType": "address",
          "name": "previousOwner",
          "type": "address"
        },
        {
          "indexed": true,
          "internalType": "address",
          "name": "newOwner",
          "type": "address"
        }
      ],
      "name": "OwnershipTransferred",
      "type": "event"
    },
    {
      "anonymous": false,
      "inputs": [
        {
          "indexed": true,
          "internalType": "address",
          "name": "user",
          "type": "address"
        },
        {
          "components": [
            {
              "internalType": "uint256",
              "name": "crashThreshold",
              "type": "uint256"
            },
            {
              "internalType": "uint256",
              "name": "maxSlippage",
              "type": "uint256"
            },
            {
              "internalType": "address[]",
              "name": "emergencyActions",
              "type": "address[]"
            },
            {
              "internalType": "address",
              "name": "stablecoinPreference",
              "type": "address"
            },
            {
              "internalType": "uint256",
              "name": "gasLimit",
              "type": "uint256"
            }
          ],
          "indexed": false,
          "internalType": "struct ICrashGuardCore.ProtectionPolicy",
          "name": "policy",
          "type": "tuple"
        }
      ],
      "name": "PolicyUpdated",
      "type": "event"
    },
    {
      "inputs": [
        {
          "internalType": "address",
          "name": "token",
          "type": "address"
        }
      ],
      "name": "addSupportedToken",
      "outputs": [],
      "stateMutability": "nonpayable",
      "type": "function"
    },
    {
      "inputs": [
        {
          "internalType": "address",
          "name": "token",
          "type": "address"
        },
        {
          "internalType": "uint256",
          "name": "amount",
          "type": "uint256"
        }
      ],
      "name": "depositAsset",
      "outputs": [],
      "stateMutability": "payable",
      "type": "function"
    },
    {
      "inputs": [],
      "name": "emergencyExecutor",
      "outputs": [
        {
          "internalType": "address",
          "name": "",
          "type": "address"
        }
      ],
      "stateMutability": "view",
      "type": "function"
    },
    {
      "inputs": [
        {
          "internalType": "address",
          "name": "user",
          "type": "address"
        },
        {
          "internalType": "address",
          "name": "token",
          "type": "address"
        },
        {
          "internalType": "uint256",
          "name": "amount",
          "type": "uint256"
        }
      ],
      "name": "emergencyWithdraw",
      "outputs": [],
      "stateMutability": "nonpayable",
      "type": "function"
    },
    {
      "inputs": [
        {
          "internalType": "address",
          "name": "user",
          "type": "address"
        }
      ],
      "name": "getProtectionPolicy",
      "outputs": [
        {
          "components": [
            {
              "internalType": "uint256",
              "name": "crashThreshold",
              "type": "uint256"
            },
            {
              "internalType": "uint256",
              "name": "maxSlippage",
              "type": "uint256"
            },
            {
              "internalType": "address[]",
              "name": "emergencyActions",
              "type": "address[]"
            },
            {
              "internalType": "address",
              "name": "stablecoinPreference",
              "type": "address"
            },
            {
              "internalType": "uint256",
              "name": "gasLimit",
              "type": "uint256"
            }
          ],
          "internalType": "struct ICrashGuardCore.ProtectionPolicy",
          "name": "",
          "type": "tuple"
        }
      ],
      "stateMutability": "view",
      "type": "function"
    },
    {
      "inputs": [],
      "name": "getTotalUsers",
      "outputs": [
        {
          "internalType": "uint256",
          "name": "",
          "type": "uint256"
        }
      ],
      "stateMutability": "view",
      "type": "function"
    },
    {
      "inputs": [
        {
          "internalType": "address",
          "name": "user",
          "type": "address"
        },
        {
          "internalType": "address",
          "name": "token",
          "type": "address"
        }
      ],
      "name": "getUserBalance",
      "outputs": [
        {
          "internalType": "uint256",
          "name": "",
          "type": "uint256"
        }
      ],
      "stateMutability": "view",
      "type": "function"
    },
    {
      "inputs": [
        {
          "internalType": "address",
          "name": "user",
          "type": "address"
        }
      ],
      "name": "getUserLitAction",
      "outputs": [
        {
          "internalType": "string",
          "name": "",
          "type": "string"
        }
      ],
      "stateMutability": "view",
      "type": "function"
    },
    {
      "inputs": [
        {
          "internalType": "address",
          "name": "user",
          "type": "address"
        }
      ],
      "name": "getUserPortfolio",
      "outputs": [
        {
          "components": [
            {
              "components": [
                {
                  "internalType": "address",
                  "name": "tokenAddress",
                  "type": "address"
                },
                {
                  "internalType": "uint256",
                  "name": "amount",
                  "type": "uint256"
                },
                {
                  "internalType": "uint256",
                  "name": "valueUSD",
                  "type": "uint256"
                },
                {
                  "internalType": "uint8",
                  "name": "riskLevel",
                  "type": "uint8"
                }
              ],
              "internalType": "struct ICrashGuardCore.Asset[]",
              "name": "assets",
              "type": "tuple[]"
            },
            {
              "internalType": "uint256",
              "name": "totalValue",
              "type": "uint256"
            },
            {
              "internalType": "uint256",
              "name": "lastUpdated",
              "type": "uint256"
            },
            {
              "internalType": "uint256",
              "name": "riskScore",
              "type": "uint256"
            }
          ],
          "internalType": "struct ICrashGuardCore.Portfolio",
          "name": "",
          "type": "tuple"
        }
      ],
      "stateMutability": "view",
      "type": "function"
    },
    {
      "inputs": [
        {
          "internalType": "address",
          "name": "user",
          "type": "address"
        }
      ],
      "name": "isPKPAuthorized",
      "outputs": [
        {
          "internalType": "bool",
          "name": "",
          "type": "bool"
        }
      ],
      "stateMutability": "view",
      "type": "function"
    },
    {
      "inputs": [],
      "name": "litProtocolIntegration",
      "outputs": [
        {
          "internalType": "contract ILitProtocolIntegration",
          "name": "",
          "type": "address"
        }
      ],
      "stateMutability": "view",
      "type": "function"
    },
    {
      "inputs": [],
      "name": "litRelayContract",
      "outputs": [
        {
          "internalType": "contract ILitRelayContract",
          "name": "",
          "type": "address"
        }
      ],
      "stateMutability": "view",
      "type": "function"
    },
    {
      "inputs": [],
      "name": "owner",
      "outputs": [
        {
          "internalType": "address",
          "name": "",
          "type": "address"
        }
      ],
      "stateMutability": "view",
      "type": "function"
    },
    {
      "inputs": [],
      "name": "pause",
      "outputs": [],
      "stateMutability": "nonpayable",
      "type": "function"
    },
    {
      "inputs": [
        {
          "internalType": "address",
          "name": "",
          "type": "address"
        }
      ],
      "name": "pkpAuthorizedUsers",
      "outputs": [
        {
          "internalType": "bool",
          "name": "",
          "type": "bool"
        }
      ],
      "stateMutability": "view",
      "type": "function"
    },
    {
      "inputs": [
        {
          "internalType": "address",
          "name": "user",
          "type": "address"
        },
        {
          "internalType": "address",
          "name": "token",
          "type": "address"
        },
        {
          "internalType": "uint256",
          "name": "amount",
          "type": "uint256"
        },
        {
          "internalType": "string",
          "name": "litActionId",
          "type": "string"
        }
      ],
      "name": "pkpDepositAsset",
      "outputs": [],
      "stateMutability": "payable",
      "type": "function"
    },
    {
      "inputs": [
        {
          "internalType": "address",
          "name": "user",
          "type": "address"
        },
        {
          "internalType": "address",
          "name": "token",
          "type": "address"
        },
        {
          "internalType": "uint256",
          "name": "amount",
          "type": "uint256"
        },
        {
          "internalType": "string",
          "name": "litActionId",
          "type": "string"
        }
      ],
      "name": "pkpWithdrawAsset",
      "outputs": [],
      "stateMutability": "nonpayable",
      "type": "function"
    },
    {
      "inputs": [
        {
          "internalType": "address",
          "name": "user",
          "type": "address"
        },
        {
          "internalType": "bytes32",
          "name": "executionHash",
          "type": "bytes32"
        },
        {
          "internalType": "string",
          "name": "litActionId",
          "type": "string"
        }
      ],
      "name": "processLitActionExecution",
      "outputs": [],
      "stateMutability": "nonpayable",
      "type": "function"
    },
    {
      "inputs": [
        {
          "internalType": "bytes32",
          "name": "",
          "type": "bytes32"
        }
      ],
      "name": "processedLitActionExecutions",
      "outputs": [
        {
          "internalType": "bool",
          "name": "",
          "type": "bool"
        }
      ],
      "stateMutability": "view",
      "type": "function"
    },
    {
      "inputs": [
        {
          "internalType": "address",
          "name": "token",
          "type": "address"
        }
      ],
      "name": "removeSupportedToken",
      "outputs": [],
      "stateMutability": "nonpayable",
      "type": "function"
    },
    {
      "inputs": [],
      "name": "renounceOwnership",
      "outputs": [],
      "stateMutability": "nonpayable",
      "type": "function"
    },
    {
      "inputs": [
        {
          "internalType": "address",
          "name": "user",
          "type": "address"
        }
      ],
      "name": "revokePKPAuthorization",
      "outputs": [],
      "stateMutability": "nonpayable",
      "type": "function"
    },
    {
      "inputs": [
        {
          "internalType": "address",
          "name": "_emergencyExecutor",
          "type": "address"
        }
      ],
      "name": "setEmergencyExecutor",
      "outputs": [],
      "stateMutability": "nonpayable",
      "type": "function"
    },
    {
      "inputs": [
        {
          "internalType": "address",
          "name": "_litProtocolIntegration",
          "type": "address"
        }
      ],
      "name": "setLitProtocolIntegration",
      "outputs": [],
      "stateMutability": "nonpayable",
      "type": "function"
    },
    {
      "inputs": [
        {
          "internalType": "address",
          "name": "_litRelayContract",
          "type": "address"
        }
      ],
      "name": "setLitRelayContract",
      "outputs": [],
      "stateMutability": "nonpayable",
      "type": "function"
    },
    {
      "inputs": [
        {
          "components": [
            {
              "internalType": "uint256",
              "name": "crashThreshold",
              "type": "uint256"
            },
            {
              "internalType": "uint256",
              "name": "maxSlippage",
              "type": "uint256"
            },
            {
              "internalType": "address[]",
              "name": "emergencyActions",
              "type": "address[]"
            },
            {
              "internalType": "address",
              "name": "stablecoinPreference",
              "type": "address"
            },
            {
              "internalType": "uint256",
              "name": "gasLimit",
              "type": "uint256"
            }
          ],
          "internalType": "struct ICrashGuardCore.ProtectionPolicy",
          "name": "policy",
          "type": "tuple"
        }
      ],
      "name": "setProtectionPolicy",
      "outputs": [],
      "stateMutability": "nonpayable",
      "type": "function"
    },
    {
      "inputs": [
        {
          "internalType": "address",
          "name": "user",
          "type": "address"
        },
        {
          "internalType": "address",
          "name": "pkpAddress",
          "type": "address"
        },
        {
          "internalType": "string",
          "name": "litActionId",
          "type": "string"
        }
      ],
      "name": "setupPKPAuthorization",
      "outputs": [],
      "stateMutability": "nonpayable",
      "type": "function"
    },
    {
      "inputs": [
        {
          "internalType": "address",
          "name": "",
          "type": "address"
        }
      ],
      "name": "supportedTokens",
      "outputs": [
        {
          "internalType": "bool",
          "name": "",
          "type": "bool"
        }
      ],
      "stateMutability": "view",
      "type": "function"
    },
    {
      "inputs": [
        {
          "internalType": "address",
          "name": "newOwner",
          "type": "address"
        }
      ],
      "name": "transferOwnership",
      "outputs": [],
      "stateMutability": "nonpayable",
      "type": "function"
    },
    {
      "inputs": [
        {
          "internalType": "address",
          "name": "user",
          "type": "address"
        },
        {
          "internalType": "address",
          "name": "token",
          "type": "address"
        },
        {
          "internalType": "uint256",
          "name": "valueUSD",
          "type": "uint256"
        },
        {
          "internalType": "uint8",
          "name": "riskLevel",
          "type": "uint8"
        }
      ],
      "name": "updateAssetValue",
      "outputs": [],
      "stateMutability": "nonpayable",
      "type": "function"
    },
    {
      "inputs": [
        {
          "internalType": "address",
          "name": "user",
          "type": "address"
        },
        {
          "internalType": "uint256",
          "name": "totalValue",
          "type": "uint256"
        },
        {
          "internalType": "uint256",
          "name": "riskScore",
          "type": "uint256"
        }
      ],
      "name": "updatePortfolioValue",
      "outputs": [],
      "stateMutability": "nonpayable",
      "type": "function"
    },
    {
      "inputs": [
        {
          "internalType": "address",
          "name": "",
          "type": "address"
        }
      ],
      "name": "userLitActions",
      "outputs": [
        {
          "internalType": "string",
          "name": "",
          "type": "string"
        }
      ],
      "stateMutability": "view",
      "type": "function"
    },
    {
      "inputs": [
        {
          "internalType": "address",
          "name": "token",
          "type": "address"
        },
        {
          "internalType": "uint256",
          "name": "amount",
          "type": "uint256"
        }
      ],
      "name": "withdrawAsset",
      "outputs": [],
      "stateMutability": "nonpayable",
      "type": "function"
    },
    {
      "stateMutability": "payable",
      "type": "receive"
    }
  ],
  "bytecode": "0x608060405234801562000010575f80fd5b506200001c336200005b565b60018080555f805260056020527f05b8ccbb9d4d8fb16ea74ce3c29a41f1b461fbdaff4714a0d9a8eb05499746bc805460ff19169091179055620000aa565b5f80546001600160a01b038381166001600160a01b0319831681178455604051919092169283917f8be0079c531659141344cd1fd0a4f28419497f9722a3daafe3b4186f6b6457e09190a35050565b6133c880620000b85f395ff3fe6080604052600436106101e9575f3560e01c80636fda301d116101085780639be572f61161009d578063d4b4030a1161006d578063d4b4030a1461060e578063e63ea4081461062d578063f2fde38b1461064c578063f41d55881461066b578063ffe744e61461068a575f80fd5b80639be572f6146105ab578063a38148b9146105bd578063a844b157146105d0578063b0eb9ad6146105ef575f80fd5b8063834a0e0d116100d8578063834a0e0d1461053d5780638456cb591461055c57806385202e4d146105705780638da5cb5b1461058f575f80fd5b80636fda301d146104b4578063715018a6146104eb57806376319190146104ff57806377e4f2581461051e575f80fd5b806346badd321161017e5780636805d6ad1161014e5780636805d6ad1461040e57806368c4ac261461043b5780636ad2a55a146104695780636d69fcaf14610495575f80fd5b806346badd3214610385578063485b1c72146103a45780635b0788f2146103c3578063657a659b146103ef575f80fd5b80631edb27e9116101b95780631edb27e9146102f957806338e4f0641461032557806345e0805b1461034457806346a5d04314610372575f80fd5b806308b7538d1461023f5780630a874d54146102825780630f2381bb146102a3578063189fa7a2146102c2575f80fd5b3661023b5760405162461bcd60e51b815260206004820152601960248201527f557365206465706f73697441737365742066756e6374696f6e0000000000000060448201526064015b60405180910390fd5b5f80fd5b34801561024a575f80fd5b5061026d610259366004612912565b600b6020525f908152604090205460ff1681565b60405190151581526020015b60405180910390f35b34801561028d575f80fd5b506102a161029c3660046129de565b6106a9565b005b3480156102ae575f80fd5b506102a16102bd366004612ae5565b610894565b3480156102cd575f80fd5b506006546102e1906001600160a01b031681565b6040516001600160a01b039091168152602001610279565b348015610304575f80fd5b50610318610313366004612ae5565b6108e4565b6040516102799190612b07565b348015610330575f80fd5b506102a161033f366004612ba2565b6109d7565b34801561034f575f80fd5b5061026d61035e366004612ae5565b60096020525f908152604090205460ff1681565b6102a1610380366004612ba2565b610bc3565b348015610390575f80fd5b506102a161039f366004612c11565b610d8f565b3480156103af575f80fd5b506102a16103be366004612ae5565b61112e565b3480156103ce575f80fd5b506103e26103dd366004612ae5565b61117e565b6040516102799190612c7f565b3480156103fa575f80fd5b506102a1610409366004612d10565b611265565b348015610419575f80fd5b5061042d610428366004612d65565b611353565b604051908152602001610279565b348015610446575f80fd5b5061026d610455366004612ae5565b60056020525f908152604090205460ff1681565b348015610474575f80fd5b50610488610483366004612ae5565b61137f565b6040516102799190612de9565b3480156104a0575f80fd5b506102a16104af366004612ae5565b611428565b3480156104bf575f80fd5b5061026d6104ce366004612ae5565b6001600160a01b03165f9081526009602052604090205460ff1690565b3480156104f6575f80fd5b506102a16114a1565b34801561050a575f80fd5b506102a1610519366004612ae5565b6114b4565b348015610529575f80fd5b506008546102e1906001600160a01b031681565b348015610548575f80fd5b50610488610557366004612ae5565b611526565b348015610567575f80fd5b506102a16115bd565b34801561057b575f80fd5b506007546102e1906001600160a01b031681565b34801561059a575f80fd5b505f546001600160a01b03166102e1565b3480156105b6575f80fd5b505f61042d565b6102a16105cb366004612c11565b6115c5565b3480156105db575f80fd5b506102a16105ea366004612dfb565b611929565b3480156105fa575f80fd5b506102a1610609366004612ae5565b611962565b348015610619575f80fd5b506102a1610628366004612e2d565b6119f4565b348015610638575f80fd5b506102a1610647366004612e8e565b611cf7565b348015610657575f80fd5b506102a1610666366004612ae5565b611ece565b348015610676575f80fd5b506102a1610685366004612ae5565b611f44565b348015610695575f80fd5b506102a16106a4366004612ecc565b611f94565b8051158015906106bc5750805161271010155b6107085760405162461bcd60e51b815260206004820152601760248201527f496e76616c6964206372617368207468726573686f6c640000000000000000006044820152606401610232565b611388816020015111156107525760405162461bcd60e51b81526020600482015260116024820152700a6d8d2e0e0c2ceca40e8dede40d0d2ced607b1b6044820152606401610232565b60608101516001600160a01b03166107a15760405162461bcd60e51b815260206004820152601260248201527124b73b30b634b21039ba30b13632b1b7b4b760711b6044820152606401610232565b615208816080015110156107eb5760405162461bcd60e51b8152602060048201526011602482015270476173206c696d697420746f6f206c6f7760781b6044820152606401610232565b335f9081526003602090815260409182902083518155818401516001820155918301518051849392610824926002850192910190612868565b5060608201516003820180546001600160a01b0319166001600160a01b0390921691909117905560809091015160049091015560405133907f050f57a2cf116230cdfc2b871f371927e48bd754907a1b462294e7b9a06887ee90610889908490612c7f565b60405180910390a250565b61089c61216b565b6001600160a01b0381166108c25760405162461bcd60e51b815260040161023290612f0c565b600880546001600160a01b0319166001600160a01b0392909216919091179055565b61090c6040518060800160405280606081526020015f81526020015f81526020015f81525090565b6001600160a01b0382165f9081526002602090815260408083208151815460a09481028201850190935260808101838152909491938593919285929185015b828210156109aa575f848152602090819020604080516080810182526004860290920180546001600160a01b03168352600180820154848601526002820154928401929092526003015460ff166060830152908352909201910161094b565b50505050815260200160018201548152602001600282015481526020016003820154815250509050919050565b6109df6121c4565b6001600160a01b0382165f90815260056020526040902054829060ff16610a185760405162461bcd60e51b815260040161023290612f35565b5f8211610a615760405162461bcd60e51b8152602060048201526017602482015276416d6f756e74206d75737420626520706f73697469766560481b6044820152606401610232565b335f9081526004602090815260408083206001600160a01b0387168452909152902054821115610aa35760405162461bcd60e51b815260040161023290612f62565b335f9081526004602090815260408083206001600160a01b038716845290915281208054849290610ad5908490612fa4565b90915550610ae790503384845f61221d565b6001600160a01b038316610b60576040515f90339084908381818185875af1925050503d805f8114610b34576040519150601f19603f3d011682016040523d82523d5f602084013e610b39565b606091505b5050905080610b5a5760405162461bcd60e51b815260040161023290612fb7565b50610b74565b610b746001600160a01b03841633846123e8565b6040518281526001600160a01b0384169033907f6f9cbac839b826cc524f53d10416c053fce34ec15fd1001720e777cc49720e76906020015b60405180910390a350610bbf60018055565b5050565b610bcb6121c4565b6001600160a01b0382165f90815260056020526040902054829060ff16610c045760405162461bcd60e51b815260040161023290612f35565b66038d7ea4c68000821015610c525760405162461bcd60e51b8152602060048201526014602482015273416d6f756e742062656c6f77206d696e696d756d60601b6044820152606401610232565b6001600160a01b038316610caa57813414610ca55760405162461bcd60e51b815260206004820152601360248201527208aa89040c2dadeeadce840dad2e6dac2e8c6d606b1b6044820152606401610232565b610d0d565b3415610cf85760405162461bcd60e51b815260206004820152601a60248201527f455448206e6f7420657870656374656420666f722045524332300000000000006044820152606401610232565b610d0d6001600160a01b03841633308561244b565b335f9081526004602090815260408083206001600160a01b038716845290915281208054849290610d3f908490612fe4565b90915550610d529050338484600161221d565b6040518281526001600160a01b0384169033907f01527be533d184d44e3111afa7800fa60ced6e1b44bd025f8b457deb8ce0ce3590602001610bad565b610d976121c4565b6001600160a01b0384165f90815260056020526040902054849060ff16610dd05760405162461bcd60e51b815260040161023290612f35565b82828080601f0160208091040260200160405190810160405280939291908181526020018383808284375f92019190915250506007546001600160a01b031615801592509050610e8c57506007546040516336bf3c9b60e11b81526001600160a01b0390911690636d7e793690610e4d9033908590600401612ff7565b602060405180830381865afa158015610e68573d5f803e3d5ffd5b505050506040513d601f19601f82011682018060405250810190610e8c9190613042565b610ed85760405162461bcd60e51b815260206004820152601c60248201527f4e6f7420617574686f72697a6564206279204c697420416374696f6e000000006044820152606401610232565b6001600160a01b038716610f255760405162461bcd60e51b8152602060048201526014602482015273496e76616c69642075736572206164647265737360601b6044820152606401610232565b5f8511610f6e5760405162461bcd60e51b8152602060048201526017602482015276416d6f756e74206d75737420626520706f73697469766560481b6044820152606401610232565b6001600160a01b0387165f9081526009602052604090205460ff16610fa55760405162461bcd60e51b81526004016102329061305b565b6001600160a01b038088165f908152600460209081526040808320938a1683529290522054851115610fe95760405162461bcd60e51b815260040161023290612f62565b6001600160a01b038088165f908152600460209081526040808320938a168352929052908120805487929061101f908490612fa4565b9091555061103190508787875f61221d565b6001600160a01b0386166110b5576006546040515f916001600160a01b03169087908381818185875af1925050503d805f8114611089576040519150601f19603f3d011682016040523d82523d5f602084013e61108e565b606091505b50509050806110af5760405162461bcd60e51b815260040161023290612fb7565b506110cf565b6006546110cf906001600160a01b038881169116876123e8565b856001600160a01b0316876001600160a01b03167f6f9cbac839b826cc524f53d10416c053fce34ec15fd1001720e777cc49720e768760405161111491815260200190565b60405180910390a3505061112760018055565b5050505050565b61113661216b565b6001600160a01b03811661115c5760405162461bcd60e51b815260040161023290612f0c565b600680546001600160a01b0319166001600160a01b0392909216919091179055565b6111b56040518060a001604052805f81526020015f8152602001606081526020015f6001600160a01b031681526020015f81525090565b6001600160a01b0382165f90815260036020908152604091829020825160a081018452815481526001820154818401526002820180548551818602810186018752818152929593949386019383018282801561123857602002820191905f5260205f20905b81546001600160a01b0316815260019091019060200180831161121a575b505050918352505060038201546001600160a01b0316602082015260049091015460409091015292915050565b61126d61216b565b6001600160a01b0384165f908152600260205260408120905b815481101561134557846001600160a01b0316825f0182815481106112ad576112ad613092565b5f9182526020909120600490910201546001600160a01b0316036113335783825f0182815481106112e0576112e0613092565b905f5260205f2090600402016002018190555082825f01828154811061130857611308613092565b905f5260205f2090600402016003015f6101000a81548160ff021916908360ff160217905550611345565b8061133d816130a6565b915050611286565b504260029091015550505050565b6001600160a01b038083165f908152600460209081526040808320938516835292905220545b92915050565b6001600160a01b0381165f908152600a602052604090208054606091906113a5906130be565b80601f01602080910402602001604051908101604052809291908181526020018280546113d1906130be565b801561141c5780601f106113f35761010080835404028352916020019161141c565b820191905f5260205f20905b8154815290600101906020018083116113ff57829003601f168201915b50505050509050919050565b61143061216b565b6001600160a01b03811661147e5760405162461bcd60e51b8152602060048201526015602482015274496e76616c696420746f6b656e206164647265737360581b6044820152606401610232565b6001600160a01b03165f908152600560205260409020805460ff19166001179055565b6114a961216b565b6114b25f612489565b565b6114bc61216b565b6001600160a01b0381166115065760405162461bcd60e51b8152602060048201526011602482015270086c2dcdcdee840e4cadadeecca408aa89607b1b6044820152606401610232565b6001600160a01b03165f908152600560205260409020805460ff19169055565b600a6020525f90815260409020805461153e906130be565b80601f016020809104026020016040519081016040528092919081815260200182805461156a906130be565b80156115b55780601f1061158c576101008083540402835291602001916115b5565b820191905f5260205f20905b81548152906001019060200180831161159857829003601f168201915b505050505081565b6114b261216b565b6115cd6121c4565b6001600160a01b0384165f90815260056020526040902054849060ff166116065760405162461bcd60e51b815260040161023290612f35565b82828080601f0160208091040260200160405190810160405280939291908181526020018383808284375f92019190915250506007546001600160a01b0316158015925090506116c257506007546040516336bf3c9b60e11b81526001600160a01b0390911690636d7e7936906116839033908590600401612ff7565b602060405180830381865afa15801561169e573d5f803e3d5ffd5b505050506040513d601f19601f820116820180604052508101906116c29190613042565b61170e5760405162461bcd60e51b815260206004820152601c60248201527f4e6f7420617574686f72697a6564206279204c697420416374696f6e000000006044820152606401610232565b6001600160a01b03871661175b5760405162461bcd60e51b8152602060048201526014602482015273496e76616c69642075736572206164647265737360601b6044820152606401610232565b66038d7ea4c680008510156117a95760405162461bcd60e51b8152602060048201526014602482015273416d6f756e742062656c6f77206d696e696d756d60601b6044820152606401610232565b6001600160a01b0387165f9081526009602052604090205460ff166117e05760405162461bcd60e51b81526004016102329061305b565b6001600160a01b038616611838578434146118335760405162461bcd60e51b815260206004820152601360248201527208aa89040c2dadeeadce840dad2e6dac2e8c6d606b1b6044820152606401610232565b61189b565b34156118865760405162461bcd60e51b815260206004820152601a60248201527f455448206e6f7420657870656374656420666f722045524332300000000000006044820152606401610232565b61189b6001600160a01b03871633308861244b565b6001600160a01b038088165f908152600460209081526040808320938a16835292905290812080548792906118d1908490612fe4565b909155506118e49050878787600161221d565b856001600160a01b0316876001600160a01b03167f01527be533d184d44e3111afa7800fa60ced6e1b44bd025f8b457deb8ce0ce358760405161111491815260200190565b61193161216b565b6001600160a01b039092165f9081526002602081905260409091206001810192909255600382019290925542910155565b6001600160a01b03811633148061198257505f546001600160a01b031633145b6119bf5760405162461bcd60e51b815260206004820152600e60248201526d139bdd08185d5d1a1bdc9a5e995960921b6044820152606401610232565b6001600160a01b0381165f908152600960209081526040808320805460ff19169055600a90915281206119f1916128cb565b50565b6001600160a01b038416331480611a1457505f546001600160a01b031633145b611a515760405162461bcd60e51b815260206004820152600e60248201526d139bdd08185d5d1a1bdc9a5e995960921b6044820152606401610232565b6001600160a01b038316611a9d5760405162461bcd60e51b8152602060048201526013602482015272496e76616c696420504b50206164647265737360681b6044820152606401610232565b80611ae25760405162461bcd60e51b8152602060048201526015602482015274125b9d985b1a5908131a5d081058dd1a5bdb881251605a1b6044820152606401610232565b6008546001600160a01b031615611ba0576008546040516312b008cb60e31b81526001600160a01b03858116600483015290911690639580465890602401602060405180830381865afa158015611b3b573d5f803e3d5ffd5b505050506040513d601f19601f82011682018060405250810190611b5f9190613042565b611ba05760405162461bcd60e51b81526020600482015260126024820152711412d4081b9bdd081c9959da5cdd195c995960721b6044820152606401610232565b6007546001600160a01b031615611cc05760075460405163996c5d1f60e01b81526001600160a01b0386811660048301525f92169063996c5d1f906024015f60405180830381865afa158015611bf8573d5f803e3d5ffd5b505050506040513d5f823e601f3d908101601f19168201604052611c1f91908101906130f6565b9050836001600160a01b0316815f01516001600160a01b031614611c7c5760405162461bcd60e51b81526020600482015260146024820152730a096a040c2c8c8e4cae6e640dad2e6dac2e8c6d60631b6044820152606401610232565b8060600151611cbe5760405162461bcd60e51b815260206004820152600e60248201526d504b50206e6f742061637469766560901b6044820152606401610232565b505b6001600160a01b0384165f908152600960209081526040808320805460ff19166001179055600a9091529020611127828483613227565b6006546001600160a01b03163314611d4b5760405162461bcd60e51b815260206004820152601760248201527627b7363c9032b6b2b933b2b731bc9032bc32b1baba37b960491b6044820152606401610232565b611d536121c4565b6001600160a01b038084165f90815260046020908152604080832093861683529290522054811115611d975760405162461bcd60e51b815260040161023290612f62565b6001600160a01b038084165f90815260046020908152604080832093861683529290529081208054839290611dcd908490612fa4565b90915550611ddf90508383835f61221d565b6001600160a01b038216611e63576006546040515f916001600160a01b03169083908381818185875af1925050503d805f8114611e37576040519150601f19603f3d011682016040523d82523d5f602084013e611e3c565b606091505b5050905080611e5d5760405162461bcd60e51b815260040161023290612fb7565b50611e7d565b600654611e7d906001600160a01b038481169116836123e8565b826001600160a01b03167fbbce1e7412840ff8ccaa0aaa3ae8cf85526e94324ceb93e6397be8ef0e475e5042604051611eb891815260200190565b60405180910390a2611ec960018055565b505050565b611ed661216b565b6001600160a01b038116611f3b5760405162461bcd60e51b815260206004820152602660248201527f4f776e61626c653a206e6577206f776e657220697320746865207a65726f206160448201526564647265737360d01b6064820152608401610232565b6119f181612489565b611f4c61216b565b6001600160a01b038116611f725760405162461bcd60e51b815260040161023290612f0c565b600780546001600160a01b0319166001600160a01b0392909216919091179055565b6006546001600160a01b03163314611fe85760405162461bcd60e51b815260206004820152601760248201527627b7363c9032b6b2b933b2b731bc9032bc32b1baba37b960491b6044820152606401610232565b5f838152600b602052604090205460ff16156120465760405162461bcd60e51b815260206004820152601b60248201527f457865637574696f6e20616c72656164792070726f63657373656400000000006044820152606401610232565b6001600160a01b0384165f9081526009602052604090205460ff1661207d5760405162461bcd60e51b81526004016102329061305b565b818160405161208d9291906132e2565b604080519182900382206001600160a01b0387165f908152600a6020529190912090916120ba91906132f1565b6040518091039020146121085760405162461bcd60e51b8152602060048201526016602482015275098d2e84082c6e8d2dedc40928840dad2e6dac2e8c6d60531b6044820152606401610232565b5f838152600b602052604090819020805460ff19166001179055516001600160a01b038516907fbbce1e7412840ff8ccaa0aaa3ae8cf85526e94324ceb93e6397be8ef0e475e509061215d9042815260200190565b60405180910390a250505050565b5f546001600160a01b031633146114b25760405162461bcd60e51b815260206004820181905260248201527f4f776e61626c653a2063616c6c6572206973206e6f7420746865206f776e65726044820152606401610232565b6002600154036122165760405162461bcd60e51b815260206004820152601f60248201527f5265656e7472616e637947756172643a207265656e7472616e742063616c6c006044820152606401610232565b6002600155565b6001600160a01b0384165f90815260026020526040812090805b825481101561234557856001600160a01b0316835f01828154811061225e5761225e613092565b5f9182526020909120600490910201546001600160a01b0316036123335783156122bf5784835f01828154811061229757612297613092565b905f5260205f2090600402016001015f8282546122b49190612fe4565b9091555061232a9050565b84835f0182815481106122d4576122d4613092565b905f5260205f2090600402016001015f8282546122f19190612fa4565b9091555050825483908290811061230a5761230a613092565b905f5260205f209060040201600101545f0361232a5761232a83826124d8565b60019150612345565b8061233d816130a6565b915050612237565b50801580156123515750825b1561134557604080516080810182526001600160a01b03878116825260208083018881525f94840185815260016060860181815289548083018b558a8952949097209551600490940290950180546001600160a01b0319169390941692909217835551928201929092559051600282015590516003909101805460ff191660ff909216919091179055504260029091015550505050565b6040516001600160a01b038316602482015260448101829052611ec990849063a9059cbb60e01b906064015b60408051601f198184030181529190526020810180516001600160e01b03166001600160e01b03199093169290921790915261260b565b6040516001600160a01b03808516602483015283166044820152606481018290526124839085906323b872dd60e01b90608401612414565b50505050565b5f80546001600160a01b038381166001600160a01b0319831681178455604051919092169283917f8be0079c531659141344cd1fd0a4f28419497f9722a3daafe3b4186f6b6457e09190a35050565b8154811061251e5760405162461bcd60e51b8152602060048201526013602482015272496e646578206f7574206f6620626f756e647360681b6044820152606401610232565b8154829061252e90600190612fa4565b8154811061253e5761253e613092565b905f5260205f209060040201825f01828154811061255e5761255e613092565b5f9182526020909120825460049092020180546001600160a01b0319166001600160a01b0390921691909117815560018083015490820155600280830154908201556003918201549101805460ff191660ff90921691909117905581548290806125ca576125ca613363565b5f8281526020812060045f199093019283020180546001600160a01b0319168155600181018290556002810191909155600301805460ff1916905590555050565b5f61265f826040518060400160405280602081526020017f5361666545524332303a206c6f772d6c6576656c2063616c6c206661696c6564815250856001600160a01b03166126de9092919063ffffffff16565b905080515f148061267f57508080602001905181019061267f9190613042565b611ec95760405162461bcd60e51b815260206004820152602a60248201527f5361666545524332303a204552433230206f7065726174696f6e20646964206e6044820152691bdd081cdd58d8d9595960b21b6064820152608401610232565b60606126ec84845f856126f4565b949350505050565b6060824710156127555760405162461bcd60e51b815260206004820152602660248201527f416464726573733a20696e73756666696369656e742062616c616e636520666f6044820152651c8818d85b1b60d21b6064820152608401610232565b5f80866001600160a01b031685876040516127709190613377565b5f6040518083038185875af1925050503d805f81146127aa576040519150601f19603f3d011682016040523d82523d5f602084013e6127af565b606091505b50915091506127c0878383876127cb565b979650505050505050565b606083156128395782515f03612832576001600160a01b0385163b6128325760405162461bcd60e51b815260206004820152601d60248201527f416464726573733a2063616c6c20746f206e6f6e2d636f6e74726163740000006044820152606401610232565b50816126ec565b6126ec838381511561284e5781518083602001fd5b8060405162461bcd60e51b81526004016102329190612de9565b828054828255905f5260205f209081019282156128bb579160200282015b828111156128bb57825182546001600160a01b0319166001600160a01b03909116178255602090920191600190910190612886565b506128c79291506128fe565b5090565b5080546128d7906130be565b5f825580601f106128e6575050565b601f0160209004905f5260205f20908101906119f191905b5b808211156128c7575f81556001016128ff565b5f60208284031215612922575f80fd5b5035919050565b634e487b7160e01b5f52604160045260245ffd5b60405160a0810167ffffffffffffffff8111828210171561296057612960612929565b60405290565b6040516080810167ffffffffffffffff8111828210171561296057612960612929565b604051601f8201601f1916810167ffffffffffffffff811182821017156129b2576129b2612929565b604052919050565b6001600160a01b03811681146119f1575f80fd5b80356129d9816129ba565b919050565b5f60208083850312156129ef575f80fd5b823567ffffffffffffffff80821115612a06575f80fd5b9084019060a08287031215612a19575f80fd5b612a2161293d565b823581528383013584820152604083013582811115612a3e575f80fd5b8301601f81018813612a4e575f80fd5b803583811115612a6057612a60612929565b8060051b9350612a71868501612989565b818152938201860193868101908a861115612a8a575f80fd5b928701925b85841015612ab45783359250612aa4836129ba565b8282529287019290870190612a8f565b604085015250612ac9915050606084016129ce565b6060820152608083013560808201528094505050505092915050565b5f60208284031215612af5575f80fd5b8135612b00816129ba565b9392505050565b602080825282516080838301819052815160a085018190525f9392830191849160c08701905b80841015612b7757845180516001600160a01b0316835286810151878401526040808201519084015260609081015160ff1690830152938501936001939093019290820190612b2d565b5084880151604088015260408801516060880152606088015182880152809550505050505092915050565b5f8060408385031215612bb3575f80fd5b8235612bbe816129ba565b946020939093013593505050565b5f8083601f840112612bdc575f80fd5b50813567ffffffffffffffff811115612bf3575f80fd5b602083019150836020828501011115612c0a575f80fd5b9250929050565b5f805f805f60808688031215612c25575f80fd5b8535612c30816129ba565b94506020860135612c40816129ba565b935060408601359250606086013567ffffffffffffffff811115612c62575f80fd5b612c6e88828901612bcc565b969995985093965092949392505050565b5f602080835260c08301845182850152818501516040850152604085015160a0606086015281815180845260e08701915084830193505f92505b80831015612ce25783516001600160a01b03168252928401926001929092019190840190612cb9565b5060608701516001600160a01b03811660808801529350608087015160a08701528094505050505092915050565b5f805f8060808587031215612d23575f80fd5b8435612d2e816129ba565b93506020850135612d3e816129ba565b925060408501359150606085013560ff81168114612d5a575f80fd5b939692955090935050565b5f8060408385031215612d76575f80fd5b8235612d81816129ba565b91506020830135612d91816129ba565b809150509250929050565b5f5b83811015612db6578181015183820152602001612d9e565b50505f910152565b5f8151808452612dd5816020860160208601612d9c565b601f01601f19169290920160200192915050565b602081525f612b006020830184612dbe565b5f805f60608486031215612e0d575f80fd5b8335612e18816129ba565b95602085013595506040909401359392505050565b5f805f8060608587031215612e40575f80fd5b8435612e4b816129ba565b93506020850135612e5b816129ba565b9250604085013567ffffffffffffffff811115612e76575f80fd5b612e8287828801612bcc565b95989497509550505050565b5f805f60608486031215612ea0575f80fd5b8335612eab816129ba565b92506020840135612ebb816129ba565b929592945050506040919091013590565b5f805f8060608587031215612edf575f80fd5b8435612eea816129ba565b935060208501359250604085013567ffffffffffffffff811115612e76575f80fd5b6020808252600f908201526e496e76616c6964206164647265737360881b604082015260600190565b602080825260139082015272151bdad95b881b9bdd081cdd5c1c1bdc9d1959606a1b604082015260600190565b602080825260149082015273496e73756666696369656e742062616c616e636560601b604082015260600190565b634e487b7160e01b5f52601160045260245ffd5b8181038181111561137957611379612f90565b602080825260139082015272115512081d1c985b9cd9995c8819985a5b1959606a1b604082015260600190565b8082018082111561137957611379612f90565b6001600160a01b03831681526060602082018190525f9061301a90830184612dbe565b82810360408401525f8152602081019150509392505050565b805180151581146129d9575f80fd5b5f60208284031215613052575f80fd5b612b0082613033565b60208082526017908201527f55736572206e6f7420504b5020617574686f72697a6564000000000000000000604082015260600190565b634e487b7160e01b5f52603260045260245ffd5b5f600182016130b7576130b7612f90565b5060010190565b600181811c908216806130d257607f821691505b6020821081036130f057634e487b7160e01b5f52602260045260245ffd5b50919050565b5f6020808385031215613107575f80fd5b825167ffffffffffffffff8082111561311e575f80fd5b9084019060808287031215613131575f80fd5b613139612966565b8251613144816129ba565b81528284015182811115613156575f80fd5b8301601f81018813613166575f80fd5b80518381111561317857613178612929565b61318a601f8201601f19168701612989565b9350808452888682840101111561319f575f80fd5b6131ae81878601888501612d9c565b50508184820152604083015160408201526131cb60608401613033565b60608201529695505050505050565b601f821115611ec9575f81815260208120601f850160051c810160208610156132005750805b601f850160051c820191505b8181101561321f5782815560010161320c565b505050505050565b67ffffffffffffffff83111561323f5761323f612929565b6132538361324d83546130be565b836131da565b5f601f841160018114613284575f851561326d5750838201355b5f19600387901b1c1916600186901b178355611127565b5f83815260209020601f19861690835b828110156132b45786850135825560209485019460019092019101613294565b50868210156132d0575f1960f88860031b161c19848701351681555b505060018560011b0183555050505050565b818382375f9101908152919050565b5f8083546132fe816130be565b60018281168015613316576001811461332b57613357565b60ff1984168752821515830287019450613357565b875f526020805f205f5b8581101561334e5781548a820152908401908201613335565b50505082870194505b50929695505050505050565b634e487b7160e01b5f52603160045260245ffd5b5f8251613388818460208701612d9c565b919091019291505056fea26469706673582212201a21651de6da51befbe7501d3deba9dbc794568b5b33deaacbb5f87869999d7664736f6c63430008140033",
  "linkReferences": {},
  "deployedLinkReferences": {},
  "immutableReferences": {},
  "inputSourceName": "project/contracts/CrashGuardCore.sol",
  "buildInfoId": "solc-0_8_20-c589a5f438ca614ab53578f9abd03cd0fa8f78bf"
}