{
  "_format": "hh3-artifact-1",
  "contractName": "CrashGuardCore",
  "sourceName": "contracts/CrashGuardCore.sol",
  "abi": [
    {
      "inputs": [],
      "stateMutability": "nonpayable",
      "type": "constructor"
    },
    {
      "inputs": [],
      "name": "AmountMustBePositive",
      "type": "error"
    },
    {
      "inputs": [],
      "name": "CannotRemoveETH",
      "type": "error"
    },
    {
      "inputs": [],
      "name": "DepositAlreadyProcessed",
      "type": "error"
    },
    {
      "inputs": [],
      "name": "ETHAmountMismatch",
      "type": "error"
    },
    {
      "inputs": [],
      "name": "ETHNotExpectedForERC20",
      "type": "error"
    },
    {
      "inputs": [],
      "name": "ETHTransferFailed",
      "type": "error"
    },
    {
      "inputs": [],
      "name": "ExecutionAlreadyProcessed",
      "type": "error"
    },
    {
      "inputs": [],
      "name": "GasLimitTooLow",
      "type": "error"
    },
    {
      "inputs": [],
      "name": "IndexOutOfBounds",
      "type": "error"
    },
    {
      "inputs": [],
      "name": "InsufficientBalance",
      "type": "error"
    },
    {
      "inputs": [],
      "name": "InvalidAddress",
      "type": "error"
    },
    {
      "inputs": [],
      "name": "InvalidBridgeAddress",
      "type": "error"
    },
    {
      "inputs": [],
      "name": "InvalidCrashThreshold",
      "type": "error"
    },
    {
      "inputs": [],
      "name": "InvalidLitActionID",
      "type": "error"
    },
    {
      "inputs": [],
      "name": "InvalidPKPAddress",
      "type": "error"
    },
    {
      "inputs": [],
      "name": "InvalidStablecoin",
      "type": "error"
    },
    {
      "inputs": [],
      "name": "InvalidTokenAddress",
      "type": "error"
    },
    {
      "inputs": [],
      "name": "InvalidUserAddress",
      "type": "error"
    },
    {
      "inputs": [],
      "name": "LitActionIDMismatch",
      "type": "error"
    },
    {
      "inputs": [],
      "name": "MaxSlippageExceeded",
      "type": "error"
    },
    {
      "inputs": [],
      "name": "MinimumStablecoinRequired",
      "type": "error"
    },
    {
      "inputs": [],
      "name": "MinimumTokenRequired",
      "type": "error"
    },
    {
      "inputs": [],
      "name": "NotAuthorized",
      "type": "error"
    },
    {
      "inputs": [],
      "name": "NotAuthorizedByLitAction",
      "type": "error"
    },
    {
      "inputs": [],
      "name": "OnlyEmergencyExecutor",
      "type": "error"
    },
    {
      "inputs": [],
      "name": "PKPAddressMismatch",
      "type": "error"
    },
    {
      "inputs": [],
      "name": "PKPNotActive",
      "type": "error"
    },
    {
      "inputs": [],
      "name": "PKPNotRegistered",
      "type": "error"
    },
    {
      "inputs": [],
      "name": "StablecoinNotRegistered",
      "type": "error"
    },
    {
      "inputs": [],
      "name": "TokenBlacklisted",
      "type": "error"
    },
    {
      "inputs": [],
      "name": "TokenNotSupported",
      "type": "error"
    },
    {
      "inputs": [],
      "name": "TokenNotSupportedForStatus",
      "type": "error"
    },
    {
      "inputs": [],
      "name": "UnauthorizedBridge",
      "type": "error"
    },
    {
      "inputs": [],
      "name": "UserNotPKPAuthorized",
      "type": "error"
    },
    {
      "anonymous": false,
      "inputs": [
        {
          "indexed": true,
          "internalType": "address",
          "name": "user",
          "type": "address"
        },
        {
          "indexed": true,
          "internalType": "address",
          "name": "token",
          "type": "address"
        },
        {
          "indexed": false,
          "internalType": "uint256",
          "name": "amount",
          "type": "uint256"
        }
      ],
      "name": "AssetDeposited",
      "type": "event"
    },
    {
      "anonymous": false,
      "inputs": [
        {
          "indexed": true,
          "internalType": "address",
          "name": "user",
          "type": "address"
        },
        {
          "indexed": true,
          "internalType": "address",
          "name": "token",
          "type": "address"
        },
        {
          "indexed": false,
          "internalType": "uint256",
          "name": "amount",
          "type": "uint256"
        }
      ],
      "name": "AssetWithdrawn",
      "type": "event"
    },
    {
      "anonymous": false,
      "inputs": [
        {
          "indexed": true,
          "internalType": "address",
          "name": "bridge",
          "type": "address"
        },
        {
          "indexed": false,
          "internalType": "bool",
          "name": "authorized",
          "type": "bool"
        }
      ],
      "name": "BridgeAuthorizationUpdated",
      "type": "event"
    },
    {
      "anonymous": false,
      "inputs": [
        {
          "indexed": true,
          "internalType": "address",
          "name": "user",
          "type": "address"
        },
        {
          "indexed": true,
          "internalType": "address",
          "name": "token",
          "type": "address"
        },
        {
          "indexed": false,
          "internalType": "uint256",
          "name": "amount",
          "type": "uint256"
        },
        {
          "indexed": true,
          "internalType": "uint256",
          "name": "sourceChain",
          "type": "uint256"
        },
        {
          "indexed": false,
          "internalType": "bytes32",
          "name": "depositHash",
          "type": "bytes32"
        }
      ],
      "name": "CrossChainDepositProcessed",
      "type": "event"
    },
    {
      "anonymous": false,
      "inputs": [
        {
          "indexed": true,
          "internalType": "address",
          "name": "user",
          "type": "address"
        },
        {
          "indexed": false,
          "internalType": "uint256",
          "name": "timestamp",
          "type": "uint256"
        }
      ],
      "name": "EmergencyProtectionTriggered",
      "type": "event"
    },
    {
      "anonymous": false,
      "inputs": [
        {
          "indexed": true,
          "internalType": "address",
          "name": "previousOwner",
          "type": "address"
        },
        {
          "indexed": true,
          "internalType": "address",
          "name": "newOwner",
          "type": "address"
        }
      ],
      "name": "OwnershipTransferred",
      "type": "event"
    },
    {
      "anonymous": false,
      "inputs": [
        {
          "indexed": false,
          "internalType": "bool",
          "name": "enabled",
          "type": "bool"
        }
      ],
      "name": "PermissionlessModeUpdated",
      "type": "event"
    },
    {
      "anonymous": false,
      "inputs": [
        {
          "indexed": true,
          "internalType": "address",
          "name": "user",
          "type": "address"
        },
        {
          "components": [
            {
              "internalType": "uint256",
              "name": "crashThreshold",
              "type": "uint256"
            },
            {
              "internalType": "uint256",
              "name": "maxSlippage",
              "type": "uint256"
            },
            {
              "internalType": "address[]",
              "name": "emergencyActions",
              "type": "address[]"
            },
            {
              "internalType": "address",
              "name": "stablecoinPreference",
              "type": "address"
            },
            {
              "internalType": "uint256",
              "name": "gasLimit",
              "type": "uint256"
            }
          ],
          "indexed": false,
          "internalType": "struct ICrashGuardCore.ProtectionPolicy",
          "name": "policy",
          "type": "tuple"
        }
      ],
      "name": "PolicyUpdated",
      "type": "event"
    },
    {
      "anonymous": false,
      "inputs": [
        {
          "indexed": true,
          "internalType": "address",
          "name": "token",
          "type": "address"
        },
        {
          "indexed": false,
          "internalType": "string",
          "name": "symbol",
          "type": "string"
        }
      ],
      "name": "StablecoinAutoDetected",
      "type": "event"
    },
    {
      "anonymous": false,
      "inputs": [
        {
          "indexed": true,
          "internalType": "address",
          "name": "token",
          "type": "address"
        },
        {
          "indexed": false,
          "internalType": "bool",
          "name": "blacklisted",
          "type": "bool"
        }
      ],
      "name": "TokenBlacklistUpdated",
      "type": "event"
    },
    {
      "inputs": [],
      "name": "MAX_SLIPPAGE_LIMIT",
      "outputs": [
        {
          "internalType": "uint256",
          "name": "",
          "type": "uint256"
        }
      ],
      "stateMutability": "view",
      "type": "function"
    },
    {
      "inputs": [],
      "name": "MIN_STABLECOIN_DEPOSIT",
      "outputs": [
        {
          "internalType": "uint256",
          "name": "",
          "type": "uint256"
        }
      ],
      "stateMutability": "view",
      "type": "function"
    },
    {
      "inputs": [],
      "name": "MIN_TOKEN_DEPOSIT",
      "outputs": [
        {
          "internalType": "uint256",
          "name": "",
          "type": "uint256"
        }
      ],
      "stateMutability": "view",
      "type": "function"
    },
    {
      "inputs": [
        {
          "internalType": "address",
          "name": "token",
          "type": "address"
        },
        {
          "internalType": "bool",
          "name": "_isStablecoin",
          "type": "bool"
        }
      ],
      "name": "addSupportedToken",
      "outputs": [],
      "stateMutability": "nonpayable",
      "type": "function"
    },
    {
      "inputs": [
        {
          "internalType": "address",
          "name": "",
          "type": "address"
        }
      ],
      "name": "authorizedBridges",
      "outputs": [
        {
          "internalType": "bool",
          "name": "",
          "type": "bool"
        }
      ],
      "stateMutability": "view",
      "type": "function"
    },
    {
      "inputs": [
        {
          "internalType": "address",
          "name": "",
          "type": "address"
        }
      ],
      "name": "blacklistedTokens",
      "outputs": [
        {
          "internalType": "bool",
          "name": "",
          "type": "bool"
        }
      ],
      "stateMutability": "view",
      "type": "function"
    },
    {
      "inputs": [
        {
          "internalType": "address",
          "name": "user",
          "type": "address"
        },
        {
          "internalType": "address",
          "name": "token",
          "type": "address"
        },
        {
          "internalType": "uint256",
          "name": "amount",
          "type": "uint256"
        },
        {
          "internalType": "uint256",
          "name": "sourceChain",
          "type": "uint256"
        },
        {
          "internalType": "bytes32",
          "name": "depositHash",
          "type": "bytes32"
        }
      ],
      "name": "crossChainDeposit",
      "outputs": [],
      "stateMutability": "nonpayable",
      "type": "function"
    },
    {
      "inputs": [
        {
          "internalType": "address",
          "name": "token",
          "type": "address"
        },
        {
          "internalType": "uint256",
          "name": "amount",
          "type": "uint256"
        }
      ],
      "name": "depositAsset",
      "outputs": [],
      "stateMutability": "payable",
      "type": "function"
    },
    {
      "inputs": [],
      "name": "emergencyExecutor",
      "outputs": [
        {
          "internalType": "address",
          "name": "",
          "type": "address"
        }
      ],
      "stateMutability": "view",
      "type": "function"
    },
    {
      "inputs": [
        {
          "internalType": "address",
          "name": "user",
          "type": "address"
        },
        {
          "internalType": "address",
          "name": "token",
          "type": "address"
        },
        {
          "internalType": "uint256",
          "name": "amount",
          "type": "uint256"
        }
      ],
      "name": "emergencyWithdraw",
      "outputs": [],
      "stateMutability": "nonpayable",
      "type": "function"
    },
    {
      "inputs": [
        {
          "internalType": "address",
          "name": "user",
          "type": "address"
        }
      ],
      "name": "getProtectionPolicy",
      "outputs": [
        {
          "components": [
            {
              "internalType": "uint256",
              "name": "crashThreshold",
              "type": "uint256"
            },
            {
              "internalType": "uint256",
              "name": "maxSlippage",
              "type": "uint256"
            },
            {
              "internalType": "address[]",
              "name": "emergencyActions",
              "type": "address[]"
            },
            {
              "internalType": "address",
              "name": "stablecoinPreference",
              "type": "address"
            },
            {
              "internalType": "uint256",
              "name": "gasLimit",
              "type": "uint256"
            }
          ],
          "internalType": "struct ICrashGuardCore.ProtectionPolicy",
          "name": "",
          "type": "tuple"
        }
      ],
      "stateMutability": "view",
      "type": "function"
    },
    {
      "inputs": [
        {
          "internalType": "address",
          "name": "token",
          "type": "address"
        }
      ],
      "name": "getTokenInfo",
      "outputs": [
        {
          "internalType": "bool",
          "name": "supported",
          "type": "bool"
        },
        {
          "internalType": "bool",
          "name": "stablecoin",
          "type": "bool"
        },
        {
          "internalType": "bool",
          "name": "blacklisted",
          "type": "bool"
        }
      ],
      "stateMutability": "view",
      "type": "function"
    },
    {
      "inputs": [],
      "name": "getTotalUsers",
      "outputs": [
        {
          "internalType": "uint256",
          "name": "",
          "type": "uint256"
        }
      ],
      "stateMutability": "view",
      "type": "function"
    },
    {
      "inputs": [
        {
          "internalType": "address",
          "name": "user",
          "type": "address"
        },
        {
          "internalType": "address",
          "name": "token",
          "type": "address"
        }
      ],
      "name": "getUserBalance",
      "outputs": [
        {
          "internalType": "uint256",
          "name": "",
          "type": "uint256"
        }
      ],
      "stateMutability": "view",
      "type": "function"
    },
    {
      "inputs": [
        {
          "internalType": "address",
          "name": "user",
          "type": "address"
        }
      ],
      "name": "getUserLitAction",
      "outputs": [
        {
          "internalType": "string",
          "name": "",
          "type": "string"
        }
      ],
      "stateMutability": "view",
      "type": "function"
    },
    {
      "inputs": [
        {
          "internalType": "address",
          "name": "user",
          "type": "address"
        }
      ],
      "name": "getUserPortfolio",
      "outputs": [
        {
          "components": [
            {
              "components": [
                {
                  "internalType": "address",
                  "name": "tokenAddress",
                  "type": "address"
                },
                {
                  "internalType": "uint256",
                  "name": "amount",
                  "type": "uint256"
                },
                {
                  "internalType": "uint256",
                  "name": "valueUSD",
                  "type": "uint256"
                },
                {
                  "internalType": "uint8",
                  "name": "riskLevel",
                  "type": "uint8"
                }
              ],
              "internalType": "struct ICrashGuardCore.Asset[]",
              "name": "assets",
              "type": "tuple[]"
            },
            {
              "internalType": "uint256",
              "name": "totalValue",
              "type": "uint256"
            },
            {
              "internalType": "uint256",
              "name": "lastUpdated",
              "type": "uint256"
            },
            {
              "internalType": "uint256",
              "name": "riskScore",
              "type": "uint256"
            }
          ],
          "internalType": "struct ICrashGuardCore.Portfolio",
          "name": "",
          "type": "tuple"
        }
      ],
      "stateMutability": "view",
      "type": "function"
    },
    {
      "inputs": [
        {
          "internalType": "address",
          "name": "user",
          "type": "address"
        }
      ],
      "name": "isPKPAuthorized",
      "outputs": [
        {
          "internalType": "bool",
          "name": "",
          "type": "bool"
        }
      ],
      "stateMutability": "view",
      "type": "function"
    },
    {
      "inputs": [
        {
          "internalType": "address",
          "name": "",
          "type": "address"
        }
      ],
      "name": "isStablecoin",
      "outputs": [
        {
          "internalType": "bool",
          "name": "",
          "type": "bool"
        }
      ],
      "stateMutability": "view",
      "type": "function"
    },
    {
      "inputs": [
        {
          "internalType": "address",
          "name": "token",
          "type": "address"
        }
      ],
      "name": "isTokenSupported",
      "outputs": [
        {
          "internalType": "bool",
          "name": "",
          "type": "bool"
        }
      ],
      "stateMutability": "view",
      "type": "function"
    },
    {
      "inputs": [],
      "name": "litProtocolIntegration",
      "outputs": [
        {
          "internalType": "contract ILitProtocolIntegration",
          "name": "",
          "type": "address"
        }
      ],
      "stateMutability": "view",
      "type": "function"
    },
    {
      "inputs": [],
      "name": "litRelayContract",
      "outputs": [
        {
          "internalType": "contract ILitRelayContract",
          "name": "",
          "type": "address"
        }
      ],
      "stateMutability": "view",
      "type": "function"
    },
    {
      "inputs": [],
      "name": "owner",
      "outputs": [
        {
          "internalType": "address",
          "name": "",
          "type": "address"
        }
      ],
      "stateMutability": "view",
      "type": "function"
    },
    {
      "inputs": [],
      "name": "pause",
      "outputs": [],
      "stateMutability": "nonpayable",
      "type": "function"
    },
    {
      "inputs": [],
      "name": "permissionlessMode",
      "outputs": [
        {
          "internalType": "bool",
          "name": "",
          "type": "bool"
        }
      ],
      "stateMutability": "view",
      "type": "function"
    },
    {
      "inputs": [
        {
          "internalType": "address",
          "name": "",
          "type": "address"
        }
      ],
      "name": "pkpAuthorizedUsers",
      "outputs": [
        {
          "internalType": "bool",
          "name": "",
          "type": "bool"
        }
      ],
      "stateMutability": "view",
      "type": "function"
    },
    {
      "inputs": [
        {
          "internalType": "address",
          "name": "user",
          "type": "address"
        },
        {
          "internalType": "address",
          "name": "token",
          "type": "address"
        },
        {
          "internalType": "uint256",
          "name": "amount",
          "type": "uint256"
        },
        {
          "internalType": "string",
          "name": "litActionId",
          "type": "string"
        }
      ],
      "name": "pkpDepositAsset",
      "outputs": [],
      "stateMutability": "payable",
      "type": "function"
    },
    {
      "inputs": [
        {
          "internalType": "address",
          "name": "user",
          "type": "address"
        },
        {
          "internalType": "address",
          "name": "token",
          "type": "address"
        },
        {
          "internalType": "uint256",
          "name": "amount",
          "type": "uint256"
        },
        {
          "internalType": "string",
          "name": "litActionId",
          "type": "string"
        }
      ],
      "name": "pkpWithdrawAsset",
      "outputs": [],
      "stateMutability": "nonpayable",
      "type": "function"
    },
    {
      "inputs": [
        {
          "internalType": "address",
          "name": "user",
          "type": "address"
        },
        {
          "internalType": "bytes32",
          "name": "executionHash",
          "type": "bytes32"
        },
        {
          "internalType": "string",
          "name": "litActionId",
          "type": "string"
        }
      ],
      "name": "processLitActionExecution",
      "outputs": [],
      "stateMutability": "nonpayable",
      "type": "function"
    },
    {
      "inputs": [
        {
          "internalType": "bytes32",
          "name": "",
          "type": "bytes32"
        }
      ],
      "name": "processedCrossChainDeposits",
      "outputs": [
        {
          "internalType": "bool",
          "name": "",
          "type": "bool"
        }
      ],
      "stateMutability": "view",
      "type": "function"
    },
    {
      "inputs": [
        {
          "internalType": "bytes32",
          "name": "",
          "type": "bytes32"
        }
      ],
      "name": "processedLitActionExecutions",
      "outputs": [
        {
          "internalType": "bool",
          "name": "",
          "type": "bool"
        }
      ],
      "stateMutability": "view",
      "type": "function"
    },
    {
      "inputs": [
        {
          "internalType": "address",
          "name": "token",
          "type": "address"
        }
      ],
      "name": "removeSupportedToken",
      "outputs": [],
      "stateMutability": "nonpayable",
      "type": "function"
    },
    {
      "inputs": [],
      "name": "renounceOwnership",
      "outputs": [],
      "stateMutability": "nonpayable",
      "type": "function"
    },
    {
      "inputs": [
        {
          "internalType": "address",
          "name": "user",
          "type": "address"
        }
      ],
      "name": "revokePKPAuthorization",
      "outputs": [],
      "stateMutability": "nonpayable",
      "type": "function"
    },
    {
      "inputs": [
        {
          "internalType": "address",
          "name": "bridge",
          "type": "address"
        },
        {
          "internalType": "bool",
          "name": "authorized",
          "type": "bool"
        }
      ],
      "name": "setAuthorizedBridge",
      "outputs": [],
      "stateMutability": "nonpayable",
      "type": "function"
    },
    {
      "inputs": [
        {
          "internalType": "address",
          "name": "_emergencyExecutor",
          "type": "address"
        }
      ],
      "name": "setEmergencyExecutor",
      "outputs": [],
      "stateMutability": "nonpayable",
      "type": "function"
    },
    {
      "inputs": [
        {
          "internalType": "address",
          "name": "_litProtocolIntegration",
          "type": "address"
        }
      ],
      "name": "setLitProtocolIntegration",
      "outputs": [],
      "stateMutability": "nonpayable",
      "type": "function"
    },
    {
      "inputs": [
        {
          "internalType": "address",
          "name": "_litRelayContract",
          "type": "address"
        }
      ],
      "name": "setLitRelayContract",
      "outputs": [],
      "stateMutability": "nonpayable",
      "type": "function"
    },
    {
      "inputs": [
        {
          "internalType": "bool",
          "name": "_permissionless",
          "type": "bool"
        }
      ],
      "name": "setPermissionlessMode",
      "outputs": [],
      "stateMutability": "nonpayable",
      "type": "function"
    },
    {
      "inputs": [
        {
          "components": [
            {
              "internalType": "uint256",
              "name": "crashThreshold",
              "type": "uint256"
            },
            {
              "internalType": "uint256",
              "name": "maxSlippage",
              "type": "uint256"
            },
            {
              "internalType": "address[]",
              "name": "emergencyActions",
              "type": "address[]"
            },
            {
              "internalType": "address",
              "name": "stablecoinPreference",
              "type": "address"
            },
            {
              "internalType": "uint256",
              "name": "gasLimit",
              "type": "uint256"
            }
          ],
          "internalType": "struct ICrashGuardCore.ProtectionPolicy",
          "name": "policy",
          "type": "tuple"
        }
      ],
      "name": "setProtectionPolicy",
      "outputs": [],
      "stateMutability": "nonpayable",
      "type": "function"
    },
    {
      "inputs": [
        {
          "internalType": "address",
          "name": "token",
          "type": "address"
        },
        {
          "internalType": "bool",
          "name": "_isStablecoin",
          "type": "bool"
        }
      ],
      "name": "setStablecoinStatus",
      "outputs": [],
      "stateMutability": "nonpayable",
      "type": "function"
    },
    {
      "inputs": [
        {
          "internalType": "address",
          "name": "token",
          "type": "address"
        },
        {
          "internalType": "bool",
          "name": "blacklisted",
          "type": "bool"
        }
      ],
      "name": "setTokenBlacklist",
      "outputs": [],
      "stateMutability": "nonpayable",
      "type": "function"
    },
    {
      "inputs": [
        {
          "internalType": "address",
          "name": "user",
          "type": "address"
        },
        {
          "internalType": "address",
          "name": "pkpAddress",
          "type": "address"
        },
        {
          "internalType": "string",
          "name": "litActionId",
          "type": "string"
        }
      ],
      "name": "setupPKPAuthorization",
      "outputs": [],
      "stateMutability": "nonpayable",
      "type": "function"
    },
    {
      "inputs": [
        {
          "internalType": "address",
          "name": "",
          "type": "address"
        }
      ],
      "name": "supportedTokens",
      "outputs": [
        {
          "internalType": "bool",
          "name": "",
          "type": "bool"
        }
      ],
      "stateMutability": "view",
      "type": "function"
    },
    {
      "inputs": [
        {
          "internalType": "address",
          "name": "newOwner",
          "type": "address"
        }
      ],
      "name": "transferOwnership",
      "outputs": [],
      "stateMutability": "nonpayable",
      "type": "function"
    },
    {
      "inputs": [
        {
          "internalType": "address",
          "name": "user",
          "type": "address"
        },
        {
          "internalType": "address",
          "name": "token",
          "type": "address"
        },
        {
          "internalType": "uint256",
          "name": "valueUSD",
          "type": "uint256"
        },
        {
          "internalType": "uint8",
          "name": "riskLevel",
          "type": "uint8"
        }
      ],
      "name": "updateAssetValue",
      "outputs": [],
      "stateMutability": "nonpayable",
      "type": "function"
    },
    {
      "inputs": [
        {
          "internalType": "address",
          "name": "user",
          "type": "address"
        },
        {
          "internalType": "uint256",
          "name": "totalValue",
          "type": "uint256"
        },
        {
          "internalType": "uint256",
          "name": "riskScore",
          "type": "uint256"
        }
      ],
      "name": "updatePortfolioValue",
      "outputs": [],
      "stateMutability": "nonpayable",
      "type": "function"
    },
    {
      "inputs": [
        {
          "internalType": "address",
          "name": "",
          "type": "address"
        }
      ],
      "name": "userLitActions",
      "outputs": [
        {
          "internalType": "string",
          "name": "",
          "type": "string"
        }
      ],
      "stateMutability": "view",
      "type": "function"
    },
    {
      "inputs": [
        {
          "internalType": "address",
          "name": "token",
          "type": "address"
        },
        {
          "internalType": "uint256",
          "name": "amount",
          "type": "uint256"
        }
      ],
      "name": "withdrawAsset",
      "outputs": [],
      "stateMutability": "nonpayable",
      "type": "function"
    },
    {
      "stateMutability": "payable",
      "type": "receive"
    }
  ],
  "bytecode": "0x60806040526006805460ff191660011790553480156200001d575f80fd5b50620000293362000076565b60018080555f805260056020527f05b8ccbb9d4d8fb16ea74ce3c29a41f1b461fbdaff4714a0d9a8eb05499746bc805460ff199081168317909155600680549091169091179055620000c5565b5f80546001600160a01b038381166001600160a01b0319831681178455604051919092169283917f8be0079c531659141344cd1fd0a4f28419497f9722a3daafe3b4186f6b6457e09190a35050565b613e5780620000d35f395ff3fe60806040526004361061028e575f3560e01c8063715018a611610155578063a24e6c5d116100be578063dfa2c0c211610078578063dfa2c0c214610893578063e5d07756146108c1578063e63ea408146108e0578063f2fde38b146108ff578063f41d55881461091e578063ffe744e61461093d575f80fd5b8063a24e6c5d146107f0578063a38148b91461080a578063a844b1571461081d578063b0eb9ad61461083c578063d4b4030a1461085b578063dcdf14021461087a575f80fd5b8063834a0e0d1161010f578063834a0e0d146107515780638456cb591461077057806385202e4d146107845780638da5cb5b146107a3578063980b5ead146107bf5780639be572f6146107de575f80fd5b8063715018a6146106ab57806372a4acb8146106bf57806373898322146106de57806375151b63146106f4578063763191901461071357806377e4f25814610732575f80fd5b806346a5d043116101f7578063657a659b116101b1578063657a659b146105ae5780636805d6ad146105cd57806368c4ac26146105ec5780636ad2a55a1461061a5780636fc063be146106465780636fda301d14610674575f80fd5b806346a5d043146104e457806346badd32146104f7578063485b1c72146105165780635b0788f2146105355780635c8b5f44146105615780635fe63b2b1461058f575f80fd5b80631f69565f116102485780631f69565f146103f85780631ff0769a146104365780632bf0edee14610455578063348ddac91461047857806338e4f0641461049757806345e0805b146104b6575f80fd5b806308b7538d146102e45780630a874d54146103275780630f2381bb14610348578063189fa7a2146103675780631a650cc71461039e5780631edb27e9146103cc575f80fd5b366102e05760405162461bcd60e51b815260206004820152601960248201527f557365206465706f73697441737365742066756e6374696f6e0000000000000060448201526064015b60405180910390fd5b5f80fd5b3480156102ef575f80fd5b506103126102fe36600461333e565b600f6020525f908152604090205460ff1681565b60405190151581526020015b60405180910390f35b348015610332575f80fd5b50610346610341366004613405565b61095c565b005b348015610353575f80fd5b5061034661036236600461350c565b610ae8565b348015610372575f80fd5b50600854610386906001600160a01b031681565b6040516001600160a01b03909116815260200161031e565b3480156103a9575f80fd5b506103126103b836600461350c565b60106020525f908152604090205460ff1681565b3480156103d7575f80fd5b506103eb6103e636600461350c565b610b38565b60405161031e9190613527565b348015610403575f80fd5b5061041761041236600461350c565b610c2b565b604080519315158452911515602084015215159082015260600161031e565b348015610441575f80fd5b506103466104503660046135cf565b610cb2565b348015610460575f80fd5b5061046a61138881565b60405190815260200161031e565b348015610483575f80fd5b50610346610492366004613606565b610d19565b3480156104a2575f80fd5b506103466104b1366004613621565b610d68565b3480156104c1575f80fd5b506103126104d036600461350c565b600d6020525f908152604090205460ff1681565b6103466104f2366004613621565b610f76565b348015610502575f80fd5b50610346610511366004613690565b611016565b348015610521575f80fd5b5061034661053036600461350c565b611425565b348015610540575f80fd5b5061055461054f36600461350c565b611475565b60405161031e91906136fe565b34801561056c575f80fd5b5061031261057b36600461350c565b60076020525f908152604090205460ff1681565b34801561059a575f80fd5b506103466105a93660046135cf565b61155c565b3480156105b9575f80fd5b506103466105c836600461378f565b6115e2565b3480156105d8575f80fd5b5061046a6105e73660046137e4565b6116d0565b3480156105f7575f80fd5b5061031261060636600461350c565b60056020525f908152604090205460ff1681565b348015610625575f80fd5b5061063961063436600461350c565b6116fc565b60405161031e919061385d565b348015610651575f80fd5b5061031261066036600461350c565b600b6020525f908152604090205460ff1681565b34801561067f575f80fd5b5061031261068e36600461350c565b6001600160a01b03165f908152600d602052604090205460ff1690565b3480156106b6575f80fd5b506103466117a5565b3480156106ca575f80fd5b506103466106d93660046135cf565b6117b8565b3480156106e9575f80fd5b5061046a620f424081565b3480156106ff575f80fd5b5061031261070e36600461350c565b611847565b34801561071e575f80fd5b5061034661072d36600461350c565b611896565b34801561073d575f80fd5b50600a54610386906001600160a01b031681565b34801561075c575f80fd5b5061063961076b36600461350c565b6118fa565b34801561077b575f80fd5b50610346611991565b34801561078f575f80fd5b50600954610386906001600160a01b031681565b3480156107ae575f80fd5b505f546001600160a01b0316610386565b3480156107ca575f80fd5b506103466107d936600461386f565b611999565b3480156107e9575f80fd5b505f61046a565b3480156107fb575f80fd5b5061046a662386f26fc1000081565b610346610818366004613690565b611b2d565b348015610828575f80fd5b506103466108373660046138bc565b611f2f565b348015610847575f80fd5b5061034661085636600461350c565b611f68565b348015610866575f80fd5b506103466108753660046138ee565b611ffa565b348015610885575f80fd5b506006546103129060ff1681565b34801561089e575f80fd5b506103126108ad36600461333e565b600c6020525f908152604090205460ff1681565b3480156108cc575f80fd5b506103466108db3660046135cf565b6122fd565b3480156108eb575f80fd5b506103466108fa36600461394f565b61236e565b34801561090a575f80fd5b5061034661091936600461350c565b612568565b348015610929575f80fd5b5061034661093836600461350c565b6125de565b348015610948575f80fd5b5061034661095736600461398d565b61262e565b8051158061096c57508051612710105b1561098a57604051631357563f60e01b815260040160405180910390fd5b611388816020015111156109b157604051637546bf8160e11b815260040160405180910390fd5b60608101516001600160a01b03166109dc57604051632945604560e11b815260040160405180910390fd5b60608101516001600160a01b03165f9081526010602052604090205460ff16610a1857604051631272e6ff60e21b815260040160405180910390fd5b61520881608001511015610a3f576040516376a1e1d360e11b815260040160405180910390fd5b335f9081526003602090815260409182902083518155818401516001820155918301518051849392610a78926002850192910190613294565b5060608201516003820180546001600160a01b0319166001600160a01b0390921691909117905560809091015160049091015560405133907f050f57a2cf116230cdfc2b871f371927e48bd754907a1b462294e7b9a06887ee90610add9084906136fe565b60405180910390a250565b610af06127db565b6001600160a01b038116610b165760405162461bcd60e51b81526004016102d7906139cd565b600a80546001600160a01b0319166001600160a01b0392909216919091179055565b610b606040518060800160405280606081526020015f81526020015f81526020015f81525090565b6001600160a01b0382165f9081526002602090815260408083208151815460a09481028201850190935260808101838152909491938593919285929185015b82821015610bfe575f848152602090819020604080516080810182526004860290920180546001600160a01b03168352600180820154848601526002820154928401929092526003015460ff1660608301529083529092019101610b9f565b50505050815260200160018201548152602001600282015481526020016003820154815250509050919050565b6006545f908190819060ff1615610c5f576001600160a01b0384165f9081526007602052604090205460ff16159250610c7d565b6001600160a01b0384165f9081526005602052604090205460ff1692505b50506001600160a01b039091165f90815260106020908152604080832054600790925290912054919260ff9182169290911690565b610cba6127db565b6001600160a01b0382165f81815260076020908152604091829020805460ff191685151590811790915591519182527fafac0f1e9a5867936a9d78400aa1c18ec2407d65c55d1207afb913470c4e363991015b60405180910390a25050565b610d216127db565b6006805460ff19168215159081179091556040519081527f90d2b4c24b444f232cd1319daf88a4c8dae02a35bfdc1623895d0e0c8476d4fb9060200160405180910390a150565b610d70612834565b600654829060ff1615610dbb576001600160a01b0381165f9081526007602052604090205460ff1615610db6576040516388a9dff160e01b815260040160405180910390fd5b610df3565b6001600160a01b0381165f9081526005602052604090205460ff16610df357604051633dd1b30560e01b815260040160405180910390fd5b815f03610e1357604051632e11316f60e11b815260040160405180910390fd5b335f9081526004602090815260408083206001600160a01b0387168452909152902054821115610e5657604051631e9acf1760e31b815260040160405180910390fd5b335f9081526004602090815260408083206001600160a01b038716845290915281208054849290610e88908490613a0a565b90915550610e9a90503384845f61288d565b6001600160a01b038316610f14576040515f90339084908381818185875af1925050503d805f8114610ee7576040519150601f19603f3d011682016040523d82523d5f602084013e610eec565b606091505b5050905080610f0e5760405163b12d13eb60e01b815260040160405180910390fd5b50610f28565b610f286001600160a01b0384163384612a58565b6040518281526001600160a01b0384169033907f6f9cbac839b826cc524f53d10416c053fce34ec15fd1001720e777cc49720e769060200160405180910390a350610f7260018055565b5050565b610f7e612834565b600654829060ff1615610fc9576001600160a01b0381165f9081526007602052604090205460ff1615610fc4576040516388a9dff160e01b815260040160405180910390fd5b611001565b6001600160a01b0381165f9081526005602052604090205460ff1661100157604051633dd1b30560e01b815260040160405180910390fd5b61100c338484612abb565b50610f7260018055565b61101e612834565b600654849060ff1615611069576001600160a01b0381165f9081526007602052604090205460ff1615611064576040516388a9dff160e01b815260040160405180910390fd5b6110a1565b6001600160a01b0381165f9081526005602052604090205460ff166110a157604051633dd1b30560e01b815260040160405180910390fd5b82828080601f0160208091040260200160405190810160405280939291908181526020018383808284375f92019190915250506009546001600160a01b031615915081905061115e57506009546040516336bf3c9b60e11b81526001600160a01b0390911690636d7e79369061111d9033908590600401613a1d565b602060405180830381865afa158015611138573d5f803e3d5ffd5b505050506040513d601f19601f8201168201806040525081019061115c9190613a64565b155b1561117c576040516309cc0e7b60e31b815260040160405180910390fd5b6001600160a01b0387166111c95760405162461bcd60e51b8152602060048201526014602482015273496e76616c69642075736572206164647265737360601b60448201526064016102d7565b5f85116112185760405162461bcd60e51b815260206004820152601760248201527f416d6f756e74206d75737420626520706f73697469766500000000000000000060448201526064016102d7565b6001600160a01b0387165f908152600d602052604090205460ff1661124f5760405162461bcd60e51b81526004016102d790613a7f565b6001600160a01b038088165f908152600460209081526040808320938a16835292905220548511156112ba5760405162461bcd60e51b8152602060048201526014602482015273496e73756666696369656e742062616c616e636560601b60448201526064016102d7565b6001600160a01b038088165f908152600460209081526040808320938a16835292905290812080548792906112f0908490613a0a565b9091555061130290508787875f61288d565b6001600160a01b0386166113ac576008546040515f916001600160a01b03169087908381818185875af1925050503d805f811461135a576040519150601f19603f3d011682016040523d82523d5f602084013e61135f565b606091505b50509050806113a65760405162461bcd60e51b8152602060048201526013602482015272115512081d1c985b9cd9995c8819985a5b1959606a1b60448201526064016102d7565b506113c6565b6008546113c6906001600160a01b03888116911687612a58565b856001600160a01b0316876001600160a01b03167f6f9cbac839b826cc524f53d10416c053fce34ec15fd1001720e777cc49720e768760405161140b91815260200190565b60405180910390a3505061141e60018055565b5050505050565b61142d6127db565b6001600160a01b0381166114535760405162461bcd60e51b81526004016102d7906139cd565b600880546001600160a01b0319166001600160a01b0392909216919091179055565b6114ac6040518060a001604052805f81526020015f8152602001606081526020015f6001600160a01b031681526020015f81525090565b6001600160a01b0382165f90815260036020908152604091829020825160a081018452815481526001820154818401526002820180548551818602810186018752818152929593949386019383018282801561152f57602002820191905f5260205f20905b81546001600160a01b03168152600190910190602001808311611511575b505050918352505060038201546001600160a01b0316602082015260049091015460409091015292915050565b6115646127db565b6001600160a01b03821661158b5760405163e9603e4b60e01b815260040160405180910390fd5b6001600160a01b0382165f818152600b6020908152604091829020805460ff191685151590811790915591519182527f3ff8780ae73c612e2fc7e5294fd63a2c7ec06d181421fc7ca806e531c911fff49101610d0d565b6115ea6127db565b6001600160a01b0384165f908152600260205260408120905b81548110156116c257846001600160a01b0316825f01828154811061162a5761162a613ab6565b5f9182526020909120600490910201546001600160a01b0316036116b05783825f01828154811061165d5761165d613ab6565b905f5260205f2090600402016002018190555082825f01828154811061168557611685613ab6565b905f5260205f2090600402016003015f6101000a81548160ff021916908360ff1602179055506116c2565b806116ba81613aca565b915050611603565b504260029091015550505050565b6001600160a01b038083165f908152600460209081526040808320938516835292905220545b92915050565b6001600160a01b0381165f908152600e6020526040902080546060919061172290613ae2565b80601f016020809104026020016040519081016040528092919081815260200182805461174e90613ae2565b80156117995780601f1061177057610100808354040283529160200191611799565b820191905f5260205f20905b81548152906001019060200180831161177c57829003601f168201915b50505050509050919050565b6117ad6127db565b6117b65f612bec565b565b6117c06127db565b6001600160a01b0382165f9081526005602052604090205460ff1661181d5760405162461bcd60e51b8152602060048201526013602482015272151bdad95b881b9bdd081cdd5c1c1bdc9d1959606a1b60448201526064016102d7565b6001600160a01b03919091165f908152601060205260409020805460ff1916911515919091179055565b6006545f9060ff161561187357506001600160a01b03165f9081526007602052604090205460ff161590565b506001600160a01b03165f9081526005602052604090205460ff1690565b919050565b61189e6127db565b6001600160a01b0381166118c5576040516304e6ee8b60e11b815260040160405180910390fd5b6001600160a01b03165f908152600560209081526040808320805460ff19908116909155601090925290912080549091169055565b600e6020525f90815260409020805461191290613ae2565b80601f016020809104026020016040519081016040528092919081815260200182805461193e90613ae2565b80156119895780601f1061196057610100808354040283529160200191611989565b820191905f5260205f20905b81548152906001019060200180831161196c57829003601f168201915b505050505081565b6117b66127db565b6119a1612834565b600654849060ff16156119ec576001600160a01b0381165f9081526007602052604090205460ff16156119e7576040516388a9dff160e01b815260040160405180910390fd5b611a24565b6001600160a01b0381165f9081526005602052604090205460ff16611a2457604051633dd1b30560e01b815260040160405180910390fd5b335f908152600b602052604090205460ff16611a5357604051631705e4a760e21b815260040160405180910390fd5b5f828152600c602052604090205460ff1615611a8257604051631beb710560e11b815260040160405180910390fd5b6001600160a01b038616611aa957604051630702b3d960e41b815260040160405180910390fd5b5f828152600c60205260409020805460ff19166001179055611acc868686612c3b565b82856001600160a01b0316876001600160a01b03167f49093dec29cfa42ff3814d1bdd8e7c19d81dd41b9d38b311c56dd9fb993c37278786604051611b1b929190918252602082015260400190565b60405180910390a45061141e60018055565b611b35612834565b600654849060ff1615611b80576001600160a01b0381165f9081526007602052604090205460ff1615611b7b576040516388a9dff160e01b815260040160405180910390fd5b611bb8565b6001600160a01b0381165f9081526005602052604090205460ff16611bb857604051633dd1b30560e01b815260040160405180910390fd5b82828080601f0160208091040260200160405190810160405280939291908181526020018383808284375f92019190915250506009546001600160a01b0316159150819050611c7557506009546040516336bf3c9b60e11b81526001600160a01b0390911690636d7e793690611c349033908590600401613a1d565b602060405180830381865afa158015611c4f573d5f803e3d5ffd5b505050506040513d601f19601f82011682018060405250810190611c739190613a64565b155b15611c93576040516309cc0e7b60e31b815260040160405180910390fd5b6001600160a01b038716611ce05760405162461bcd60e51b8152602060048201526014602482015273496e76616c69642075736572206164647265737360601b60448201526064016102d7565b6001600160a01b0386165f9081526010602052604090205460ff1615611d5857620f4240851015611d535760405162461bcd60e51b815260206004820152601d60248201527f4d696e696d756d203120737461626c65636f696e20726571756972656400000060448201526064016102d7565b611daf565b662386f26fc10000851015611daf5760405162461bcd60e51b815260206004820152601c60248201527f4d696e696d756d20302e303120746f6b656e732072657175697265640000000060448201526064016102d7565b6001600160a01b0387165f908152600d602052604090205460ff16611de65760405162461bcd60e51b81526004016102d790613a7f565b6001600160a01b038616611e3e57843414611e395760405162461bcd60e51b815260206004820152601360248201527208aa89040c2dadeeadce840dad2e6dac2e8c6d606b1b60448201526064016102d7565b611ea1565b3415611e8c5760405162461bcd60e51b815260206004820152601a60248201527f455448206e6f7420657870656374656420666f7220455243323000000000000060448201526064016102d7565b611ea16001600160a01b038716333088612cd6565b6001600160a01b038088165f908152600460209081526040808320938a1683529290529081208054879290611ed7908490613b1a565b90915550611eea9050878787600161288d565b856001600160a01b0316876001600160a01b03167f01527be533d184d44e3111afa7800fa60ced6e1b44bd025f8b457deb8ce0ce358760405161140b91815260200190565b611f376127db565b6001600160a01b039092165f9081526002602081905260409091206001810192909255600382019290925542910155565b6001600160a01b038116331480611f8857505f546001600160a01b031633145b611fc55760405162461bcd60e51b815260206004820152600e60248201526d139bdd08185d5d1a1bdc9a5e995960921b60448201526064016102d7565b6001600160a01b0381165f908152600d60209081526040808320805460ff19169055600e9091528120611ff7916132f7565b50565b6001600160a01b03841633148061201a57505f546001600160a01b031633145b6120575760405162461bcd60e51b815260206004820152600e60248201526d139bdd08185d5d1a1bdc9a5e995960921b60448201526064016102d7565b6001600160a01b0383166120a35760405162461bcd60e51b8152602060048201526013602482015272496e76616c696420504b50206164647265737360681b60448201526064016102d7565b806120e85760405162461bcd60e51b8152602060048201526015602482015274125b9d985b1a5908131a5d081058dd1a5bdb881251605a1b60448201526064016102d7565b600a546001600160a01b0316156121a657600a546040516312b008cb60e31b81526001600160a01b03858116600483015290911690639580465890602401602060405180830381865afa158015612141573d5f803e3d5ffd5b505050506040513d601f19601f820116820180604052508101906121659190613a64565b6121a65760405162461bcd60e51b81526020600482015260126024820152711412d4081b9bdd081c9959da5cdd195c995960721b60448201526064016102d7565b6009546001600160a01b0316156122c65760095460405163996c5d1f60e01b81526001600160a01b0386811660048301525f92169063996c5d1f906024015f60405180830381865afa1580156121fe573d5f803e3d5ffd5b505050506040513d5f823e601f3d908101601f191682016040526122259190810190613b7a565b9050836001600160a01b0316815f01516001600160a01b0316146122825760405162461bcd60e51b81526020600482015260146024820152730a096a040c2c8c8e4cae6e640dad2e6dac2e8c6d60631b60448201526064016102d7565b80606001516122c45760405162461bcd60e51b815260206004820152600e60248201526d504b50206e6f742061637469766560901b60448201526064016102d7565b505b6001600160a01b0384165f908152600d60209081526040808320805460ff19166001179055600e909152902061141e828483613c71565b6123056127db565b6001600160a01b03821661232c57604051630f58058360e11b815260040160405180910390fd5b6001600160a01b039091165f908152600560209081526040808320805460ff199081166001179091556010909252909120805492151592909116919091179055565b6008546001600160a01b03163314612398576040516250bff560e61b815260040160405180910390fd5b6123a0612834565b6001600160a01b038084165f9081526004602090815260408083209386168352929052205481111561240b5760405162461bcd60e51b8152602060048201526014602482015273496e73756666696369656e742062616c616e636560601b60448201526064016102d7565b6001600160a01b038084165f90815260046020908152604080832093861683529290529081208054839290612441908490613a0a565b9091555061245390508383835f61288d565b6001600160a01b0382166124fd576008546040515f916001600160a01b03169083908381818185875af1925050503d805f81146124ab576040519150601f19603f3d011682016040523d82523d5f602084013e6124b0565b606091505b50509050806124f75760405162461bcd60e51b8152602060048201526013602482015272115512081d1c985b9cd9995c8819985a5b1959606a1b60448201526064016102d7565b50612517565b600854612517906001600160a01b03848116911683612a58565b826001600160a01b03167fbbce1e7412840ff8ccaa0aaa3ae8cf85526e94324ceb93e6397be8ef0e475e504260405161255291815260200190565b60405180910390a261256360018055565b505050565b6125706127db565b6001600160a01b0381166125d55760405162461bcd60e51b815260206004820152602660248201527f4f776e61626c653a206e6577206f776e657220697320746865207a65726f206160448201526564647265737360d01b60648201526084016102d7565b611ff781612bec565b6125e66127db565b6001600160a01b03811661260c5760405162461bcd60e51b81526004016102d7906139cd565b600980546001600160a01b0319166001600160a01b0392909216919091179055565b6008546001600160a01b03163314612658576040516250bff560e61b815260040160405180910390fd5b5f838152600f602052604090205460ff16156126b65760405162461bcd60e51b815260206004820152601b60248201527f457865637574696f6e20616c72656164792070726f636573736564000000000060448201526064016102d7565b6001600160a01b0384165f908152600d602052604090205460ff166126ed5760405162461bcd60e51b81526004016102d790613a7f565b81816040516126fd929190613d2c565b604080519182900382206001600160a01b0387165f908152600e60205291909120909161272a9190613d3b565b6040518091039020146127785760405162461bcd60e51b8152602060048201526016602482015275098d2e84082c6e8d2dedc40928840dad2e6dac2e8c6d60531b60448201526064016102d7565b5f838152600f602052604090819020805460ff19166001179055516001600160a01b038516907fbbce1e7412840ff8ccaa0aaa3ae8cf85526e94324ceb93e6397be8ef0e475e50906127cd9042815260200190565b60405180910390a250505050565b5f546001600160a01b031633146117b65760405162461bcd60e51b815260206004820181905260248201527f4f776e61626c653a2063616c6c6572206973206e6f7420746865206f776e657260448201526064016102d7565b6002600154036128865760405162461bcd60e51b815260206004820152601f60248201527f5265656e7472616e637947756172643a207265656e7472616e742063616c6c0060448201526064016102d7565b6002600155565b6001600160a01b0384165f90815260026020526040812090805b82548110156129b557856001600160a01b0316835f0182815481106128ce576128ce613ab6565b5f9182526020909120600490910201546001600160a01b0316036129a357831561292f5784835f01828154811061290757612907613ab6565b905f5260205f2090600402016001015f8282546129249190613b1a565b9091555061299a9050565b84835f01828154811061294457612944613ab6565b905f5260205f2090600402016001015f8282546129619190613a0a565b9091555050825483908290811061297a5761297a613ab6565b905f5260205f209060040201600101545f0361299a5761299a8382612d14565b600191506129b5565b806129ad81613aca565b9150506128a7565b50801580156129c15750825b156116c257604080516080810182526001600160a01b03878116825260208083018881525f94840185815260016060860181815289548083018b558a8952949097209551600490940290950180546001600160a01b0319169390941692909217835551928201929092559051600282015590516003909101805460ff191660ff909216919091179055504260029091015550505050565b6040516001600160a01b03831660248201526044810182905261256390849063a9059cbb60e01b906064015b60408051601f198184030181529190526020810180516001600160e01b03166001600160e01b031990931692909217909152612e47565b6001600160a01b0382165f9081526010602052604090205460ff16158015612afb57506001600160a01b0382165f9081526005602052604090205460ff16155b15612b0957612b0982612f1a565b6001600160a01b0382165f9081526010602052604090205460ff1615612b5257620f4240811015612b4d576040516307e0767760e21b815260040160405180910390fd5b612b7a565b662386f26fc10000811015612b7a5760405163e165e1e360e01b815260040160405180910390fd5b6001600160a01b038216612bad57803414612ba857604051636c4e725160e11b815260040160405180910390fd5b612be1565b3415612bcc5760405163087acedf60e41b815260040160405180910390fd5b612be16001600160a01b038316333084612cd6565b612563838383612c3b565b5f80546001600160a01b038381166001600160a01b0319831681178455604051919092169283917f8be0079c531659141344cd1fd0a4f28419497f9722a3daafe3b4186f6b6457e09190a35050565b6001600160a01b038084165f90815260046020908152604080832093861683529290529081208054839290612c71908490613b1a565b90915550612c849050838383600161288d565b816001600160a01b0316836001600160a01b03167f01527be533d184d44e3111afa7800fa60ced6e1b44bd025f8b457deb8ce0ce3583604051612cc991815260200190565b60405180910390a3505050565b6040516001600160a01b0380851660248301528316604482015260648101829052612d0e9085906323b872dd60e01b90608401612a84565b50505050565b81548110612d5a5760405162461bcd60e51b8152602060048201526013602482015272496e646578206f7574206f6620626f756e647360681b60448201526064016102d7565b81548290612d6a90600190613a0a565b81548110612d7a57612d7a613ab6565b905f5260205f209060040201825f018281548110612d9a57612d9a613ab6565b5f9182526020909120825460049092020180546001600160a01b0319166001600160a01b0390921691909117815560018083015490820155600280830154908201556003918201549101805460ff191660ff9092169190911790558154829080612e0657612e06613dad565b5f8281526020812060045f199093019283020180546001600160a01b0319168155600181018290556002810191909155600301805460ff1916905590555050565b5f612e9b826040518060400160405280602081526020017f5361666545524332303a206c6f772d6c6576656c2063616c6c206661696c6564815250856001600160a01b03166131069092919063ffffffff16565b905080515f1480612ebb575080806020019051810190612ebb9190613a64565b6125635760405162461bcd60e51b815260206004820152602a60248201527f5361666545524332303a204552433230206f7065726174696f6e20646964206e6044820152691bdd081cdd58d8d9595960b21b60648201526084016102d7565b806001600160a01b03166395d89b416040518163ffffffff1660e01b81526004015f60405180830381865afa925050508015612f7757506040513d5f823e601f3d908101601f19168201604052612f749190810190613dc1565b60015b15611ff757805160208201207fd6aca1be9729c13d677335161321649cccae6a591554772516700f986f942eaa811480612fd057507f8b1a1d9c2b109e527c9134b25b1a1833b16b6594f92daa9f6d9b7a6024bce9d081145b80612ffa57507fa5e92f3efb6826155f1f728e162af9d7cda33a574a1153b58f03ea01cc37e56881145b8061302457507f54c512ac779647672b8d02e2fe2dc10f79bbf19f719d887221696215fd24e9f181145b8061304e57507f9171c8ee5d053a5cb4f89f254214c629dd22087419ac71a852ac36b73381344481145b8061307857507fa1b8d8f7e538bb573797c963eeeed40d0bcb9f28c56104417d0da1b372ae305181145b806130a257507fe6ce7ecb96a43fc15fb4020f93c37885612803dd74366bb6815e4f607ac3ca2081145b15612563576001600160a01b0383165f8181526010602052604090819020805460ff19166001179055517f9dadf85544113136fdcbde1a632502a416226a128aba8d7b85551166ac36e0bf906130f990859061385d565b60405180910390a2505050565b606061311484845f8561311e565b90505b9392505050565b60608247101561317f5760405162461bcd60e51b815260206004820152602660248201527f416464726573733a20696e73756666696369656e742062616c616e636520666f6044820152651c8818d85b1b60d21b60648201526084016102d7565b5f80866001600160a01b0316858760405161319a9190613e06565b5f6040518083038185875af1925050503d805f81146131d4576040519150601f19603f3d011682016040523d82523d5f602084013e6131d9565b606091505b50915091506131ea878383876131f7565b925050505b949350505050565b606083156132655782515f0361325e576001600160a01b0385163b61325e5760405162461bcd60e51b815260206004820152601d60248201527f416464726573733a2063616c6c20746f206e6f6e2d636f6e747261637400000060448201526064016102d7565b50816131ef565b6131ef838381511561327a5781518083602001fd5b8060405162461bcd60e51b81526004016102d7919061385d565b828054828255905f5260205f209081019282156132e7579160200282015b828111156132e757825182546001600160a01b0319166001600160a01b039091161782556020909201916001909101906132b2565b506132f392915061332a565b5090565b50805461330390613ae2565b5f825580601f10613312575050565b601f0160209004905f5260205f2090810190611ff791905b5b808211156132f3575f815560010161332b565b5f6020828403121561334e575f80fd5b5035919050565b634e487b7160e01b5f52604160045260245ffd5b60405160a0810167ffffffffffffffff8111828210171561338c5761338c613355565b60405290565b6040516080810167ffffffffffffffff8111828210171561338c5761338c613355565b604051601f8201601f1916810167ffffffffffffffff811182821017156133de576133de613355565b604052919050565b6001600160a01b0381168114611ff7575f80fd5b8035611891816133e6565b5f6020808385031215613416575f80fd5b823567ffffffffffffffff8082111561342d575f80fd5b9084019060a08287031215613440575f80fd5b613448613369565b823581528383013584820152604083013582811115613465575f80fd5b8301601f81018813613475575f80fd5b80358381111561348757613487613355565b8060051b93506134988685016133b5565b818152938201860193868101908a8611156134b1575f80fd5b928701925b858410156134db57833592506134cb836133e6565b82825292870192908701906134b6565b6040850152506134f0915050606084016133fa565b6060820152608083013560808201528094505050505092915050565b5f6020828403121561351c575f80fd5b8135613117816133e6565b602080825282516080838301819052815160a085018190525f9392830191849160c08701905b8084101561359757845180516001600160a01b0316835286810151878401526040808201519084015260609081015160ff169083015293850193600193909301929082019061354d565b5084880151604088015260408801516060880152606088015182880152809550505050505092915050565b8015158114611ff7575f80fd5b5f80604083850312156135e0575f80fd5b82356135eb816133e6565b915060208301356135fb816135c2565b809150509250929050565b5f60208284031215613616575f80fd5b8135613117816135c2565b5f8060408385031215613632575f80fd5b823561363d816133e6565b946020939093013593505050565b5f8083601f84011261365b575f80fd5b50813567ffffffffffffffff811115613672575f80fd5b602083019150836020828501011115613689575f80fd5b9250929050565b5f805f805f608086880312156136a4575f80fd5b85356136af816133e6565b945060208601356136bf816133e6565b935060408601359250606086013567ffffffffffffffff8111156136e1575f80fd5b6136ed8882890161364b565b969995985093965092949392505050565b5f602080835260c08301845182850152818501516040850152604085015160a0606086015281815180845260e08701915084830193505f92505b808310156137615783516001600160a01b03168252928401926001929092019190840190613738565b5060608701516001600160a01b03811660808801529350608087015160a08701528094505050505092915050565b5f805f80608085870312156137a2575f80fd5b84356137ad816133e6565b935060208501356137bd816133e6565b925060408501359150606085013560ff811681146137d9575f80fd5b939692955090935050565b5f80604083850312156137f5575f80fd5b8235613800816133e6565b915060208301356135fb816133e6565b5f5b8381101561382a578181015183820152602001613812565b50505f910152565b5f8151808452613849816020860160208601613810565b601f01601f19169290920160200192915050565b602081525f6131176020830184613832565b5f805f805f60a08688031215613883575f80fd5b853561388e816133e6565b9450602086013561389e816133e6565b94979496505050506040830135926060810135926080909101359150565b5f805f606084860312156138ce575f80fd5b83356138d9816133e6565b95602085013595506040909401359392505050565b5f805f8060608587031215613901575f80fd5b843561390c816133e6565b9350602085013561391c816133e6565b9250604085013567ffffffffffffffff811115613937575f80fd5b6139438782880161364b565b95989497509550505050565b5f805f60608486031215613961575f80fd5b833561396c816133e6565b9250602084013561397c816133e6565b929592945050506040919091013590565b5f805f80606085870312156139a0575f80fd5b84356139ab816133e6565b935060208501359250604085013567ffffffffffffffff811115613937575f80fd5b6020808252600f908201526e496e76616c6964206164647265737360881b604082015260600190565b634e487b7160e01b5f52601160045260245ffd5b818103818111156116f6576116f66139f6565b6001600160a01b03831681526060602082018190525f90613a4090830184613832565b82810360408401525f8152602081019150509392505050565b8051611891816135c2565b5f60208284031215613a74575f80fd5b8151613117816135c2565b60208082526017908201527f55736572206e6f7420504b5020617574686f72697a6564000000000000000000604082015260600190565b634e487b7160e01b5f52603260045260245ffd5b5f60018201613adb57613adb6139f6565b5060010190565b600181811c90821680613af657607f821691505b602082108103613b1457634e487b7160e01b5f52602260045260245ffd5b50919050565b808201808211156116f6576116f66139f6565b5f67ffffffffffffffff831115613b4657613b46613355565b613b59601f8401601f19166020016133b5565b9050828152838383011115613b6c575f80fd5b613117836020830184613810565b5f60208284031215613b8a575f80fd5b815167ffffffffffffffff80821115613ba1575f80fd5b9083019060808286031215613bb4575f80fd5b613bbc613392565b8251613bc7816133e6565b8152602083015182811115613bda575f80fd5b83019150601f82018613613bec575f80fd5b613bfb86835160208501613b2d565b602082015260408301516040820152613c1660608401613a59565b606082015295945050505050565b601f821115612563575f81815260208120601f850160051c81016020861015613c4a5750805b601f850160051c820191505b81811015613c6957828155600101613c56565b505050505050565b67ffffffffffffffff831115613c8957613c89613355565b613c9d83613c978354613ae2565b83613c24565b5f601f841160018114613cce575f8515613cb75750838201355b5f19600387901b1c1916600186901b17835561141e565b5f83815260209020601f19861690835b82811015613cfe5786850135825560209485019460019092019101613cde565b5086821015613d1a575f1960f88860031b161c19848701351681555b505060018560011b0183555050505050565b818382375f9101908152919050565b5f808354613d4881613ae2565b60018281168015613d605760018114613d7557613da1565b60ff1984168752821515830287019450613da1565b875f526020805f205f5b85811015613d985781548a820152908401908201613d7f565b50505082870194505b50929695505050505050565b634e487b7160e01b5f52603160045260245ffd5b5f60208284031215613dd1575f80fd5b815167ffffffffffffffff811115613de7575f80fd5b8201601f81018413613df7575f80fd5b6131ef84825160208401613b2d565b5f8251613e17818460208701613810565b919091019291505056fea2646970667358221220840d28376543b0f8eb4a76ddb9872fed936a7d2be6fccfeaff5792a64382ec4e64736f6c63430008140033",
  "linkReferences": {},
  "deployedLinkReferences": {},
  "immutableReferences": {},
  "inputSourceName": "project/contracts/CrashGuardCore.sol",
  "buildInfoId": "solc-0_8_20-c104ac2a4beab02af3661ccba76522edd6a80bf1"
}