{
  "_format": "hh3-artifact-1",
  "contractName": "PortfolioRebalancer",
  "sourceName": "contracts/PortfolioRebalancer.sol",
  "abi": [
    {
      "inputs": [
        {
          "internalType": "address",
          "name": "_crashGuardCore",
          "type": "address"
        },
        {
          "internalType": "address",
          "name": "_dexAggregator",
          "type": "address"
        },
        {
          "internalType": "address",
          "name": "_priceMonitor",
          "type": "address"
        }
      ],
      "stateMutability": "nonpayable",
      "type": "constructor"
    },
    {
      "anonymous": false,
      "inputs": [
        {
          "indexed": true,
          "internalType": "address",
          "name": "user",
          "type": "address"
        },
        {
          "indexed": false,
          "internalType": "address",
          "name": "token",
          "type": "address"
        },
        {
          "indexed": false,
          "internalType": "int256",
          "name": "amount",
          "type": "int256"
        }
      ],
      "name": "AllocationAdjusted",
      "type": "event"
    },
    {
      "anonymous": false,
      "inputs": [
        {
          "indexed": true,
          "internalType": "address",
          "name": "previousOwner",
          "type": "address"
        },
        {
          "indexed": true,
          "internalType": "address",
          "name": "newOwner",
          "type": "address"
        }
      ],
      "name": "OwnershipTransferred",
      "type": "event"
    },
    {
      "anonymous": false,
      "inputs": [
        {
          "indexed": true,
          "internalType": "address",
          "name": "user",
          "type": "address"
        },
        {
          "indexed": false,
          "internalType": "uint256",
          "name": "timestamp",
          "type": "uint256"
        },
        {
          "indexed": false,
          "internalType": "uint256",
          "name": "totalValue",
          "type": "uint256"
        }
      ],
      "name": "RebalanceExecuted",
      "type": "event"
    },
    {
      "anonymous": false,
      "inputs": [
        {
          "indexed": true,
          "internalType": "address",
          "name": "user",
          "type": "address"
        },
        {
          "indexed": false,
          "internalType": "address[]",
          "name": "tokens",
          "type": "address[]"
        },
        {
          "indexed": false,
          "internalType": "uint256[]",
          "name": "allocations",
          "type": "uint256[]"
        }
      ],
      "name": "StrategySet",
      "type": "event"
    },
    {
      "inputs": [],
      "name": "BASIS_POINTS",
      "outputs": [
        {
          "internalType": "uint256",
          "name": "",
          "type": "uint256"
        }
      ],
      "stateMutability": "view",
      "type": "function"
    },
    {
      "inputs": [],
      "name": "MAX_REBALANCE_THRESHOLD",
      "outputs": [
        {
          "internalType": "uint256",
          "name": "",
          "type": "uint256"
        }
      ],
      "stateMutability": "view",
      "type": "function"
    },
    {
      "inputs": [],
      "name": "MIN_INTERVAL",
      "outputs": [
        {
          "internalType": "uint256",
          "name": "",
          "type": "uint256"
        }
      ],
      "stateMutability": "view",
      "type": "function"
    },
    {
      "inputs": [],
      "name": "MIN_REBALANCE_THRESHOLD",
      "outputs": [
        {
          "internalType": "uint256",
          "name": "",
          "type": "uint256"
        }
      ],
      "stateMutability": "view",
      "type": "function"
    },
    {
      "inputs": [
        {
          "internalType": "address",
          "name": "",
          "type": "address"
        }
      ],
      "name": "authorizedRebalancers",
      "outputs": [
        {
          "internalType": "bool",
          "name": "",
          "type": "bool"
        }
      ],
      "stateMutability": "view",
      "type": "function"
    },
    {
      "inputs": [
        {
          "internalType": "address",
          "name": "user",
          "type": "address"
        }
      ],
      "name": "checkRebalanceNeeded",
      "outputs": [
        {
          "internalType": "bool",
          "name": "needed",
          "type": "bool"
        },
        {
          "internalType": "uint256",
          "name": "maxDeviation",
          "type": "uint256"
        }
      ],
      "stateMutability": "view",
      "type": "function"
    },
    {
      "inputs": [],
      "name": "crashGuardCore",
      "outputs": [
        {
          "internalType": "contract ICrashGuardCore",
          "name": "",
          "type": "address"
        }
      ],
      "stateMutability": "view",
      "type": "function"
    },
    {
      "inputs": [],
      "name": "dexAggregator",
      "outputs": [
        {
          "internalType": "contract IDEXAggregator",
          "name": "",
          "type": "address"
        }
      ],
      "stateMutability": "view",
      "type": "function"
    },
    {
      "inputs": [
        {
          "internalType": "address",
          "name": "token",
          "type": "address"
        },
        {
          "internalType": "uint256",
          "name": "amount",
          "type": "uint256"
        }
      ],
      "name": "emergencyRecoverToken",
      "outputs": [],
      "stateMutability": "nonpayable",
      "type": "function"
    },
    {
      "inputs": [
        {
          "internalType": "address",
          "name": "user",
          "type": "address"
        }
      ],
      "name": "executeRebalance",
      "outputs": [],
      "stateMutability": "nonpayable",
      "type": "function"
    },
    {
      "inputs": [
        {
          "internalType": "address",
          "name": "user",
          "type": "address"
        }
      ],
      "name": "getRebalanceTargets",
      "outputs": [
        {
          "components": [
            {
              "internalType": "address",
              "name": "token",
              "type": "address"
            },
            {
              "internalType": "uint256",
              "name": "targetPercentage",
              "type": "uint256"
            },
            {
              "internalType": "uint256",
              "name": "currentPercentage",
              "type": "uint256"
            },
            {
              "internalType": "int256",
              "name": "rebalanceAmount",
              "type": "int256"
            }
          ],
          "internalType": "struct PortfolioRebalancer.AllocationTarget[]",
          "name": "",
          "type": "tuple[]"
        }
      ],
      "stateMutability": "view",
      "type": "function"
    },
    {
      "inputs": [
        {
          "internalType": "address",
          "name": "",
          "type": "address"
        }
      ],
      "name": "lastRebalanceTime",
      "outputs": [
        {
          "internalType": "uint256",
          "name": "",
          "type": "uint256"
        }
      ],
      "stateMutability": "view",
      "type": "function"
    },
    {
      "inputs": [],
      "name": "owner",
      "outputs": [
        {
          "internalType": "address",
          "name": "",
          "type": "address"
        }
      ],
      "stateMutability": "view",
      "type": "function"
    },
    {
      "inputs": [],
      "name": "priceMonitor",
      "outputs": [
        {
          "internalType": "contract IPythPriceMonitor",
          "name": "",
          "type": "address"
        }
      ],
      "stateMutability": "view",
      "type": "function"
    },
    {
      "inputs": [],
      "name": "renounceOwnership",
      "outputs": [],
      "stateMutability": "nonpayable",
      "type": "function"
    },
    {
      "inputs": [
        {
          "internalType": "address",
          "name": "rebalancer",
          "type": "address"
        },
        {
          "internalType": "bool",
          "name": "authorized",
          "type": "bool"
        }
      ],
      "name": "setAuthorizedRebalancer",
      "outputs": [],
      "stateMutability": "nonpayable",
      "type": "function"
    },
    {
      "inputs": [
        {
          "internalType": "address[]",
          "name": "targetTokens",
          "type": "address[]"
        },
        {
          "internalType": "uint256[]",
          "name": "targetAllocations",
          "type": "uint256[]"
        },
        {
          "internalType": "uint256",
          "name": "rebalanceThreshold",
          "type": "uint256"
        },
        {
          "internalType": "uint256",
          "name": "minRebalanceInterval",
          "type": "uint256"
        },
        {
          "internalType": "bool",
          "name": "autoRebalance",
          "type": "bool"
        }
      ],
      "name": "setRebalanceStrategy",
      "outputs": [],
      "stateMutability": "nonpayable",
      "type": "function"
    },
    {
      "inputs": [
        {
          "internalType": "address",
          "name": "newOwner",
          "type": "address"
        }
      ],
      "name": "transferOwnership",
      "outputs": [],
      "stateMutability": "nonpayable",
      "type": "function"
    },
    {
      "inputs": [
        {
          "internalType": "address",
          "name": "_crashGuardCore",
          "type": "address"
        },
        {
          "internalType": "address",
          "name": "_dexAggregator",
          "type": "address"
        },
        {
          "internalType": "address",
          "name": "_priceMonitor",
          "type": "address"
        }
      ],
      "name": "updateContracts",
      "outputs": [],
      "stateMutability": "nonpayable",
      "type": "function"
    },
    {
      "inputs": [
        {
          "internalType": "address",
          "name": "",
          "type": "address"
        }
      ],
      "name": "userStrategies",
      "outputs": [
        {
          "internalType": "uint256",
          "name": "rebalanceThreshold",
          "type": "uint256"
        },
        {
          "internalType": "uint256",
          "name": "minRebalanceInterval",
          "type": "uint256"
        },
        {
          "internalType": "bool",
          "name": "autoRebalance",
          "type": "bool"
        }
      ],
      "stateMutability": "view",
      "type": "function"
    },
    {
      "stateMutability": "payable",
      "type": "receive"
    }
  ],
  "bytecode": "0x608060405234801562000010575f80fd5b5060405162002cfc38038062002cfc8339810160408190526200003391620001e4565b6200003e3362000179565b600180556001600160a01b0383166200008d5760405162461bcd60e51b815260206004820152600c60248201526b496e76616c696420636f726560a01b60448201526064015b60405180910390fd5b6001600160a01b038216620000d35760405162461bcd60e51b815260206004820152600b60248201526a092dcecc2d8d2c840c8caf60ab1b604482015260640162000084565b6001600160a01b0381166200011d5760405162461bcd60e51b815260206004820152600f60248201526e24b73b30b634b21036b7b734ba37b960891b604482015260640162000084565b600280546001600160a01b039485166001600160a01b031991821617909155600380549385169382169390931790925560048054919093169116179055335f908152600760205260409020805460ff191660011790556200022b565b5f80546001600160a01b038381166001600160a01b0319831681178455604051919092169283917f8be0079c531659141344cd1fd0a4f28419497f9722a3daafe3b4186f6b6457e09190a35050565b80516001600160a01b0381168114620001df575f80fd5b919050565b5f805f60608486031215620001f7575f80fd5b6200020284620001c8565b92506200021260208501620001c8565b91506200022260408501620001c8565b90509250925092565b612ac380620002395f395ff3fe60806040526004361061011e575f3560e01c80638da5cb5b1161009d578063e566a8fc11610062578063e566a8fc14610375578063e7a014d9146103ab578063ef434d61146103ca578063f2fde38b146103de578063f960a762146103fd575f80fd5b80638da5cb5b146102dc578063ac6d8beb146102f8578063c03687401461030d578063c8c19a3914610322578063e1f1c4a714610360575f80fd5b80635b1ca057116100e35780635b1ca0571461024c5780636dca4d441461026b578063715018a61461028a578063790201941461029e5780637c21d5e0146102bd575f80fd5b806305c1b5d3146101295780631e0c11cb1461014a5780632c1ff96f1461017f57806334e558c5146101b6578063487bb965146101ef575f80fd5b3661012557005b5f80fd5b348015610134575f80fd5b506101486101433660046124f7565b61041c565b005b348015610155575f80fd5b5061016961016436600461259b565b61073a565b60405161017691906125bd565b60405180910390f35b34801561018a575f80fd5b5060045461019e906001600160a01b031681565b6040516001600160a01b039091168152602001610176565b3480156101c1575f80fd5b506101e16101d036600461259b565b60066020525f908152604090205481565b604051908152602001610176565b3480156101fa575f80fd5b5061022f61020936600461259b565b60056020525f908152604090206002810154600382015460049092015490919060ff1683565b604080519384526020840192909252151590820152606001610176565b348015610257575f80fd5b50610148610266366004612629565b61092f565b348015610276575f80fd5b50610148610285366004612660565b6109a9565b348015610295575f80fd5b50610148610a37565b3480156102a9575f80fd5b506101486102b83660046126a8565b610a4a565b3480156102c8575f80fd5b5060035461019e906001600160a01b031681565b3480156102e7575f80fd5b505f546001600160a01b031661019e565b348015610303575f80fd5b506101e161138881565b348015610318575f80fd5b506101e1610e1081565b34801561032d575f80fd5b5061035061033c36600461259b565b60076020525f908152604090205460ff1681565b6040519015158152602001610176565b34801561036b575f80fd5b506101e161271081565b348015610380575f80fd5b5061039461038f36600461259b565b610b1f565b604080519215158352602083019190915201610176565b3480156103b6575f80fd5b506101486103c536600461259b565b610e13565b3480156103d5575f80fd5b506101e1606481565b3480156103e9575f80fd5b506101486103f836600461259b565b61129a565b348015610408575f80fd5b5060025461019e906001600160a01b031681565b8561045d5760405162461bcd60e51b815260206004820152600c60248201526b456d70747920746f6b656e7360a01b60448201526064015b60405180910390fd5b85841461049e5760405162461bcd60e51b815260206004820152600f60248201526e098cadccee8d040dad2e6dac2e8c6d608b1b6044820152606401610454565b60648310156104e35760405162461bcd60e51b81526020600482015260116024820152705468726573686f6c6420746f6f206c6f7760781b6044820152606401610454565b61138883111561052a5760405162461bcd60e51b81526020600482015260126024820152710a8d0e4cae6d0ded8c840e8dede40d0d2ced60731b6044820152606401610454565b610e108210156105715760405162461bcd60e51b8152602060048201526012602482015271125b9d195c9d985b081d1bdbc81cda1bdc9d60721b6044820152606401610454565b5f805b858110156105b45786868281811061058e5761058e6126d2565b90506020020135826105a091906126fa565b9150806105ac8161270d565b915050610574565b5061271081146105f85760405162461bcd60e51b815260206004820152600f60248201526e4d75737420657175616c203130302560881b6044820152606401610454565b6040518060a001604052808989808060200260200160405190810160405280939291908181526020018383602002808284375f9201919091525050509082525060408051602089810282810182019093528982529283019290918a918a9182918501908490808284375f92018290525093855250505060208083018890526040808401889052861515606090940193909352338252600581529190208251805191926106a9928492909101906123f2565b5060208281015180516106c29260018501920190612455565b506040828101516002830155606083015160038301556080909201516004909101805460ff19169115159190911790555133907f5cb0a4a912fdf76997a49f7014a732aac637e5f944f3e01064c6bf7b0d11247590610728908b908b908b908b90612725565b60405180910390a25050505050505050565b6001600160a01b0381165f9081526005602090815260408083208151815460c09481028201850190935260a0810183815260609594919384928491908401828280156107ad57602002820191905f5260205f20905b81546001600160a01b0316815260019091019060200180831161078f575b505050505081526020016001820180548060200260200160405190810160405280929190818152602001828054801561080357602002820191905f5260205f20905b8154815260200190600101908083116107ef575b5050509183525050600282015460208201526003820154604082015260049091015460ff1615156060909101528051519091506108705760405162461bcd60e51b815260206004820152600b60248201526a4e6f20737472617465677960a81b6044820152606401610454565b600254604051631edb27e960e01b81526001600160a01b0385811660048301525f921690631edb27e9906024015f60405180830381865afa1580156108b7573d5f803e3d5ffd5b505050506040513d5f823e601f3d908101601f191682016040526108de919081019061280f565b80515190915061091c5760405162461bcd60e51b81526020600482015260096024820152684e6f2061737365747360b81b6044820152606401610454565b610927848284611310565b949350505050565b610937611533565b6001600160a01b03821661097f5760405162461bcd60e51b815260206004820152600f60248201526e496e76616c6964206164647265737360881b6044820152606401610454565b6001600160a01b03919091165f908152600760205260409020805460ff1916911515919091179055565b6109b1611533565b6001600160a01b038316156109dc57600280546001600160a01b0319166001600160a01b0385161790555b6001600160a01b03821615610a0757600380546001600160a01b0319166001600160a01b0384161790555b6001600160a01b03811615610a3257600480546001600160a01b0319166001600160a01b0383161790555b505050565b610a3f611533565b610a485f61158c565b565b610a52611533565b6001600160a01b038216610af6575f80546040516001600160a01b039091169083908381818185875af1925050503d805f8114610aaa576040519150601f19603f3d011682016040523d82523d5f602084013e610aaf565b606091505b5050905080610a325760405162461bcd60e51b8152602060048201526013602482015272115512081d1c985b9cd9995c8819985a5b1959606a1b6044820152606401610454565b610b1b610b0a5f546001600160a01b031690565b6001600160a01b03841690836115db565b5050565b6001600160a01b0381165f9081526005602090815260408083208151815460c09481028201850190935260a0810183815285948594929392849291849190840182828015610b9457602002820191905f5260205f20905b81546001600160a01b03168152600190910190602001808311610b76575b5050505050815260200160018201805480602002602001604051908101604052809291908181526020018280548015610bea57602002820191905f5260205f20905b815481526020019060010190808311610bd6575b5050509183525050600282015460208201526003820154604082015260049091015460ff1615156060909101528051519091505f03610c2e57505f93849350915050565b60608101516001600160a01b0385165f90815260066020526040902054610c5591906126fa565b421015610c6757505f93849350915050565b600254604051631edb27e960e01b81526001600160a01b0386811660048301525f921690631edb27e9906024015f60405180830381865afa158015610cae573d5f803e3d5ffd5b505050506040513d5f823e601f3d908101601f19168201604052610cd5919081019061280f565b8051519091505f03610ced57505f9485945092505050565b5f610cf9868385611310565b90505f5b8151811015610e0a575f828281518110610d1957610d196126d2565b602002602001015160200151838381518110610d3757610d376126d2565b60200260200101516040015111610d9357828281518110610d5a57610d5a6126d2565b602002602001015160400151838381518110610d7857610d786126d2565b602002602001015160200151610d8e9190612948565b610dd9565b828281518110610da557610da56126d2565b602002602001015160200151838381518110610dc357610dc36126d2565b602002602001015160400151610dd99190612948565b905085811115610de7578095505b84604001518110610df757600196505b5080610e028161270d565b915050610cfd565b50505050915091565b335f9081526007602052604090205460ff1680610e3957505f546001600160a01b031633145b610e765760405162461bcd60e51b815260206004820152600e60248201526d139bdd08185d5d1a1bdc9a5e995960921b6044820152606401610454565b610e7e61163e565b6001600160a01b0381165f9081526005602090815260408083208151815460c09481028201850190935260a08101838152909391928492849190840182828015610eef57602002820191905f5260205f20905b81546001600160a01b03168152600190910190602001808311610ed1575b5050505050815260200160018201805480602002602001604051908101604052809291908181526020018280548015610f4557602002820191905f5260205f20905b815481526020019060010190808311610f31575b5050509183525050600282015460208201526003820154604082015260049091015460ff161515606090910152805151909150610fb25760405162461bcd60e51b815260206004820152600b60248201526a4e6f20737472617465677960a81b6044820152606401610454565b60608101516001600160a01b0383165f90815260066020526040902054610fd991906126fa565b4210156110135760405162461bcd60e51b81526020600482015260086024820152672a37b79039b7b7b760c11b6044820152606401610454565b600254604051631edb27e960e01b81526001600160a01b0384811660048301525f921690631edb27e9906024015f60405180830381865afa15801561105a573d5f803e3d5ffd5b505050506040513d5f823e601f3d908101601f19168201604052611081919081019061280f565b8051519091506110bf5760405162461bcd60e51b81526020600482015260096024820152684e6f2061737365747360b81b6044820152606401610454565b5f6110cb848385611310565b90505f805b82518110156111d6575f8382815181106110ec576110ec6126d2565b60200260200101516020015184838151811061110a5761110a6126d2565b602002602001015160400151116111665783828151811061112d5761112d6126d2565b60200260200101516040015184838151811061114b5761114b6126d2565b6020026020010151602001516111619190612948565b6111ac565b838281518110611178576111786126d2565b602002602001015160200151848381518110611196576111966126d2565b6020026020010151604001516111ac9190612948565b9050856040015181106111c35760019250506111d6565b50806111ce8161270d565b9150506110d0565b508061121a5760405162461bcd60e51b8152602060048201526013602482015272139bc81c9958985b185b98d9481b9959591959606a1b6044820152606401610454565b61122985838560200151611697565b6001600160a01b0385165f8181526006602090815260409182902042908190559086015191517f7243abb040118ab3c6903065628d588c36b2cbec6df53b430737f020e66477d892611282928252602082015260400190565b60405180910390a25050505061129760018055565b50565b6112a2611533565b6001600160a01b0381166113075760405162461bcd60e51b815260206004820152602660248201527f4f776e61626c653a206e6577206f776e657220697320746865207a65726f206160448201526564647265737360d01b6064820152608401610454565b6112978161158c565b60605f825f01515167ffffffffffffffff811115611330576113306127a1565b60405190808252806020026020018201604052801561139157816020015b61137e60405180608001604052805f6001600160a01b031681526020015f81526020015f81526020015f81525090565b81526020019060019003908161134e5790505b5060208501519091505f8190036113ae576113ab856117e1565b90505b5f5b845151811015611528575f855f015182815181106113d0576113d06126d2565b602002602001015190505f866020015183815181106113f1576113f16126d2565b602002602001015190505f805b89515181101561147957836001600160a01b03168a5f01518281518110611427576114276126d2565b60200260200101515f01516001600160a01b031603611467578951805182908110611454576114546126d2565b6020026020010151604001519150611479565b806114718161270d565b9150506113fe565b505f808611611488575f61149f565b856114956127108461295b565b61149f9190612972565b90505f6127106114af858961295b565b6114b99190612972565b90505f6114c68483612991565b90506040518060800160405280876001600160a01b0316815260200186815260200184815260200182815250898881518110611504576115046126d2565b602002602001018190525050505050505080806115209061270d565b9150506113b0565b509095945050505050565b5f546001600160a01b03163314610a485760405162461bcd60e51b815260206004820181905260248201527f4f776e61626c653a2063616c6c6572206973206e6f7420746865206f776e65726044820152606401610454565b5f80546001600160a01b038381166001600160a01b0319831681178455604051919092169283917f8be0079c531659141344cd1fd0a4f28419497f9722a3daafe3b4186f6b6457e09190a35050565b6040516001600160a01b038316602482015260448101829052610a3290849063a9059cbb60e01b906064015b60408051601f198184030181529190526020810180516001600160e01b03166001600160e01b031990931692909217909152611835565b6002600154036116905760405162461bcd60e51b815260206004820152601f60248201527f5265656e7472616e637947756172643a207265656e7472616e742063616c6c006044820152606401610454565b6002600155565b5f5b82518110156117db578281815181106116b4576116b46126d2565b6020026020010151606001515f03156117c9575f8382815181106116da576116da6126d2565b60200260200101516060015113156117155761171084848381518110611702576117026126d2565b602002602001015184611908565b611738565b6117388484838151811061172b5761172b6126d2565b6020026020010151611bf1565b836001600160a01b03167f059d6c901c4ad1f94e9cd8b5f956df05dbce4ba3c15d131df56ab3f47d274b0a848381518110611775576117756126d2565b60200260200101515f0151858481518110611792576117926126d2565b6020026020010151606001516040516117c09291906001600160a01b03929092168252602082015260400190565b60405180910390a25b806117d38161270d565b915050611699565b50505050565b5f80805b83515181101561182e578351805182908110611803576118036126d2565b6020026020010151604001518261181a91906126fa565b9150806118268161270d565b9150506117e5565b5092915050565b5f611889826040518060400160405280602081526020017f5361666545524332303a206c6f772d6c6576656c2063616c6c206661696c6564815250856001600160a01b0316611e079092919063ffffffff16565b905080515f14806118a95750808060200190518101906118a991906129b0565b610a325760405162461bcd60e51b815260206004820152602a60248201527f5361666545524332303a204552433230206f7065726174696f6e20646964206e6044820152691bdd081cdd58d8d9595960b21b6064820152608401610454565b5f611917848460600151611e15565b90505f5b8151811015611bea57835f01516001600160a01b0316828281518110611943576119436126d2565b60200260200101516001600160a01b03160315611bd85760025482515f916001600160a01b031690636805d6ad908890869086908110611985576119856126d2565b60200260200101516040518363ffffffff1660e01b81526004016119bf9291906001600160a01b0392831681529116602082015260400190565b602060405180830381865afa1580156119da573d5f803e3d5ffd5b505050506040513d601f19601f820116820180604052508101906119fe91906129cb565b9050805f03611a0d5750611bd8565b60025483516001600160a01b039091169063e63ea408908890869086908110611a3857611a386126d2565b60209081029190910101516040516001600160e01b031960e085901b1681526001600160a01b03928316600482015291166024820152604481018490526064015f604051808303815f87803b158015611a8f575f80fd5b505af1158015611aa1573d5f803e3d5ffd5b50505050611af060035f9054906101000a90046001600160a01b031682858581518110611ad057611ad06126d2565b60200260200101516001600160a01b03166120259092919063ffffffff16565b60035483516001600160a01b03909116906343d91bf190859085908110611b1957611b196126d2565b6020026020010151875f0151846101f44261012c611b3791906126fa565b6040516001600160e01b031960e088901b1681526001600160a01b03958616600482015294909316602485015260448401919091526064830152608482015260a40160408051808303815f875af1925050508015611bb2575060408051601f3d908101601f19168201909252611baf918101906129e2565b60015b15611bd6576002548751611bd3916001600160a01b03918216911684612025565b50505b505b80611be28161270d565b91505061191b565b5050505050565b5f8160600151611c0090612a04565b6002548351604051636805d6ad60e01b81526001600160a01b03878116600483015291821660248201529293505f92911690636805d6ad90604401602060405180830381865afa158015611c56573d5f803e3d5ffd5b505050506040513d601f19601f82011682018060405250810190611c7a91906129cb565b905081811015611c88578091505b815f03611c955750505050565b6002548351604051631cc7d48160e31b81526001600160a01b03878116600483015291821660248201526044810185905291169063e63ea408906064015f604051808303815f87803b158015611ce9575f80fd5b505af1158015611cfb573d5f803e3d5ffd5b505050505f611d09856120b3565b90506001600160a01b038116611d20575050505050565b6003548451611d3c916001600160a01b03918216911685612025565b60035484516001600160a01b03909116906343d91bf19083866101f4611d644261012c6126fa565b6040516001600160e01b031960e088901b1681526001600160a01b03958616600482015294909316602485015260448401919091526064830152608482015260a40160408051808303815f875af1925050508015611ddf575060408051601f3d908101601f19168201909252611ddc918101906129e2565b60015b15611bea57600254611dfe906001600160a01b03858116911684612025565b50505050505050565b606061092784845f856121dd565b600254604051631edb27e960e01b81526001600160a01b0384811660048301526060925f92911690631edb27e9906024015f60405180830381865afa158015611e60573d5f803e3d5ffd5b505050506040513d5f823e601f3d908101601f19168201604052611e87919081019061280f565b90505f815f01515167ffffffffffffffff811115611ea757611ea76127a1565b604051908082528060200260200182016040528015611ed0578160200160208202803683370190505b5090505f805b835151811015611f71575f845f01518281518110611ef657611ef66126d2565b6020026020010151602001511115611f5f578351805182908110611f1c57611f1c6126d2565b60200260200101515f0151838381518110611f3957611f396126d2565b6001600160a01b039092166020928302919091019091015281611f5b8161270d565b9250505b80611f698161270d565b915050611ed6565b505f8167ffffffffffffffff811115611f8c57611f8c6127a1565b604051908082528060200260200182016040528015611fb5578160200160208202803683370190505b5090505f5b8281101561201857838181518110611fd457611fd46126d2565b6020026020010151828281518110611fee57611fee6126d2565b6001600160a01b0390921660209283029190910190910152806120108161270d565b915050611fba565b5093505050505b92915050565b604080516001600160a01b038416602482015260448082018490528251808303909101815260649091019091526020810180516001600160e01b031663095ea7b360e01b17905261207684826122b4565b6117db576040516001600160a01b03841660248201525f60448201526120a990859063095ea7b360e01b90606401611607565b6117db8482611835565b6001600160a01b0381165f9081526005602090815260408083208151815460c09481028201850190935260a0810183815285949193849284919084018282801561212457602002820191905f5260205f20905b81546001600160a01b03168152600190910190602001808311612106575b505050505081526020016001820180548060200260200160405190810160405280929190818152602001828054801561217a57602002820191905f5260205f20905b815481526020019060010190808311612166575b5050509183525050600282015460208201526003820154604082015260049091015460ff1615156060909101528051519091505f036121bb57505f92915050565b805180515f906121cd576121cd6126d2565b6020026020010151915050919050565b60608247101561223e5760405162461bcd60e51b815260206004820152602660248201527f416464726573733a20696e73756666696369656e742062616c616e636520666f6044820152651c8818d85b1b60d21b6064820152608401610454565b5f80866001600160a01b031685876040516122599190612a40565b5f6040518083038185875af1925050503d805f8114612293576040519150601f19603f3d011682016040523d82523d5f602084013e612298565b606091505b50915091506122a987838387612355565b979650505050505050565b5f805f846001600160a01b0316846040516122cf9190612a40565b5f604051808303815f865af19150503d805f8114612308576040519150601f19603f3d011682016040523d82523d5f602084013e61230d565b606091505b509150915081801561233757508051158061233757508080602001905181019061233791906129b0565b801561234c57506001600160a01b0385163b15155b95945050505050565b606083156123c35782515f036123bc576001600160a01b0385163b6123bc5760405162461bcd60e51b815260206004820152601d60248201527f416464726573733a2063616c6c20746f206e6f6e2d636f6e74726163740000006044820152606401610454565b5081610927565b61092783838151156123d85781518083602001fd5b8060405162461bcd60e51b81526004016104549190612a5b565b828054828255905f5260205f20908101928215612445579160200282015b8281111561244557825182546001600160a01b0319166001600160a01b03909116178255602090920191600190910190612410565b5061245192915061248e565b5090565b828054828255905f5260205f20908101928215612445579160200282015b82811115612445578251825591602001919060010190612473565b5b80821115612451575f815560010161248f565b5f8083601f8401126124b2575f80fd5b50813567ffffffffffffffff8111156124c9575f80fd5b6020830191508360208260051b85010111156124e3575f80fd5b9250929050565b8015158114611297575f80fd5b5f805f805f805f60a0888a03121561250d575f80fd5b873567ffffffffffffffff80821115612524575f80fd5b6125308b838c016124a2565b909950975060208a0135915080821115612548575f80fd5b506125558a828b016124a2565b90965094505060408801359250606088013591506080880135612577816124ea565b8091505092959891949750929550565b6001600160a01b0381168114611297575f80fd5b5f602082840312156125ab575f80fd5b81356125b681612587565b9392505050565b602080825282518282018190525f919060409081850190868401855b8281101561261c57815180516001600160a01b031685528681015187860152858101518686015260609081015190850152608090930192908501906001016125d9565b5091979650505050505050565b5f806040838503121561263a575f80fd5b823561264581612587565b91506020830135612655816124ea565b809150509250929050565b5f805f60608486031215612672575f80fd5b833561267d81612587565b9250602084013561268d81612587565b9150604084013561269d81612587565b809150509250925092565b5f80604083850312156126b9575f80fd5b82356126c481612587565b946020939093013593505050565b634e487b7160e01b5f52603260045260245ffd5b634e487b7160e01b5f52601160045260245ffd5b8082018082111561201f5761201f6126e6565b5f6001820161271e5761271e6126e6565b5060010190565b604080825281018490525f8560608301825b8781101561276757823561274a81612587565b6001600160a01b0316825260209283019290910190600101612737565b5083810360208501528481526001600160fb1b03851115612786575f80fd5b8460051b915081866020830137016020019695505050505050565b634e487b7160e01b5f52604160045260245ffd5b6040516080810167ffffffffffffffff811182821017156127d8576127d86127a1565b60405290565b604051601f8201601f1916810167ffffffffffffffff81118282101715612807576128076127a1565b604052919050565b5f6020808385031215612820575f80fd5b825167ffffffffffffffff80821115612837575f80fd5b8185019150608080838803121561284c575f80fd5b6128546127b5565b835183811115612862575f80fd5b8401601f81018913612872575f80fd5b805184811115612884576128846127a1565b612892878260051b016127de565b818152878101955060079190911b82018701908a8211156128b1575f80fd5b918701915b8183101561291c5784838c0312156128cd575f8081fd5b6128d56127b5565b83516128e081612587565b815283890151898201526040808501519082015260608085015160ff81168114612909575f8081fd5b90820152865294870194918401916128b6565b835250508385015194810194909452505060408082015190830152606090810151908201529392505050565b8181038181111561201f5761201f6126e6565b808202811582820484141761201f5761201f6126e6565b5f8261298c57634e487b7160e01b5f52601260045260245ffd5b500490565b8181035f83128015838313168383128216171561182e5761182e6126e6565b5f602082840312156129c0575f80fd5b81516125b6816124ea565b5f602082840312156129db575f80fd5b5051919050565b5f80604083850312156129f3575f80fd5b505080516020909101519092909150565b5f600160ff1b8201612a1857612a186126e6565b505f0390565b5f5b83811015612a38578181015183820152602001612a20565b50505f910152565b5f8251612a51818460208701612a1e565b9190910192915050565b602081525f8251806020840152612a79816040850160208701612a1e565b601f01601f1916919091016040019291505056fea26469706673582212206f18f11e7e7c96333a870cffa29f720f3b21b59f7553fd07a83f627a3380a01064736f6c63430008140033",
  "linkReferences": {},
  "deployedLinkReferences": {},
  "immutableReferences": {},
  "inputSourceName": "project/contracts/PortfolioRebalancer.sol",
  "buildInfoId": "solc-0_8_20-c589a5f438ca614ab53578f9abd03cd0fa8f78bf"
}