{
  "_format": "hh3-artifact-1",
  "contractName": "CrossChainManager",
  "sourceName": "contracts/CrossChainManager.sol",
  "abi": [
    {
      "inputs": [
        {
          "internalType": "address",
          "name": "_litRelayContract",
          "type": "address"
        },
        {
          "internalType": "address",
          "name": "_litProtocolIntegration",
          "type": "address"
        }
      ],
      "stateMutability": "nonpayable",
      "type": "constructor"
    },
    {
      "anonymous": false,
      "inputs": [
        {
          "indexed": true,
          "internalType": "address",
          "name": "user",
          "type": "address"
        },
        {
          "indexed": true,
          "internalType": "address",
          "name": "token",
          "type": "address"
        },
        {
          "indexed": false,
          "internalType": "uint256",
          "name": "amount",
          "type": "uint256"
        },
        {
          "indexed": true,
          "internalType": "uint256",
          "name": "chainId",
          "type": "uint256"
        },
        {
          "indexed": false,
          "internalType": "bytes32",
          "name": "lockHash",
          "type": "bytes32"
        }
      ],
      "name": "AssetLocked",
      "type": "event"
    },
    {
      "anonymous": false,
      "inputs": [
        {
          "indexed": true,
          "internalType": "address",
          "name": "user",
          "type": "address"
        },
        {
          "indexed": true,
          "internalType": "address",
          "name": "token",
          "type": "address"
        },
        {
          "indexed": false,
          "internalType": "uint256",
          "name": "amount",
          "type": "uint256"
        },
        {
          "indexed": true,
          "internalType": "uint256",
          "name": "chainId",
          "type": "uint256"
        },
        {
          "indexed": false,
          "internalType": "bytes32",
          "name": "lockHash",
          "type": "bytes32"
        }
      ],
      "name": "AssetUnlocked",
      "type": "event"
    },
    {
      "anonymous": false,
      "inputs": [
        {
          "indexed": true,
          "internalType": "address",
          "name": "user",
          "type": "address"
        },
        {
          "indexed": false,
          "internalType": "uint256[]",
          "name": "chainIds",
          "type": "uint256[]"
        },
        {
          "indexed": false,
          "internalType": "uint256",
          "name": "timestamp",
          "type": "uint256"
        }
      ],
      "name": "CrossChainEmergencyTriggered",
      "type": "event"
    },
    {
      "anonymous": false,
      "inputs": [
        {
          "indexed": true,
          "internalType": "address",
          "name": "user",
          "type": "address"
        },
        {
          "indexed": true,
          "internalType": "bytes32",
          "name": "migrationHash",
          "type": "bytes32"
        },
        {
          "indexed": false,
          "internalType": "bool",
          "name": "success",
          "type": "bool"
        }
      ],
      "name": "CrossChainMigrationCompleted",
      "type": "event"
    },
    {
      "anonymous": false,
      "inputs": [
        {
          "indexed": true,
          "internalType": "address",
          "name": "user",
          "type": "address"
        },
        {
          "indexed": true,
          "internalType": "address",
          "name": "token",
          "type": "address"
        },
        {
          "indexed": false,
          "internalType": "uint256",
          "name": "amount",
          "type": "uint256"
        },
        {
          "indexed": false,
          "internalType": "uint256",
          "name": "sourceChainId",
          "type": "uint256"
        },
        {
          "indexed": false,
          "internalType": "uint256",
          "name": "targetChainId",
          "type": "uint256"
        },
        {
          "indexed": false,
          "internalType": "bytes32",
          "name": "migrationHash",
          "type": "bytes32"
        }
      ],
      "name": "CrossChainMigrationInitiated",
      "type": "event"
    },
    {
      "anonymous": false,
      "inputs": [
        {
          "indexed": true,
          "internalType": "address",
          "name": "previousOwner",
          "type": "address"
        },
        {
          "indexed": true,
          "internalType": "address",
          "name": "newOwner",
          "type": "address"
        }
      ],
      "name": "OwnershipTransferred",
      "type": "event"
    },
    {
      "inputs": [],
      "name": "CURRENT_CHAIN_ID",
      "outputs": [
        {
          "internalType": "uint256",
          "name": "",
          "type": "uint256"
        }
      ],
      "stateMutability": "view",
      "type": "function"
    },
    {
      "inputs": [],
      "name": "LOCK_TIMEOUT",
      "outputs": [
        {
          "internalType": "uint256",
          "name": "",
          "type": "uint256"
        }
      ],
      "stateMutability": "view",
      "type": "function"
    },
    {
      "inputs": [],
      "name": "MAX_SUPPORTED_CHAINS",
      "outputs": [
        {
          "internalType": "uint256",
          "name": "",
          "type": "uint256"
        }
      ],
      "stateMutability": "view",
      "type": "function"
    },
    {
      "inputs": [],
      "name": "MIGRATION_TIMEOUT",
      "outputs": [
        {
          "internalType": "uint256",
          "name": "",
          "type": "uint256"
        }
      ],
      "stateMutability": "view",
      "type": "function"
    },
    {
      "inputs": [
        {
          "internalType": "uint256",
          "name": "chainId",
          "type": "uint256"
        },
        {
          "internalType": "address",
          "name": "contractAddress",
          "type": "address"
        }
      ],
      "name": "addSupportedChain",
      "outputs": [],
      "stateMutability": "nonpayable",
      "type": "function"
    },
    {
      "inputs": [
        {
          "internalType": "address",
          "name": "",
          "type": "address"
        }
      ],
      "name": "authorizedRelayers",
      "outputs": [
        {
          "internalType": "bool",
          "name": "",
          "type": "bool"
        }
      ],
      "stateMutability": "view",
      "type": "function"
    },
    {
      "inputs": [
        {
          "internalType": "uint256",
          "name": "",
          "type": "uint256"
        }
      ],
      "name": "chainActive",
      "outputs": [
        {
          "internalType": "bool",
          "name": "",
          "type": "bool"
        }
      ],
      "stateMutability": "view",
      "type": "function"
    },
    {
      "inputs": [
        {
          "internalType": "uint256",
          "name": "",
          "type": "uint256"
        }
      ],
      "name": "chainContracts",
      "outputs": [
        {
          "internalType": "address",
          "name": "",
          "type": "address"
        }
      ],
      "stateMutability": "view",
      "type": "function"
    },
    {
      "inputs": [
        {
          "internalType": "uint256",
          "name": "",
          "type": "uint256"
        }
      ],
      "name": "chainNonces",
      "outputs": [
        {
          "internalType": "uint256",
          "name": "",
          "type": "uint256"
        }
      ],
      "stateMutability": "view",
      "type": "function"
    },
    {
      "inputs": [
        {
          "internalType": "bytes32",
          "name": "migrationHash",
          "type": "bytes32"
        },
        {
          "internalType": "bytes",
          "name": "signature",
          "type": "bytes"
        }
      ],
      "name": "completeCrossChainMigration",
      "outputs": [
        {
          "internalType": "bool",
          "name": "",
          "type": "bool"
        }
      ],
      "stateMutability": "nonpayable",
      "type": "function"
    },
    {
      "inputs": [
        {
          "internalType": "address",
          "name": "",
          "type": "address"
        }
      ],
      "name": "emergencyCoordinators",
      "outputs": [
        {
          "internalType": "bool",
          "name": "",
          "type": "bool"
        }
      ],
      "stateMutability": "view",
      "type": "function"
    },
    {
      "inputs": [],
      "name": "emergencyPauseAll",
      "outputs": [],
      "stateMutability": "nonpayable",
      "type": "function"
    },
    {
      "inputs": [],
      "name": "emergencyResumeAll",
      "outputs": [],
      "stateMutability": "nonpayable",
      "type": "function"
    },
    {
      "inputs": [
        {
          "internalType": "address",
          "name": "user",
          "type": "address"
        }
      ],
      "name": "getCrossChainPortfolio",
      "outputs": [
        {
          "components": [
            {
              "internalType": "address",
              "name": "user",
              "type": "address"
            },
            {
              "components": [
                {
                  "internalType": "address",
                  "name": "tokenAddress",
                  "type": "address"
                },
                {
                  "internalType": "uint256",
                  "name": "amount",
                  "type": "uint256"
                },
                {
                  "internalType": "uint256",
                  "name": "chainId",
                  "type": "uint256"
                },
                {
                  "internalType": "bool",
                  "name": "isLocked",
                  "type": "bool"
                },
                {
                  "internalType": "uint256",
                  "name": "lockTimestamp",
                  "type": "uint256"
                },
                {
                  "internalType": "bytes32",
                  "name": "lockHash",
                  "type": "bytes32"
                }
              ],
              "internalType": "struct ICrossChainManager.CrossChainAsset[]",
              "name": "assets",
              "type": "tuple[]"
            },
            {
              "internalType": "uint256",
              "name": "totalValueUSD",
              "type": "uint256"
            },
            {
              "internalType": "uint256",
              "name": "lastUpdated",
              "type": "uint256"
            },
            {
              "internalType": "uint256[]",
              "name": "supportedChains",
              "type": "uint256[]"
            }
          ],
          "internalType": "struct ICrossChainManager.CrossChainPortfolio",
          "name": "",
          "type": "tuple"
        }
      ],
      "stateMutability": "view",
      "type": "function"
    },
    {
      "inputs": [
        {
          "internalType": "bytes32",
          "name": "lockHash",
          "type": "bytes32"
        }
      ],
      "name": "getLockedAsset",
      "outputs": [
        {
          "components": [
            {
              "internalType": "address",
              "name": "tokenAddress",
              "type": "address"
            },
            {
              "internalType": "uint256",
              "name": "amount",
              "type": "uint256"
            },
            {
              "internalType": "uint256",
              "name": "chainId",
              "type": "uint256"
            },
            {
              "internalType": "bool",
              "name": "isLocked",
              "type": "bool"
            },
            {
              "internalType": "uint256",
              "name": "lockTimestamp",
              "type": "uint256"
            },
            {
              "internalType": "bytes32",
              "name": "lockHash",
              "type": "bytes32"
            }
          ],
          "internalType": "struct ICrossChainManager.CrossChainAsset",
          "name": "",
          "type": "tuple"
        }
      ],
      "stateMutability": "view",
      "type": "function"
    },
    {
      "inputs": [
        {
          "internalType": "bytes32",
          "name": "migrationHash",
          "type": "bytes32"
        }
      ],
      "name": "getMigrationStatus",
      "outputs": [
        {
          "components": [
            {
              "internalType": "address",
              "name": "user",
              "type": "address"
            },
            {
              "internalType": "address",
              "name": "tokenAddress",
              "type": "address"
            },
            {
              "internalType": "uint256",
              "name": "amount",
              "type": "uint256"
            },
            {
              "internalType": "uint256",
              "name": "sourceChainId",
              "type": "uint256"
            },
            {
              "internalType": "uint256",
              "name": "targetChainId",
              "type": "uint256"
            },
            {
              "internalType": "bytes32",
              "name": "migrationHash",
              "type": "bytes32"
            },
            {
              "internalType": "uint256",
              "name": "timestamp",
              "type": "uint256"
            },
            {
              "internalType": "bool",
              "name": "completed",
              "type": "bool"
            }
          ],
          "internalType": "struct ICrossChainManager.AssetMigration",
          "name": "",
          "type": "tuple"
        }
      ],
      "stateMutability": "view",
      "type": "function"
    },
    {
      "inputs": [],
      "name": "getSupportedChains",
      "outputs": [
        {
          "internalType": "uint256[]",
          "name": "",
          "type": "uint256[]"
        }
      ],
      "stateMutability": "view",
      "type": "function"
    },
    {
      "inputs": [
        {
          "internalType": "address",
          "name": "user",
          "type": "address"
        }
      ],
      "name": "getUserLockHashes",
      "outputs": [
        {
          "internalType": "bytes32[]",
          "name": "",
          "type": "bytes32[]"
        }
      ],
      "stateMutability": "view",
      "type": "function"
    },
    {
      "inputs": [
        {
          "internalType": "address",
          "name": "user",
          "type": "address"
        }
      ],
      "name": "getUserMigrationHashes",
      "outputs": [
        {
          "internalType": "bytes32[]",
          "name": "",
          "type": "bytes32[]"
        }
      ],
      "stateMutability": "view",
      "type": "function"
    },
    {
      "inputs": [
        {
          "internalType": "address",
          "name": "user",
          "type": "address"
        },
        {
          "internalType": "address",
          "name": "token",
          "type": "address"
        },
        {
          "internalType": "uint256",
          "name": "amount",
          "type": "uint256"
        },
        {
          "internalType": "uint256",
          "name": "targetChainId",
          "type": "uint256"
        }
      ],
      "name": "initiateCrossChainMigration",
      "outputs": [
        {
          "internalType": "bytes32",
          "name": "",
          "type": "bytes32"
        }
      ],
      "stateMutability": "nonpayable",
      "type": "function"
    },
    {
      "inputs": [
        {
          "internalType": "address",
          "name": "user",
          "type": "address"
        },
        {
          "internalType": "address",
          "name": "token",
          "type": "address"
        },
        {
          "internalType": "uint256",
          "name": "chainId",
          "type": "uint256"
        }
      ],
      "name": "isAssetLocked",
      "outputs": [
        {
          "internalType": "bool",
          "name": "",
          "type": "bool"
        }
      ],
      "stateMutability": "view",
      "type": "function"
    },
    {
      "inputs": [],
      "name": "litProtocolIntegration",
      "outputs": [
        {
          "internalType": "contract ILitProtocolIntegration",
          "name": "",
          "type": "address"
        }
      ],
      "stateMutability": "view",
      "type": "function"
    },
    {
      "inputs": [],
      "name": "litRelayContract",
      "outputs": [
        {
          "internalType": "contract ILitRelayContract",
          "name": "",
          "type": "address"
        }
      ],
      "stateMutability": "view",
      "type": "function"
    },
    {
      "inputs": [
        {
          "internalType": "address",
          "name": "user",
          "type": "address"
        },
        {
          "internalType": "address",
          "name": "token",
          "type": "address"
        },
        {
          "internalType": "uint256",
          "name": "amount",
          "type": "uint256"
        },
        {
          "internalType": "uint256",
          "name": "targetChainId",
          "type": "uint256"
        }
      ],
      "name": "lockAsset",
      "outputs": [
        {
          "internalType": "bytes32",
          "name": "",
          "type": "bytes32"
        }
      ],
      "stateMutability": "nonpayable",
      "type": "function"
    },
    {
      "inputs": [
        {
          "internalType": "bytes32",
          "name": "",
          "type": "bytes32"
        }
      ],
      "name": "lockedAssets",
      "outputs": [
        {
          "internalType": "address",
          "name": "tokenAddress",
          "type": "address"
        },
        {
          "internalType": "uint256",
          "name": "amount",
          "type": "uint256"
        },
        {
          "internalType": "uint256",
          "name": "chainId",
          "type": "uint256"
        },
        {
          "internalType": "bool",
          "name": "isLocked",
          "type": "bool"
        },
        {
          "internalType": "uint256",
          "name": "lockTimestamp",
          "type": "uint256"
        },
        {
          "internalType": "bytes32",
          "name": "lockHash",
          "type": "bytes32"
        }
      ],
      "stateMutability": "view",
      "type": "function"
    },
    {
      "inputs": [
        {
          "internalType": "bytes32",
          "name": "",
          "type": "bytes32"
        }
      ],
      "name": "migrations",
      "outputs": [
        {
          "internalType": "address",
          "name": "user",
          "type": "address"
        },
        {
          "internalType": "address",
          "name": "tokenAddress",
          "type": "address"
        },
        {
          "internalType": "uint256",
          "name": "amount",
          "type": "uint256"
        },
        {
          "internalType": "uint256",
          "name": "sourceChainId",
          "type": "uint256"
        },
        {
          "internalType": "uint256",
          "name": "targetChainId",
          "type": "uint256"
        },
        {
          "internalType": "bytes32",
          "name": "migrationHash",
          "type": "bytes32"
        },
        {
          "internalType": "uint256",
          "name": "timestamp",
          "type": "uint256"
        },
        {
          "internalType": "bool",
          "name": "completed",
          "type": "bool"
        }
      ],
      "stateMutability": "view",
      "type": "function"
    },
    {
      "inputs": [],
      "name": "owner",
      "outputs": [
        {
          "internalType": "address",
          "name": "",
          "type": "address"
        }
      ],
      "stateMutability": "view",
      "type": "function"
    },
    {
      "inputs": [
        {
          "internalType": "bytes32",
          "name": "",
          "type": "bytes32"
        }
      ],
      "name": "processedMessages",
      "outputs": [
        {
          "internalType": "bool",
          "name": "",
          "type": "bool"
        }
      ],
      "stateMutability": "view",
      "type": "function"
    },
    {
      "inputs": [
        {
          "internalType": "uint256",
          "name": "chainId",
          "type": "uint256"
        }
      ],
      "name": "removeSupportedChain",
      "outputs": [],
      "stateMutability": "nonpayable",
      "type": "function"
    },
    {
      "inputs": [],
      "name": "renounceOwnership",
      "outputs": [],
      "stateMutability": "nonpayable",
      "type": "function"
    },
    {
      "inputs": [
        {
          "internalType": "address",
          "name": "relayer",
          "type": "address"
        },
        {
          "internalType": "bool",
          "name": "authorized",
          "type": "bool"
        }
      ],
      "name": "setAuthorizedRelayer",
      "outputs": [],
      "stateMutability": "nonpayable",
      "type": "function"
    },
    {
      "inputs": [
        {
          "internalType": "uint256",
          "name": "chainId",
          "type": "uint256"
        },
        {
          "internalType": "bool",
          "name": "active",
          "type": "bool"
        }
      ],
      "name": "setChainActive",
      "outputs": [],
      "stateMutability": "nonpayable",
      "type": "function"
    },
    {
      "inputs": [
        {
          "internalType": "address",
          "name": "coordinator",
          "type": "address"
        },
        {
          "internalType": "bool",
          "name": "authorized",
          "type": "bool"
        }
      ],
      "name": "setEmergencyCoordinator",
      "outputs": [],
      "stateMutability": "nonpayable",
      "type": "function"
    },
    {
      "inputs": [
        {
          "internalType": "uint256",
          "name": "",
          "type": "uint256"
        }
      ],
      "name": "supportedChains",
      "outputs": [
        {
          "internalType": "bool",
          "name": "",
          "type": "bool"
        }
      ],
      "stateMutability": "view",
      "type": "function"
    },
    {
      "inputs": [
        {
          "internalType": "uint256",
          "name": "",
          "type": "uint256"
        }
      ],
      "name": "supportedChainsList",
      "outputs": [
        {
          "internalType": "uint256",
          "name": "",
          "type": "uint256"
        }
      ],
      "stateMutability": "view",
      "type": "function"
    },
    {
      "inputs": [
        {
          "internalType": "address",
          "name": "newOwner",
          "type": "address"
        }
      ],
      "name": "transferOwnership",
      "outputs": [],
      "stateMutability": "nonpayable",
      "type": "function"
    },
    {
      "inputs": [
        {
          "internalType": "address",
          "name": "user",
          "type": "address"
        },
        {
          "internalType": "bytes32",
          "name": "lockHash",
          "type": "bytes32"
        },
        {
          "internalType": "bytes",
          "name": "signature",
          "type": "bytes"
        }
      ],
      "name": "unlockAsset",
      "outputs": [
        {
          "internalType": "bool",
          "name": "",
          "type": "bool"
        }
      ],
      "stateMutability": "nonpayable",
      "type": "function"
    },
    {
      "inputs": [
        {
          "internalType": "address",
          "name": "",
          "type": "address"
        },
        {
          "internalType": "uint256",
          "name": "",
          "type": "uint256"
        }
      ],
      "name": "userLockHashes",
      "outputs": [
        {
          "internalType": "bytes32",
          "name": "",
          "type": "bytes32"
        }
      ],
      "stateMutability": "view",
      "type": "function"
    },
    {
      "inputs": [
        {
          "internalType": "address",
          "name": "",
          "type": "address"
        },
        {
          "internalType": "uint256",
          "name": "",
          "type": "uint256"
        }
      ],
      "name": "userMigrationHashes",
      "outputs": [
        {
          "internalType": "bytes32",
          "name": "",
          "type": "bytes32"
        }
      ],
      "stateMutability": "view",
      "type": "function"
    },
    {
      "inputs": [
        {
          "internalType": "address",
          "name": "",
          "type": "address"
        }
      ],
      "name": "userPortfolios",
      "outputs": [
        {
          "internalType": "address",
          "name": "user",
          "type": "address"
        },
        {
          "internalType": "uint256",
          "name": "totalValueUSD",
          "type": "uint256"
        },
        {
          "internalType": "uint256",
          "name": "lastUpdated",
          "type": "uint256"
        }
      ],
      "stateMutability": "view",
      "type": "function"
    }
  ],
  "bytecode": "0x60a060405234801562000010575f80fd5b50604051620036da380380620036da83398101604081905262000033916200022f565b6200003e33620001c4565b600180556001600160a01b0382166200009e5760405162461bcd60e51b815260206004820152601a60248201527f496e76616c6964204c69742052656c617920436f6e747261637400000000000060448201526064015b60405180910390fd5b6001600160a01b038116620000f65760405162461bcd60e51b815260206004820181905260248201527f496e76616c6964204c69742050726f746f636f6c20496e746567726174696f6e604482015260640162000095565b600280546001600160a01b039384166001600160a01b0319918216179091556003805492909316918116919091179091554660808190525f818152600960209081526040808320805460ff199081166001908117909255600b84528285208054821683179055600a845282852080549097163017909655600c80548083019091557fdf6966c971051c3d54ec59162606531493a51404a002842f56009d7e5cf4a8c70194909455338352600f8252808320805486168517905560109091529020805490921617905562000265565b5f80546001600160a01b038381166001600160a01b0319831681178455604051919092169283917f8be0079c531659141344cd1fd0a4f28419497f9722a3daafe3b4186f6b6457e09190a35050565b80516001600160a01b03811681146200022a575f80fd5b919050565b5f806040838503121562000241575f80fd5b6200024c8362000213565b91506200025c6020840162000213565b90509250929050565b608051613408620002d25f395f818161062b0152818161097001528181610b57015281816110b10152818161113501528181611241015281816113280152818161160c0152818161169001528181611729015281816117ea015281816121cc01526123e101526134085ff3fe608060405234801561000f575f80fd5b506004361061023f575f3560e01c806388ba16ab11610135578063ba058643116100b4578063e0643af211610079578063e0643af21461087d578063ee4fbf1b14610890578063ee99f60b146108b2578063f2fde38b146108c5578063f583ef2c146108d8575f80fd5b8063ba0586431461070e578063c4bffe2b14610721578063c79dc1ec14610736578063d391d544146107c1578063d4caed8d1461086a575f80fd5b8063974748ec116100fa578063974748ec14610660578063a375d80714610673578063a5c15b4e1461067c578063af1357ab1461069e578063b61920c1146106b1575f80fd5b806388ba16ab146105d45780638ba39fbe146105f65780638da5cb5b146106165780638e98e0b9146106265780639011e5f91461064d575f80fd5b80635d126f33116101c1578063730dd78311610186578063730dd7831461057457806377e4f2581461058757806379c918cf1461059a5780637da670a0146105b957806385202e4d146105c1575f80fd5b80635d126f331461051a57806360ddc88d146105315780636e83c57314610544578063715018a61461054c57806371fd2e5014610554575f80fd5b806317011baf1161020757806317011baf146103d457806329a4287c146103e757806329e295c5146104965780632a5d091d146104b8578063548d496f146104f8575f80fd5b80630775ef0f1461024357806308513de31461024d5780630b02114c146102755780630c4844aa146103ae5780630c59aa03146103c1575b5f80fd5b61024b6108eb565b005b61026061025b366004612be7565b610a09565b60405190151581526020015b60405180910390f35b610340610283366004612c25565b60408051610100810182525f80825260208201819052918101829052606081018290526080810182905260a0810182905260c0810182905260e0810191909152505f9081526006602081815260409283902083516101008101855281546001600160a01b039081168252600183015416928101929092526002810154938201939093526003830154606082015260048301546080820152600583015460a08201529082015460c082015260079091015460ff16151560e082015290565b60405161026c91905f6101008201905060018060a01b038084511683528060208501511660208401525060408301516040830152606083015160608301526080830151608083015260a083015160a083015260c083015160c083015260e0830151151560e083015292915050565b61024b6103bc366004612c25565b610b4d565b61024b6103cf366004612c49565b610ce1565b61024b6103e2366004612c80565b610d69565b6104896103f5366004612c25565b6040805160c0810182525f80825260208201819052918101829052606081018290526080810182905260a0810191909152505f90815260056020818152604092839020835160c08101855281546001600160a01b03168152600182015492810192909252600281015493820193909352600383015460ff16151560608201526004830154608082015291015460a082015290565b60405161026c9190612ce5565b6102606104a4366004612cf9565b600f6020525f908152604090205460ff1681565b6104e06104c6366004612c25565b600a6020525f90815260409020546001600160a01b031681565b6040516001600160a01b03909116815260200161026c565b610260610506366004612c25565b60096020525f908152604090205460ff1681565b610523611c2081565b60405190815260200161026c565b61052361053f366004612d14565b610f30565b61024b6113a4565b61024b61140f565b610567610562366004612cf9565b611422565b60405161026c9190612d57565b610523610582366004612d14565b61148b565b6002546104e0906001600160a01b031681565b6105236105a8366004612c25565b600e6020525f908152604090205481565b610523600a81565b6003546104e0906001600160a01b031681565b6102606105e2366004612c25565b600d6020525f908152604090205460ff1681565b610609610604366004612cf9565b61186b565b60405161026c9190612dd3565b5f546001600160a01b03166104e0565b6105237f000000000000000000000000000000000000000000000000000000000000000081565b61024b61065b366004612c49565b611a04565b61026061066e366004612eb7565b611a8c565b610523610e1081565b61026061068a366004612cf9565b60106020525f908152604090205460ff1681565b6105236106ac366004612f0f565b611dfd565b6106e96106bf366004612cf9565b60046020525f90815260409020805460028201546003909201546001600160a01b03909116919083565b604080516001600160a01b03909416845260208401929092529082015260600161026c565b61052361071c366004612f0f565b611e28565b610729611e41565b60405161026c9190612f39565b610788610744366004612c25565b600560208190525f91825260409091208054600182015460028301546003840154600485015494909501546001600160a01b03909316949193909260ff9092169186565b604080516001600160a01b03909716875260208701959095529385019290925215156060840152608083015260a082015260c00161026c565b6108226107cf366004612c25565b600660208190525f9182526040909120805460018201546002830154600384015460048501546005860154968601546007909601546001600160a01b039586169795909416959294919390929060ff1688565b604080516001600160a01b03998a168152989097166020890152958701949094526060860192909252608085015260a084015260c0830152151560e08201526101000161026c565b610567610878366004612cf9565b611e97565b61026061088b366004612f4b565b611efe565b61026061089e366004612c25565b600b6020525f908152604090205460ff1681565b6105236108c0366004612c25565b612244565b61024b6108d3366004612cf9565b612263565b61024b6108e6366004612f93565b6122d9565b335f9081526010602052604090205460ff168061091157505f546001600160a01b031633145b6109625760405162461bcd60e51b815260206004820152601960248201527f4e6f7420656d657267656e637920636f6f7264696e61746f720000000000000060448201526064015b60405180910390fd5b5f5b600c54811015610a06577f0000000000000000000000000000000000000000000000000000000000000000600c82815481106109a2576109a2612fb6565b905f5260205f200154146109f4575f600b5f600c84815481106109c7576109c7612fb6565b905f5260205f20015481526020019081526020015f205f6101000a81548160ff0219169083151502179055505b806109fe81612fde565b915050610964565b50565b6001600160a01b0383165f90815260076020908152604080832080548251818502810185019093528083528493830182828015610a6357602002820191905f5260205f20905b815481526020019060010190808311610a4f575b505050505090505f5b8151811015610b40575f60055f848481518110610a8b57610a8b612fb6565b60209081029190910181015182528181019290925260409081015f20815160c08101835281546001600160a01b03908116808352600184015495830195909552600283015493820193909352600382015460ff16151560608201526004820154608082015260059091015460a082015292508716148015610b0f5750848160400151145b8015610b1c575080606001515b15610b2d5760019350505050610b46565b5080610b3881612fde565b915050610a6c565b505f9150505b9392505050565b610b5561232d565b7f00000000000000000000000000000000000000000000000000000000000000008103610bc45760405162461bcd60e51b815260206004820152601b60248201527f43616e6e6f742072656d6f76652063757272656e7420636861696e00000000006044820152606401610959565b5f8181526009602052604090205460ff16610bf15760405162461bcd60e51b815260040161095990612ff6565b5f818152600960209081526040808320805460ff19908116909155600b835281842080549091169055600a909152812080546001600160a01b03191690555b600c54811015610cdd5781600c8281548110610c4e57610c4e612fb6565b905f5260205f20015403610ccb57600c8054610c6c90600190613023565b81548110610c7c57610c7c612fb6565b905f5260205f200154600c8281548110610c9857610c98612fb6565b5f91825260209091200155600c805480610cb457610cb4613036565b600190038181905f5260205f20015f905590555050565b80610cd581612fde565b915050610c30565b5050565b610ce961232d565b6001600160a01b038216610d3f5760405162461bcd60e51b815260206004820152601b60248201527f496e76616c696420636f6f7264696e61746f72206164647265737300000000006044820152606401610959565b6001600160a01b03919091165f908152601060205260409020805460ff1916911515919091179055565b610d7161232d565b5f8211610db35760405162461bcd60e51b815260206004820152601060248201526f125b9d985b1a590818da185a5b88125160821b6044820152606401610959565b6001600160a01b038116610e095760405162461bcd60e51b815260206004820152601860248201527f496e76616c696420636f6e7472616374206164647265737300000000000000006044820152606401610959565b5f8281526009602052604090205460ff1615610e675760405162461bcd60e51b815260206004820152601760248201527f436861696e20616c726561647920737570706f727465640000000000000000006044820152606401610959565b600c54600a11610eab5760405162461bcd60e51b815260206004820152600f60248201526e546f6f206d616e7920636861696e7360881b6044820152606401610959565b5f8281526009602090815260408083208054600160ff199182168117909255600b8452828520805490911682179055600a909252822080546001600160a01b0319166001600160a01b039490941693909317909255600c8054928301815590527fdf6966c971051c3d54ec59162606531493a51404a002842f56009d7e5cf4a8c70155565b335f908152600f602052604081205460ff1680610f5657505f546001600160a01b031633145b610f725760405162461bcd60e51b81526004016109599061304a565b846001600160a01b038116610f995760405162461bcd60e51b81526004016109599061307a565b5f83815260096020526040902054839060ff16610fc85760405162461bcd60e51b815260040161095990612ff6565b5f818152600b602052604090205460ff166110185760405162461bcd60e51b815260206004820152601060248201526f436861696e206e6f742061637469766560801b6044820152606401610959565b6001600160a01b0386166110665760405162461bcd60e51b8152602060048201526015602482015274496e76616c696420746f6b656e206164647265737360581b6044820152606401610959565b5f85116110af5760405162461bcd60e51b8152602060048201526017602482015276416d6f756e74206d75737420626520706f73697469766560481b6044820152606401610959565b7f0000000000000000000000000000000000000000000000000000000000000000840361111e5760405162461bcd60e51b815260206004820152601c60248201527f43616e6e6f74206d69677261746520746f2073616d6520636861696e000000006044820152606401610959565b5f848152600e6020526040812080548991899189917f0000000000000000000000000000000000000000000000000000000000000000918a914291908861116483612fde565b9190505560405160200161117e97969594939291906130a8565b60408051808303601f1901815290829052805160209091012063730dd78360e01b82526001600160a01b03808b16600484015289166024830152604482018890526064820187905291505f90309063730dd783906084016020604051808303815f875af11580156111f1573d5f803e3d5ffd5b505050506040513d601f19601f8201168201806040525081019061121591906130eb565b60408051610100810182526001600160a01b03808d168083528c821660208085019182528486018e81527f000000000000000000000000000000000000000000000000000000000000000060608701908152608087018f815260a088018c81524260c08a019081525f60e08b018181528f825260068089528d83208d518154908e166001600160a01b03199182161782559a516001828101805492909f1691909c1617909c55965160028c0155945160038b0155925160048a0155905160058901555192870192909255516007909501805495151560ff199096169590951790945591835260088252938220805494850181558252902090910184905590915061131f8183612386565b604080518981527f00000000000000000000000000000000000000000000000000000000000000006020820152908101889052606081018490526001600160a01b03808b1691908c16907f7b2a9bd658798adc35066bce1c5133cbfdb558f1492d7acdd0d23a2b89995e509060800160405180910390a3509098975050505050505050565b6113ac61232d565b5f5b600c54811015610a06576001600b5f600c84815481106113d0576113d0612fb6565b905f5260205f20015481526020019081526020015f205f6101000a81548160ff021916908315150217905550808061140790612fde565b9150506113ae565b61141761232d565b6114205f6124c0565b565b6001600160a01b0381165f9081526008602090815260409182902080548351818402810184019094528084526060939283018282801561147f57602002820191905f5260205f20905b81548152602001906001019080831161146b575b50505050509050919050565b335f908152600f602052604081205460ff16806114b157505f546001600160a01b031633145b6114cd5760405162461bcd60e51b81526004016109599061304a565b846001600160a01b0381166114f45760405162461bcd60e51b81526004016109599061307a565b5f83815260096020526040902054839060ff166115235760405162461bcd60e51b815260040161095990612ff6565b5f818152600b602052604090205460ff166115735760405162461bcd60e51b815260206004820152601060248201526f436861696e206e6f742061637469766560801b6044820152606401610959565b6001600160a01b0386166115c15760405162461bcd60e51b8152602060048201526015602482015274496e76616c696420746f6b656e206164647265737360581b6044820152606401610959565b5f851161160a5760405162461bcd60e51b8152602060048201526017602482015276416d6f756e74206d75737420626520706f73697469766560481b6044820152606401610959565b7f000000000000000000000000000000000000000000000000000000000000000084036116795760405162461bcd60e51b815260206004820152601a60248201527f43616e6e6f74206c6f636b20666f722073616d6520636861696e0000000000006044820152606401610959565b5f848152600e6020526040812080548991899189917f0000000000000000000000000000000000000000000000000000000000000000918a91429190886116bf83612fde565b919050556040516020016116d997969594939291906130a8565b60408051601f19818403018152919052805160209091012090506117086001600160a01b03881633308961250f565b6040805160c0810182526001600160a01b03898116825260208083018a81527f0000000000000000000000000000000000000000000000000000000000000000848601818152600160608701818152426080890190815260a089018b81525f8c81526005808a528c82208c5181546001600160a01b031916908d1617815598518987015595516002890155925160038801805460ff191691151591909117905590516004870155519490920193909355938e1684526007835294832080548083018255908452919092200184905590916117e8918b918b918b9190612580565b7f0000000000000000000000000000000000000000000000000000000000000000886001600160a01b03168a6001600160a01b03167ff0e2922cec6be780b0840f6bd32fa28d0f80da3717b391e88c69dfcb97f2133f8a86604051611857929190918252602082015260400190565b60405180910390a450979650505050505050565b6118a36040518060a001604052805f6001600160a01b03168152602001606081526020015f81526020015f8152602001606081525090565b816001600160a01b0381166118ca5760405162461bcd60e51b81526004016109599061307a565b6001600160a01b038084165f908152600460209081526040808320815160a0810183528154909516855260018101805483518186028101860190945280845291948685019491929184015b8282101561198a575f8481526020908190206040805160c0810182526006860290920180546001600160a01b0316835260018082015484860152600282015492840192909252600381015460ff1615156060840152600481015460808401526005015460a08301529083529092019101611915565b5050505081526020016002820154815260200160038201548152602001600482018054806020026020016040519081016040528092919081815260200182805480156119f357602002820191905f5260205f20905b8154815260200190600101908083116119df575b505050505081525050915050919050565b611a0c61232d565b6001600160a01b038216611a625760405162461bcd60e51b815260206004820152601760248201527f496e76616c69642072656c6179657220616464726573730000000000000000006044820152606401610959565b6001600160a01b03919091165f908152600f60205260409020805460ff1916911515919091179055565b335f908152600f602052604081205460ff1680611ab257505f546001600160a01b031633145b611ace5760405162461bcd60e51b81526004016109599061304a565b846001600160a01b038116611af55760405162461bcd60e51b81526004016109599061307a565b611afd6127f3565b5f858152600560205260409020600381015460ff16611b515760405162461bcd60e51b815260206004820152601060248201526f105cdcd95d081b9bdd081b1bd8dad95960821b6044820152606401610959565b85816005015414611b985760405162461bcd60e51b8152602060048201526011602482015270092dcecc2d8d2c840d8dec6d640d0c2e6d607b1b6044820152606401610959565b610e108160040154611baa9190613102565b421115611be85760405162461bcd60e51b815260206004820152600c60248201526b131bd8dac8195e1c1a5c995960a21b6044820152606401610959565b6040516001600160601b0319606089901b166020820152603481018790524260548201525f906074016040516020818303038152906040528051906020012090505f604051806080016040528088888080601f0160208091040260200160405190810160405280939291908181526020018383808284375f92019190915250505090825250602001611c798b61284c565b6001600160a01b0390811682524260208301526040918201859052600254915163efadf7c760e01b8152929350169063efadf7c790611cbe9084908690600401613162565b6020604051808303815f875af1158015611cda573d5f803e3d5ffd5b505050506040513d601f19601f82011682018060405250810190611cfe91906131c6565b611d425760405162461bcd60e51b8152602060048201526015602482015274496e76616c696420504b50207369676e617475726560581b6044820152606401610959565b60038301805460ff1916905560018301548354611d6c916001600160a01b039091169033906128e1565b825460018401546002850154611d90928c926001600160a01b03909116915f612580565b60028301548354600185015460408051918252602082018c90526001600160a01b03928316928d16917fa4ae1e73f0a500d12f77702dbaeaf1572a562911ebb854dec93f2137fc52f395910160405180910390a460019450505050611df460018055565b50949350505050565b6007602052815f5260405f208181548110611e16575f80fd5b905f5260205f20015f91509150505481565b6008602052815f5260405f208181548110611e16575f80fd5b6060600c805480602002602001604051908101604052809291908181526020018280548015611e8d57602002820191905f5260205f20905b815481526020019060010190808311611e79575b5050505050905090565b6001600160a01b0381165f9081526007602090815260409182902080548351818402810184019094528084526060939283018282801561147f57602002820191905f5260205f209081548152602001906001019080831161146b5750505050509050919050565b335f908152600f602052604081205460ff1680611f2457505f546001600160a01b031633145b611f405760405162461bcd60e51b81526004016109599061304a565b611f486127f3565b5f848152600660205260409020600781015460ff1615611faa5760405162461bcd60e51b815260206004820152601b60248201527f4d6967726174696f6e20616c726561647920636f6d706c6574656400000000006044820152606401610959565b84816005015414611ff65760405162461bcd60e51b8152602060048201526016602482015275092dcecc2d8d2c840dad2cee4c2e8d2dedc40d0c2e6d60531b6044820152606401610959565b611c2081600601546120089190613102565b42111561204b5760405162461bcd60e51b8152602060048201526011602482015270135a59dc985d1a5bdb88195e1c1a5c9959607a1b6044820152606401610959565b805460405160609190911b6001600160601b0319166020820152603481018690524260548201525f906074016040516020818303038152906040528051906020012090505f604051806080016040528087878080601f0160208091040260200160405190810160405280939291908181526020018383808284375f9201919091525050509082525084546020909101906120ed906001600160a01b031661284c565b6001600160a01b0390811682524260208301526040918201859052600254915163efadf7c760e01b8152929350169063efadf7c7906121329084908690600401613162565b6020604051808303815f875af115801561214e573d5f803e3d5ffd5b505050506040513d601f19601f8201168201806040525081019061217291906131c6565b6121b65760405162461bcd60e51b8152602060048201526015602482015274496e76616c696420504b50207369676e617475726560581b6044820152606401610959565b60078301805460ff1916600117905560048301547f000000000000000000000000000000000000000000000000000000000000000090036122345782546040516001815288916001600160a01b0316907fa71870af075309bd78ec9f16679f2cb95fa48e0efc3513b1b4f76be9318481919060200160405180910390a35b60019350505050610b4660018055565b600c8181548110612253575f80fd5b5f91825260209091200154905081565b61226b61232d565b6001600160a01b0381166122d05760405162461bcd60e51b815260206004820152602660248201527f4f776e61626c653a206e6577206f776e657220697320746865207a65726f206160448201526564647265737360d01b6064820152608401610959565b610a06816124c0565b6122e161232d565b5f8281526009602052604090205460ff1661230e5760405162461bcd60e51b815260040161095990612ff6565b5f918252600b6020526040909120805460ff1916911515919091179055565b5f546001600160a01b031633146114205760405162461bcd60e51b815260206004820181905260248201527f4f776e61626c653a2063616c6c6572206973206e6f7420746865206f776e65726044820152606401610959565b5f8260a001516040516024016123ac9181526040602082018190525f9082015260600190565b60408051601f19818403018152918152602080830180516001600160e01b03166370321d7960e11b179052815160e0810183527f000000000000000000000000000000000000000000000000000000000000000081526080808801805183850152308386015280515f908152600a8552858120546001600160a01b03908116606086015292840187905290518152600e909352918390205460a08201524260c0820152600254925163ec907f2760e01b81529394509291169063ec907f27906124799084906004016131e1565b6020604051808303815f875af1158015612495573d5f803e3d5ffd5b505050506040513d601f19601f820116820180604052508101906124b991906130eb565b5050505050565b5f80546001600160a01b038381166001600160a01b0319831681178455604051919092169283917f8be0079c531659141344cd1fd0a4f28419497f9722a3daafe3b4186f6b6457e09190a35050565b6040516001600160a01b038085166024830152831660448201526064810182905261257a9085906323b872dd60e01b906084015b60408051601f198184030181529190526020810180516001600160e01b03166001600160e01b031990931692909217909152612916565b50505050565b6001600160a01b038086165f90815260046020526040902080549091166125ce5780546001600160a01b0319166001600160a01b038716178155600c80546125cc916004840191612b73565b505b5f805b600183015481101561273457866001600160a01b03168360010182815481106125fc576125fc612fb6565b5f9182526020909120600690910201546001600160a01b031614801561264557508483600101828154811061263357612633612fb6565b905f5260205f20906006020160020154145b1561272257831561268e578583600101828154811061266657612666612fb6565b905f5260205f2090600602016001015f8282546126839190613102565b909155506127199050565b858360010182815481106126a4576126a4612fb6565b905f5260205f2090600602016001015410156126c0575f6126f0565b858360010182815481106126d6576126d6612fb6565b905f5260205f209060060201600101546126f09190613023565b83600101828154811061270557612705612fb6565b905f5260205f209060060201600101819055505b60019150612734565b8061272c81612fde565b9150506125d1565b50801580156127405750825b156127e4576040805160c0810182526001600160a01b038881168252602080830189815293830188815260016060850181815242608087019081525f60a088018181528b850180548087018255908352969091209751600690960290970180546001600160a01b03191695909616949094178555955190840155516002830155925160038201805460ff191691151591909117905591516004830155516005909101555b50426003909101555050505050565b6002600154036128455760405162461bcd60e51b815260206004820152601f60248201527f5265656e7472616e637947756172643a207265656e7472616e742063616c6c006044820152606401610959565b6002600155565b6003545f906001600160a01b0316156128da5760035460405163996c5d1f60e01b81526001600160a01b0384811660048301529091169063996c5d1f906024015f60405180830381865afa9250505080156128c857506040513d5f823e601f3d908101601f191682016040526128c591908101906132c1565b60015b6128d357505f919050565b5192915050565b505f919050565b6040516001600160a01b03831660248201526044810182905261291190849063a9059cbb60e01b90606401612543565b505050565b5f61296a826040518060400160405280602081526020017f5361666545524332303a206c6f772d6c6576656c2063616c6c206661696c6564815250856001600160a01b03166129e99092919063ffffffff16565b905080515f148061298a57508080602001905181019061298a91906131c6565b6129115760405162461bcd60e51b815260206004820152602a60248201527f5361666545524332303a204552433230206f7065726174696f6e20646964206e6044820152691bdd081cdd58d8d9595960b21b6064820152608401610959565b60606129f784845f856129ff565b949350505050565b606082471015612a605760405162461bcd60e51b815260206004820152602660248201527f416464726573733a20696e73756666696369656e742062616c616e636520666f6044820152651c8818d85b1b60d21b6064820152608401610959565b5f80866001600160a01b03168587604051612a7b91906133a5565b5f6040518083038185875af1925050503d805f8114612ab5576040519150601f19603f3d011682016040523d82523d5f602084013e612aba565b606091505b5091509150612acb87838387612ad6565b979650505050505050565b60608315612b445782515f03612b3d576001600160a01b0385163b612b3d5760405162461bcd60e51b815260206004820152601d60248201527f416464726573733a2063616c6c20746f206e6f6e2d636f6e74726163740000006044820152606401610959565b50816129f7565b6129f78383815115612b595781518083602001fd5b8060405162461bcd60e51b815260040161095991906133c0565b828054828255905f5260205f20908101928215612baf575f5260205f209182015b82811115612baf578254825591600101919060010190612b94565b50612bbb929150612bbf565b5090565b5b80821115612bbb575f8155600101612bc0565b6001600160a01b0381168114610a06575f80fd5b5f805f60608486031215612bf9575f80fd5b8335612c0481612bd3565b92506020840135612c1481612bd3565b929592945050506040919091013590565b5f60208284031215612c35575f80fd5b5035919050565b8015158114610a06575f80fd5b5f8060408385031215612c5a575f80fd5b8235612c6581612bd3565b91506020830135612c7581612c3c565b809150509250929050565b5f8060408385031215612c91575f80fd5b823591506020830135612c7581612bd3565b80516001600160a01b0316825260208082015190830152604080820151908301526060808201511515908301526080808201519083015260a090810151910152565b60c08101612cf38284612ca3565b92915050565b5f60208284031215612d09575f80fd5b8135610b4681612bd3565b5f805f8060808587031215612d27575f80fd5b8435612d3281612bd3565b93506020850135612d4281612bd3565b93969395505050506040820135916060013590565b602080825282518282018190525f9190848201906040850190845b81811015612d8e57835183529284019291840191600101612d72565b50909695505050505050565b5f8151808452602080850194508084015f5b83811015612dc857815187529582019590820190600101612dac565b509495945050505050565b602080825282516001600160a01b0316828201528281015160a06040840152805160c08085018290525f9392909190830190849060e08701905b80831015612e3457612e20828551612ca3565b928501926001929092019190840190612e0d565b50604088015160608801526060880151608088015260808801519450601f198782030160a0880152612e668186612d9a565b98975050505050505050565b5f8083601f840112612e82575f80fd5b50813567ffffffffffffffff811115612e99575f80fd5b602083019150836020828501011115612eb0575f80fd5b9250929050565b5f805f8060608587031215612eca575f80fd5b8435612ed581612bd3565b935060208501359250604085013567ffffffffffffffff811115612ef7575f80fd5b612f0387828801612e72565b95989497509550505050565b5f8060408385031215612f20575f80fd5b8235612f2b81612bd3565b946020939093013593505050565b602081525f610b466020830184612d9a565b5f805f60408486031215612f5d575f80fd5b83359250602084013567ffffffffffffffff811115612f7a575f80fd5b612f8686828701612e72565b9497909650939450505050565b5f8060408385031215612fa4575f80fd5b823591506020830135612c7581612c3c565b634e487b7160e01b5f52603260045260245ffd5b634e487b7160e01b5f52601160045260245ffd5b5f60018201612fef57612fef612fca565b5060010190565b60208082526013908201527210da185a5b881b9bdd081cdd5c1c1bdc9d1959606a1b604082015260600190565b81810381811115612cf357612cf3612fca565b634e487b7160e01b5f52603160045260245ffd5b6020808252601690820152752737ba1030baba3437b934bd32b2103932b630bcb2b960511b604082015260600190565b602080825260149082015273496e76616c69642075736572206164647265737360601b604082015260600190565b6001600160601b0319606098891b811682529690971b9095166014870152602886019390935260488501919091526068840152608883015260a882015260c80190565b5f602082840312156130fb575f80fd5b5051919050565b80820180821115612cf357612cf3612fca565b5f5b8381101561312f578181015183820152602001613117565b50505f910152565b5f815180845261314e816020860160208601613115565b601f01601f19169290920160200192915050565b604081525f83516080604084015261317d60c0840182613137565b6020868101516001600160a01b0316606086810191909152604088015160808701529096015160a0850152929094019290925292915050565b80516131c181612c3c565b919050565b5f602082840312156131d6575f80fd5b8151610b4681612c3c565b6020815281516020820152602082015160408201525f604083015160018060a01b0380821660608501528060608601511660808501525050608083015160e060a0840152613233610100840182613137565b905060a084015160c084015260c084015160e08401528091505092915050565b634e487b7160e01b5f52604160045260245ffd5b6040516080810167ffffffffffffffff8111828210171561328a5761328a613253565b60405290565b604051601f8201601f1916810167ffffffffffffffff811182821017156132b9576132b9613253565b604052919050565b5f60208083850312156132d2575f80fd5b825167ffffffffffffffff808211156132e9575f80fd5b90840190608082870312156132fc575f80fd5b613304613267565b825161330f81612bd3565b81528284015182811115613321575f80fd5b8301601f81018813613331575f80fd5b80518381111561334357613343613253565b613355601f8201601f19168701613290565b9350808452888682840101111561336a575f80fd5b61337981878601888501613115565b5050818482015260408301516040820152613396606084016131b6565b60608201529695505050505050565b5f82516133b6818460208701613115565b9190910192915050565b602081525f610b46602083018461313756fea264697066735822122044c468579d9c556354d62f0f33677815a19523d514cf4770e24e46006042773264736f6c63430008140033",
  "linkReferences": {},
  "deployedLinkReferences": {},
  "immutableReferences": {
    "6726": [
      {
        "length": 32,
        "start": 1579
      },
      {
        "length": 32,
        "start": 2416
      },
      {
        "length": 32,
        "start": 2903
      },
      {
        "length": 32,
        "start": 4273
      },
      {
        "length": 32,
        "start": 4405
      },
      {
        "length": 32,
        "start": 4673
      },
      {
        "length": 32,
        "start": 4904
      },
      {
        "length": 32,
        "start": 5644
      },
      {
        "length": 32,
        "start": 5776
      },
      {
        "length": 32,
        "start": 5929
      },
      {
        "length": 32,
        "start": 6122
      },
      {
        "length": 32,
        "start": 8652
      },
      {
        "length": 32,
        "start": 9185
      }
    ]
  },
  "inputSourceName": "project/contracts/CrossChainManager.sol",
  "buildInfoId": "solc-0_8_20-c104ac2a4beab02af3661ccba76522edd6a80bf1"
}